{
  "_format": "hh-sol-artifact-1",
  "contractName": "ActionRepo",
  "sourceName": "contracts/ActionRepo.sol",
  "abi": [
    {
      "inputs": [
        {
          "internalType": "address",
          "name": "hub",
          "type": "address"
        }
      ],
      "stateMutability": "nonpayable",
      "type": "constructor"
    },
    {
      "anonymous": false,
      "inputs": [
        {
          "indexed": true,
          "internalType": "uint256",
          "name": "id",
          "type": "uint256"
        },
        {
          "indexed": true,
          "internalType": "bytes32",
          "name": "guid",
          "type": "bytes32"
        },
        {
          "indexed": false,
          "internalType": "string",
          "name": "subject",
          "type": "string"
        },
        {
          "indexed": false,
          "internalType": "string",
          "name": "verb",
          "type": "string"
        },
        {
          "indexed": false,
          "internalType": "string",
          "name": "object",
          "type": "string"
        },
        {
          "indexed": false,
          "internalType": "string",
          "name": "tool",
          "type": "string"
        },
        {
          "indexed": false,
          "internalType": "string",
          "name": "affected",
          "type": "string"
        }
      ],
      "name": "ActionAdded",
      "type": "event"
    },
    {
      "anonymous": false,
      "inputs": [
        {
          "indexed": true,
          "internalType": "bytes32",
          "name": "guid",
          "type": "bytes32"
        },
        {
          "indexed": false,
          "internalType": "string",
          "name": "uri",
          "type": "string"
        }
      ],
      "name": "ActionURI",
      "type": "event"
    },
    {
      "anonymous": false,
      "inputs": [
        {
          "indexed": true,
          "internalType": "address",
          "name": "account",
          "type": "address"
        },
        {
          "indexed": true,
          "internalType": "address",
          "name": "operator",
          "type": "address"
        },
        {
          "indexed": false,
          "internalType": "bool",
          "name": "approved",
          "type": "bool"
        }
      ],
      "name": "ApprovalForAll",
      "type": "event"
    },
    {
      "anonymous": false,
      "inputs": [
        {
          "indexed": true,
          "internalType": "bytes32",
          "name": "guid",
          "type": "bytes32"
        },
        {
          "components": [
            {
              "internalType": "string",
              "name": "ruling",
              "type": "string"
            },
            {
              "internalType": "bool",
              "name": "evidence",
              "type": "bool"
            },
            {
              "internalType": "uint256",
              "name": "witness",
              "type": "uint256"
            }
          ],
          "indexed": false,
          "internalType": "struct DataTypes.Confirmation",
          "name": "confirmation",
          "type": "tuple"
        }
      ],
      "name": "Confirmation",
      "type": "event"
    },
    {
      "anonymous": false,
      "inputs": [
        {
          "indexed": true,
          "internalType": "uint256",
          "name": "id",
          "type": "uint256"
        },
        {
          "indexed": false,
          "internalType": "bytes32",
          "name": "guid",
          "type": "bytes32"
        }
      ],
      "name": "GUIDCreated",
      "type": "event"
    },
    {
      "anonymous": false,
      "inputs": [
        {
          "indexed": true,
          "internalType": "address",
          "name": "previousOwner",
          "type": "address"
        },
        {
          "indexed": true,
          "internalType": "address",
          "name": "newOwner",
          "type": "address"
        }
      ],
      "name": "OwnershipTransferred",
      "type": "event"
    },
    {
      "anonymous": false,
      "inputs": [
        {
          "indexed": true,
          "internalType": "address",
          "name": "operator",
          "type": "address"
        },
        {
          "indexed": true,
          "internalType": "address",
          "name": "from",
          "type": "address"
        },
        {
          "indexed": true,
          "internalType": "address",
          "name": "to",
          "type": "address"
        },
        {
          "indexed": false,
          "internalType": "uint256[]",
          "name": "ids",
          "type": "uint256[]"
        },
        {
          "indexed": false,
          "internalType": "uint256[]",
          "name": "values",
          "type": "uint256[]"
        }
      ],
      "name": "TransferBatch",
      "type": "event"
    },
    {
      "anonymous": false,
      "inputs": [
        {
          "indexed": true,
          "internalType": "address",
          "name": "operator",
          "type": "address"
        },
        {
          "indexed": true,
          "internalType": "address",
          "name": "from",
          "type": "address"
        },
        {
          "indexed": true,
          "internalType": "address",
          "name": "to",
          "type": "address"
        },
        {
          "indexed": false,
          "internalType": "uint256",
          "name": "id",
          "type": "uint256"
        },
        {
          "indexed": false,
          "internalType": "uint256",
          "name": "value",
          "type": "uint256"
        }
      ],
      "name": "TransferSingle",
      "type": "event"
    },
    {
      "anonymous": false,
      "inputs": [
        {
          "indexed": false,
          "internalType": "string",
          "name": "value",
          "type": "string"
        },
        {
          "indexed": true,
          "internalType": "uint256",
          "name": "id",
          "type": "uint256"
        }
      ],
      "name": "URI",
      "type": "event"
    },
    {
      "inputs": [
        {
          "internalType": "address",
          "name": "account",
          "type": "address"
        },
        {
          "internalType": "bytes32",
          "name": "guid",
          "type": "bytes32"
        }
      ],
      "name": "GUIDHas",
      "outputs": [
        {
          "internalType": "bool",
          "name": "",
          "type": "bool"
        }
      ],
      "stateMutability": "view",
      "type": "function"
    },
    {
      "inputs": [
        {
          "components": [
            {
              "internalType": "string",
              "name": "subject",
              "type": "string"
            },
            {
              "internalType": "string",
              "name": "verb",
              "type": "string"
            },
            {
              "internalType": "string",
              "name": "object",
              "type": "string"
            },
            {
              "internalType": "string",
              "name": "tool",
              "type": "string"
            },
            {
              "internalType": "string",
              "name": "affected",
              "type": "string"
            }
          ],
          "internalType": "struct DataTypes.SVO",
          "name": "svo",
          "type": "tuple"
        },
        {
          "components": [
            {
              "internalType": "string",
              "name": "ruling",
              "type": "string"
            },
            {
              "internalType": "bool",
              "name": "evidence",
              "type": "bool"
            },
            {
              "internalType": "uint256",
              "name": "witness",
              "type": "uint256"
            }
          ],
          "internalType": "struct DataTypes.Confirmation",
          "name": "confirmation",
          "type": "tuple"
        },
        {
          "internalType": "string",
          "name": "uri",
          "type": "string"
        }
      ],
      "name": "actionAdd",
      "outputs": [
        {
          "internalType": "bytes32",
          "name": "",
          "type": "bytes32"
        }
      ],
      "stateMutability": "nonpayable",
      "type": "function"
    },
    {
      "inputs": [
        {
          "internalType": "bytes32",
          "name": "guid",
          "type": "bytes32"
        }
      ],
      "name": "actionGet",
      "outputs": [
        {
          "components": [
            {
              "internalType": "string",
              "name": "subject",
              "type": "string"
            },
            {
              "internalType": "string",
              "name": "verb",
              "type": "string"
            },
            {
              "internalType": "string",
              "name": "object",
              "type": "string"
            },
            {
              "internalType": "string",
              "name": "tool",
              "type": "string"
            },
            {
              "internalType": "string",
              "name": "affected",
              "type": "string"
            }
          ],
          "internalType": "struct DataTypes.SVO",
          "name": "",
          "type": "tuple"
        }
      ],
      "stateMutability": "view",
      "type": "function"
    },
    {
      "inputs": [
        {
          "internalType": "bytes32",
          "name": "guid",
          "type": "bytes32"
        }
      ],
      "name": "actionGetConfirmation",
      "outputs": [
        {
          "components": [
            {
              "internalType": "string",
              "name": "ruling",
              "type": "string"
            },
            {
              "internalType": "bool",
              "name": "evidence",
              "type": "bool"
            },
            {
              "internalType": "uint256",
              "name": "witness",
              "type": "uint256"
            }
          ],
          "internalType": "struct DataTypes.Confirmation",
          "name": "",
          "type": "tuple"
        }
      ],
      "stateMutability": "view",
      "type": "function"
    },
    {
      "inputs": [
        {
          "internalType": "bytes32",
          "name": "guid",
          "type": "bytes32"
        }
      ],
      "name": "actionGetURI",
      "outputs": [
        {
          "internalType": "string",
          "name": "",
          "type": "string"
        }
      ],
      "stateMutability": "view",
      "type": "function"
    },
    {
      "inputs": [
        {
          "components": [
            {
              "internalType": "string",
              "name": "subject",
              "type": "string"
            },
            {
              "internalType": "string",
              "name": "verb",
              "type": "string"
            },
            {
              "internalType": "string",
              "name": "object",
              "type": "string"
            },
            {
              "internalType": "string",
              "name": "tool",
              "type": "string"
            },
            {
              "internalType": "string",
              "name": "affected",
              "type": "string"
            }
          ],
          "internalType": "struct DataTypes.SVO",
          "name": "svo",
          "type": "tuple"
        }
      ],
      "name": "actionHash",
      "outputs": [
        {
          "internalType": "bytes32",
          "name": "",
          "type": "bytes32"
        }
      ],
      "stateMutability": "pure",
      "type": "function"
    },
    {
      "inputs": [
        {
          "internalType": "bytes32",
          "name": "guid",
          "type": "bytes32"
        },
        {
          "components": [
            {
              "internalType": "string",
              "name": "ruling",
              "type": "string"
            },
            {
              "internalType": "bool",
              "name": "evidence",
              "type": "bool"
            },
            {
              "internalType": "uint256",
              "name": "witness",
              "type": "uint256"
            }
          ],
          "internalType": "struct DataTypes.Confirmation",
          "name": "confirmation",
          "type": "tuple"
        }
      ],
      "name": "actionSetConfirmation",
      "outputs": [],
      "stateMutability": "nonpayable",
      "type": "function"
    },
    {
      "inputs": [
        {
          "internalType": "bytes32",
          "name": "guid",
          "type": "bytes32"
        },
        {
          "internalType": "string",
          "name": "uri",
          "type": "string"
        }
      ],
      "name": "actionSetURI",
      "outputs": [],
      "stateMutability": "nonpayable",
      "type": "function"
    },
    {
      "inputs": [
        {
          "internalType": "address",
          "name": "account",
          "type": "address"
        },
        {
          "internalType": "uint256",
          "name": "id",
          "type": "uint256"
        }
      ],
      "name": "balanceOf",
      "outputs": [
        {
          "internalType": "uint256",
          "name": "",
          "type": "uint256"
        }
      ],
      "stateMutability": "view",
      "type": "function"
    },
    {
      "inputs": [
        {
          "internalType": "address[]",
          "name": "accounts",
          "type": "address[]"
        },
        {
          "internalType": "uint256[]",
          "name": "ids",
          "type": "uint256[]"
        }
      ],
      "name": "balanceOfBatch",
      "outputs": [
        {
          "internalType": "uint256[]",
          "name": "",
          "type": "uint256[]"
        }
      ],
      "stateMutability": "view",
      "type": "function"
    },
    {
      "inputs": [
        {
          "internalType": "bytes32",
          "name": "_bytes32",
          "type": "bytes32"
        }
      ],
      "name": "bytes32ToString",
      "outputs": [
        {
          "internalType": "string",
          "name": "",
          "type": "string"
        }
      ],
      "stateMutability": "pure",
      "type": "function"
    },
    {
      "inputs": [
        {
          "internalType": "address",
          "name": "account",
          "type": "address"
        },
        {
          "internalType": "address",
          "name": "operator",
          "type": "address"
        }
      ],
      "name": "isApprovedForAll",
      "outputs": [
        {
          "internalType": "bool",
          "name": "",
          "type": "bool"
        }
      ],
      "stateMutability": "view",
      "type": "function"
    },
    {
      "inputs": [],
      "name": "name",
      "outputs": [
        {
          "internalType": "string",
          "name": "",
          "type": "string"
        }
      ],
      "stateMutability": "view",
      "type": "function"
    },
    {
      "inputs": [],
      "name": "name2",
      "outputs": [
        {
          "internalType": "string",
          "name": "",
          "type": "string"
        }
      ],
      "stateMutability": "view",
      "type": "function"
    },
    {
      "inputs": [],
      "name": "owner",
      "outputs": [
        {
          "internalType": "address",
          "name": "",
          "type": "address"
        }
      ],
      "stateMutability": "view",
      "type": "function"
    },
    {
      "inputs": [],
      "name": "renounceOwnership",
      "outputs": [],
      "stateMutability": "nonpayable",
      "type": "function"
    },
    {
      "inputs": [
        {
          "internalType": "address",
          "name": "from",
          "type": "address"
        },
        {
          "internalType": "address",
          "name": "to",
          "type": "address"
        },
        {
          "internalType": "uint256[]",
          "name": "ids",
          "type": "uint256[]"
        },
        {
          "internalType": "uint256[]",
          "name": "amounts",
          "type": "uint256[]"
        },
        {
          "internalType": "bytes",
          "name": "data",
          "type": "bytes"
        }
      ],
      "name": "safeBatchTransferFrom",
      "outputs": [],
      "stateMutability": "nonpayable",
      "type": "function"
    },
    {
      "inputs": [
        {
          "internalType": "address",
          "name": "from",
          "type": "address"
        },
        {
          "internalType": "address",
          "name": "to",
          "type": "address"
        },
        {
          "internalType": "uint256",
          "name": "id",
          "type": "uint256"
        },
        {
          "internalType": "uint256",
          "name": "amount",
          "type": "uint256"
        },
        {
          "internalType": "bytes",
          "name": "data",
          "type": "bytes"
        }
      ],
      "name": "safeTransferFrom",
      "outputs": [],
      "stateMutability": "nonpayable",
      "type": "function"
    },
    {
      "inputs": [
        {
          "internalType": "address",
          "name": "operator",
          "type": "address"
        },
        {
          "internalType": "bool",
          "name": "approved",
          "type": "bool"
        }
      ],
      "name": "setApprovalForAll",
      "outputs": [],
      "stateMutability": "nonpayable",
      "type": "function"
    },
    {
      "inputs": [
        {
          "internalType": "bytes4",
          "name": "interfaceId",
          "type": "bytes4"
        }
      ],
      "name": "supportsInterface",
      "outputs": [
        {
          "internalType": "bool",
          "name": "",
          "type": "bool"
        }
      ],
      "stateMutability": "view",
      "type": "function"
    },
    {
      "inputs": [],
      "name": "symbol",
      "outputs": [
        {
          "internalType": "string",
          "name": "",
          "type": "string"
        }
      ],
      "stateMutability": "view",
      "type": "function"
    },
    {
      "inputs": [
        {
          "internalType": "bytes",
          "name": "foo",
          "type": "bytes"
        }
      ],
      "name": "testBytes",
      "outputs": [
        {
          "internalType": "bytes",
          "name": "",
          "type": "bytes"
        }
      ],
      "stateMutability": "view",
      "type": "function"
    },
    {
      "inputs": [
        {
          "internalType": "address",
          "name": "newOwner",
          "type": "address"
        }
      ],
      "name": "transferOwnership",
      "outputs": [],
      "stateMutability": "nonpayable",
      "type": "function"
    },
    {
      "inputs": [
        {
          "internalType": "uint256",
          "name": "",
          "type": "uint256"
        }
      ],
      "name": "uri",
      "outputs": [
        {
          "internalType": "string",
          "name": "",
          "type": "string"
        }
      ],
      "stateMutability": "view",
      "type": "function"
    }
  ],
  "bytecode": "0x60806040523480156200001157600080fd5b506040516200503738038062005037833981810160405281019062000037919062000461565b604051806020016040528060008152508082620000696200005d620000e360201b60201c565b620000eb60201b60201c565b6200007a81620001af60201b60201c565b506200008c816200030c60201b60201c565b50506040518060400160405280601681526020017f596f75724a757374696365204576656e74205265706f0000000000000000000081525060079080519060200190620000db92919062000328565b5050620007e0565b600033905090565b60008060009054906101000a900473ffffffffffffffffffffffffffffffffffffffff169050816000806101000a81548173ffffffffffffffffffffffffffffffffffffffff021916908373ffffffffffffffffffffffffffffffffffffffff1602179055508173ffffffffffffffffffffffffffffffffffffffff168173ffffffffffffffffffffffffffffffffffffffff167f8be0079c531659141344cd1fd0a4f28419497f9722a3daafe3b4186f6b6457e060405160405180910390a35050565b604051602001620001c09062000570565b604051602081830303815290604052805190602001208173ffffffffffffffffffffffffffffffffffffffff166310055c1d6040518163ffffffff1660e01b815260040160006040518083038186803b1580156200021d57600080fd5b505afa15801562000232573d6000803e3d6000fd5b505050506040513d6000823e3d601f19601f820116820180604052508101906200025d91906200048d565b6040516020016200026f919062000557565b6040516020818303038152906040528051906020012014620002c8576040517f08c379a0000000000000000000000000000000000000000000000000000000008152600401620002bf9062000587565b60405180910390fd5b80600160006101000a81548173ffffffffffffffffffffffffffffffffffffffff021916908373ffffffffffffffffffffffffffffffffffffffff16021790555050565b80600490805190602001906200032492919062000328565b5050565b828054620003369062000699565b90600052602060002090601f0160209004810192826200035a5760008555620003a6565b82601f106200037557805160ff1916838001178555620003a6565b82800160010185558215620003a6579182015b82811115620003a557825182559160200191906001019062000388565b5b509050620003b59190620003b9565b5090565b5b80821115620003d4576000816000905550600101620003ba565b5090565b6000620003ef620003e984620005d2565b620005a9565b9050828152602081018484840111156200040857600080fd5b6200041584828562000663565b509392505050565b6000815190506200042e81620007c6565b92915050565b600082601f8301126200044657600080fd5b815162000458848260208601620003d8565b91505092915050565b6000602082840312156200047457600080fd5b600062000484848285016200041d565b91505092915050565b600060208284031215620004a057600080fd5b600082015167ffffffffffffffff811115620004bb57600080fd5b620004c98482850162000434565b91505092915050565b6000620004df8262000608565b620004eb818562000624565b9350620004fd81856020860162000663565b80840191505092915050565b60006200051860148362000613565b9150620005258262000774565b602082019050919050565b60006200053f60058362000624565b91506200054c826200079d565b600582019050919050565b6000620005658284620004d2565b915081905092915050565b60006200057d8262000530565b9150819050919050565b60006020820190508181036000830152620005a28162000509565b9050919050565b6000620005b5620005c8565b9050620005c38282620006cf565b919050565b6000604051905090565b600067ffffffffffffffff821115620005f057620005ef62000734565b5b620005fb8262000763565b9050602081019050919050565b600081519050919050565b600082825260208201905092915050565b600081905092915050565b60006200063c8262000643565b9050919050565b600073ffffffffffffffffffffffffffffffffffffffff82169050919050565b60005b838110156200068357808201518184015260208101905062000666565b8381111562000693576000848401525b50505050565b60006002820490506001821680620006b257607f821691505b60208210811415620006c957620006c862000705565b5b50919050565b620006da8262000763565b810181811067ffffffffffffffff82111715620006fc57620006fb62000734565b5b80604052505050565b7f4e487b7100000000000000000000000000000000000000000000000000000000600052602260045260246000fd5b7f4e487b7100000000000000000000000000000000000000000000000000000000600052604160045260246000fd5b6000601f19601f8301169050919050565b7f496e76616c69642048756220436f6e7472616374000000000000000000000000600082015250565b7f594a487562000000000000000000000000000000000000000000000000000000600082015250565b620007d1816200062f565b8114620007dd57600080fd5b50565b61484780620007f06000396000f3fe608060405234801561001057600080fd5b50600436106101575760003560e01c80634e88fddf116100c3578063a22cb4651161007c578063a22cb46514610426578063be6358c214610442578063cfc4e3e41461045e578063e985e9c51461048e578063f242432a146104be578063f2fde38b146104da57610157565b80634e88fddf14610350578063715018a6146103805780638da5cb5b1461038a5780639201de55146103a857806395d89b41146103d85780639b18b5f1146103f657610157565b80631296e13b116101155780631296e13b1461026a5780632522f986146102865780632eb2c2d6146102b65780633ca8b1a7146102d25780634b67f6af146103025780634e1273f41461032057610157565b8062fdd58e1461015c578063017e53eb1461018c57806301ffc9a7146101bc57806306fdde03146101ec5780630e89341c1461020a5780630f42a9551461023a575b600080fd5b61017660048036038101906101719190613271565b6104f6565b6040516101839190613e7f565b60405180910390f35b6101a660048036038101906101a1919061347d565b6105c0565b6040516101b39190613b76565b60405180910390f35b6101d660048036038101906101d191906133ea565b61060c565b6040516101e39190613b5b565b60405180910390f35b6101f46106ee565b6040516102019190613bb3565b60405180910390f35b610224600480360381019061021f9190613555565b61077c565b6040516102319190613bb3565b60405180910390f35b610254600480360381019061024f9190613319565b610810565b6040516102619190613bb3565b60405180910390f35b610284600480360381019061027f9190613342565b6108c0565b005b6102a0600480360381019061029b9190613319565b6108ce565b6040516102ad9190613e3b565b60405180910390f35b6102d060048036038101906102cb91906130ab565b6109bd565b005b6102ec60048036038101906102e7919061343c565b610a5e565b6040516102f99190613b91565b60405180910390f35b61030a610aaf565b6040516103179190613bb3565b60405180910390f35b61033a600480360381019061033591906132ad565b610b41565b6040516103479190613b02565b60405180910390f35b61036a60048036038101906103659190613235565b610cf2565b6040516103779190613b5b565b60405180910390f35b610388610d10565b005b610392610d98565b60405161039f9190613a25565b60405180910390f35b6103c260048036038101906103bd9190613319565b610e3f565b6040516103cf9190613bb3565b60405180910390f35b6103e0611098565b6040516103ed9190613bb3565b60405180910390f35b610410600480360381019061040b91906134be565b6110d1565b60405161041d9190613b76565b60405180910390f35b610440600480360381019061043b91906131f9565b6110fe565b005b61045c60048036038101906104579190613396565b611114565b005b61047860048036038101906104739190613319565b611122565b6040516104859190613e5d565b60405180910390f35b6104a860048036038101906104a3919061306f565b61113a565b6040516104b59190613b5b565b60405180910390f35b6104d860048036038101906104d3919061316a565b6111ce565b005b6104f460048036038101906104ef919061301d565b61126f565b005b60008073ffffffffffffffffffffffffffffffffffffffff168373ffffffffffffffffffffffffffffffffffffffff161415610567576040517f08c379a000000000000000000000000000000000000000000000000000000000815260040161055e90613cbb565b60405180910390fd5b6002600083815260200190815260200160002060008473ffffffffffffffffffffffffffffffffffffffff1673ffffffffffffffffffffffffffffffffffffffff16815260200190815260200160002054905092915050565b6000816000015182602001518360400151846060015185608001516040516020016105ef959493929190613bd5565b604051602081830303815290604052805190602001209050919050565b60007fd9b67a26000000000000000000000000000000000000000000000000000000007bffffffffffffffffffffffffffffffffffffffffffffffffffffffff1916827bffffffffffffffffffffffffffffffffffffffffffffffffffffffff191614806106d757507f0e89341c000000000000000000000000000000000000000000000000000000007bffffffffffffffffffffffffffffffffffffffffffffffffffffffff1916827bffffffffffffffffffffffffffffffffffffffffffffffffffffffff1916145b806106e757506106e682611367565b5b9050919050565b600780546106fb90614152565b80601f016020809104026020016040519081016040528092919081815260200182805461072790614152565b80156107745780601f1061074957610100808354040283529160200191610774565b820191906000526020600020905b81548152906001019060200180831161075757829003601f168201915b505050505081565b60606004805461078b90614152565b80601f01602080910402602001604051908101604052809291908181526020018280546107b790614152565b80156108045780601f106107d957610100808354040283529160200191610804565b820191906000526020600020905b8154815290600101906020018083116107e757829003601f168201915b50505050509050919050565b6060600a600061081f846113d1565b8152602001908152602001600020600001805461083b90614152565b80601f016020809104026020016040519081016040528092919081815260200182805461086790614152565b80156108b45780601f10610889576101008083540402835291602001916108b4565b820191906000526020600020905b81548152906001019060200180831161089757829003601f168201915b50505050509050919050565b6108ca8282611438565b5050565b6108d6612b21565b600a60006108e3846113d1565b815260200190815260200160002060010160405180606001604052908160008201805461090f90614152565b80601f016020809104026020016040519081016040528092919081815260200182805461093b90614152565b80156109885780601f1061095d57610100808354040283529160200191610988565b820191906000526020600020905b81548152906001019060200180831161096b57829003601f168201915b505050505081526020016001820160009054906101000a900460ff161515151581526020016002820154815250509050919050565b6109c56114a7565b73ffffffffffffffffffffffffffffffffffffffff168573ffffffffffffffffffffffffffffffffffffffff161480610a0b5750610a0a85610a056114a7565b61113a565b5b610a4a576040517f08c379a0000000000000000000000000000000000000000000000000000000008152600401610a4190613d3b565b60405180910390fd5b610a5785858585856114af565b5050505050565b6060610a9e6040518060400160405280600681526020017f42797465733a0000000000000000000000000000000000000000000000000000815250611812565b610aa7826118ab565b819050919050565b606060078054610abe90614152565b80601f0160208091040260200160405190810160405280929190818152602001828054610aea90614152565b8015610b375780601f10610b0c57610100808354040283529160200191610b37565b820191906000526020600020905b815481529060010190602001808311610b1a57829003601f168201915b5050505050905090565b60608151835114610b87576040517f08c379a0000000000000000000000000000000000000000000000000000000008152600401610b7e90613ddb565b60405180910390fd5b6000835167ffffffffffffffff811115610bca577f4e487b7100000000000000000000000000000000000000000000000000000000600052604160045260246000fd5b604051908082528060200260200182016040528015610bf85781602001602082028036833780820191505090505b50905060005b8451811015610ce757610c91858281518110610c43577f4e487b7100000000000000000000000000000000000000000000000000000000600052603260045260246000fd5b6020026020010151858381518110610c84577f4e487b7100000000000000000000000000000000000000000000000000000000600052603260045260246000fd5b60200260200101516104f6565b828281518110610cca577f4e487b7100000000000000000000000000000000000000000000000000000000600052603260045260246000fd5b60200260200101818152505080610ce0906141b5565b9050610bfe565b508091505092915050565b600080610d0784610d02856113d1565b6104f6565b11905092915050565b610d186114a7565b73ffffffffffffffffffffffffffffffffffffffff16610d36610d98565b73ffffffffffffffffffffffffffffffffffffffff1614610d8c576040517f08c379a0000000000000000000000000000000000000000000000000000000008152600401610d8390613d9b565b60405180910390fd5b610d966000611944565b565b6000600160009054906101000a900473ffffffffffffffffffffffffffffffffffffffff1673ffffffffffffffffffffffffffffffffffffffff16638da5cb5b6040518163ffffffff1660e01b815260040160206040518083038186803b158015610e0257600080fd5b505afa158015610e16573d6000803e3d6000fd5b505050506040513d601f19601f82011682018060405250810190610e3a9190613046565b905090565b606060005b60208160ff16108015610ebc5750600060f81b838260ff1660208110610e93577f4e487b7100000000000000000000000000000000000000000000000000000000600052603260045260246000fd5b1a60f81b7effffffffffffffffffffffffffffffffffffffffffffffffffffffffffffff191614155b15610ed4578080610ecc906141fe565b915050610e44565b60008160ff1667ffffffffffffffff811115610f19577f4e487b7100000000000000000000000000000000000000000000000000000000600052604160045260246000fd5b6040519080825280601f01601f191660200182016040528015610f4b5781602001600182028036833780820191505090505b509050600091505b60208260ff16108015610fcb5750600060f81b848360ff1660208110610fa2577f4e487b7100000000000000000000000000000000000000000000000000000000600052603260045260246000fd5b1a60f81b7effffffffffffffffffffffffffffffffffffffffffffffffffffffffffffff191614155b1561108e57838260ff166020811061100c577f4e487b7100000000000000000000000000000000000000000000000000000000600052603260045260246000fd5b1a60f81b818360ff168151811061104c577f4e487b7100000000000000000000000000000000000000000000000000000000600052603260045260246000fd5b60200101907effffffffffffffffffffffffffffffffffffffffffffffffffffffffffffff1916908160001a9053508180611086906141fe565b925050610f53565b8092505050919050565b6040518060400160405280600781526020017f484953544f52590000000000000000000000000000000000000000000000000081525081565b6000806110dd85611a08565b90506110e98185611c3e565b6110f38184611438565b809150509392505050565b6111106111096114a7565b8383611ce3565b5050565b61111e8282611c3e565b5050565b61112a612b44565b61113382611e50565b9050919050565b6000600360008473ffffffffffffffffffffffffffffffffffffffff1673ffffffffffffffffffffffffffffffffffffffff16815260200190815260200160002060008373ffffffffffffffffffffffffffffffffffffffff1673ffffffffffffffffffffffffffffffffffffffff16815260200190815260200160002060009054906101000a900460ff16905092915050565b6111d66114a7565b73ffffffffffffffffffffffffffffffffffffffff168573ffffffffffffffffffffffffffffffffffffffff16148061121c575061121b856112166114a7565b61113a565b5b61125b576040517f08c379a000000000000000000000000000000000000000000000000000000000815260040161125290613cfb565b60405180910390fd5b6112688585858585612157565b5050505050565b6112776114a7565b73ffffffffffffffffffffffffffffffffffffffff16611295610d98565b73ffffffffffffffffffffffffffffffffffffffff16146112eb576040517f08c379a00000000000000000000000000000000000000000000000000000000081526004016112e290613d9b565b60405180910390fd5b600073ffffffffffffffffffffffffffffffffffffffff168173ffffffffffffffffffffffffffffffffffffffff16141561135b576040517f08c379a000000000000000000000000000000000000000000000000000000000815260040161135290613cdb565b60405180910390fd5b61136481611944565b50565b60007f01ffc9a7000000000000000000000000000000000000000000000000000000007bffffffffffffffffffffffffffffffffffffffffffffffffffffffff1916827bffffffffffffffffffffffffffffffffffffffffffffffffffffffff1916149050919050565b6000816113dd816123dc565b61141c576040517f08c379a000000000000000000000000000000000000000000000000000000000815260040161141390613e1b565b60405180910390fd5b6006600084815260200190815260200160002054915050919050565b80600a6000611446856113d1565b8152602001908152602001600020600001908051906020019061146a929190612b73565b50817fb8d4e555e2555db4969fb523ee3a31a690ee2a063ba5372333e18111867010268260405161149b9190613bb3565b60405180910390a25050565b600033905090565b81518351146114f3576040517f08c379a00000000000000000000000000000000000000000000000000000000081526004016114ea90613dfb565b60405180910390fd5b600073ffffffffffffffffffffffffffffffffffffffff168473ffffffffffffffffffffffffffffffffffffffff161415611563576040517f08c379a000000000000000000000000000000000000000000000000000000000815260040161155a90613d1b565b60405180910390fd5b600061156d6114a7565b905061157d8187878787876123fc565b60005b845181101561177d5760008582815181106115c4577f4e487b7100000000000000000000000000000000000000000000000000000000600052603260045260246000fd5b602002602001015190506000858381518110611609577f4e487b7100000000000000000000000000000000000000000000000000000000600052603260045260246000fd5b6020026020010151905060006002600084815260200190815260200160002060008b73ffffffffffffffffffffffffffffffffffffffff1673ffffffffffffffffffffffffffffffffffffffff168152602001908152602001600020549050818110156116ab576040517f08c379a00000000000000000000000000000000000000000000000000000000081526004016116a290613d7b565b60405180910390fd5b8181036002600085815260200190815260200160002060008c73ffffffffffffffffffffffffffffffffffffffff1673ffffffffffffffffffffffffffffffffffffffff16815260200190815260200160002081905550816002600085815260200190815260200160002060008b73ffffffffffffffffffffffffffffffffffffffff1673ffffffffffffffffffffffffffffffffffffffff1681526020019081526020016000206000828254611762919061402f565b9250508190555050505080611776906141b5565b9050611580565b508473ffffffffffffffffffffffffffffffffffffffff168673ffffffffffffffffffffffffffffffffffffffff168273ffffffffffffffffffffffffffffffffffffffff167f4a39dc06d4c0dbc64b70af90fd698a233a518aa5d07e595d983b8c0526c8f7fb87876040516117f4929190613b24565b60405180910390a461180a818787878787612404565b505050505050565b6118a8816040516024016118269190613bb3565b6040516020818303038152906040527f41304fac000000000000000000000000000000000000000000000000000000007bffffffffffffffffffffffffffffffffffffffffffffffffffffffff19166020820180517bffffffffffffffffffffffffffffffffffffffffffffffffffffffff83818316178352505050506125eb565b50565b611941816040516024016118bf9190613b91565b6040516020818303038152906040527f0be77f56000000000000000000000000000000000000000000000000000000007bffffffffffffffffffffffffffffffffffffffffffffffffffffffff19166020820180517bffffffffffffffffffffffffffffffffffffffffffffffffffffffff83818316178352505050506125eb565b50565b60008060009054906101000a900473ffffffffffffffffffffffffffffffffffffffff169050816000806101000a81548173ffffffffffffffffffffffffffffffffffffffff021916908373ffffffffffffffffffffffffffffffffffffffff1602179055508173ffffffffffffffffffffffffffffffffffffffff168173ffffffffffffffffffffffffffffffffffffffff167f8be0079c531659141344cd1fd0a4f28419497f9722a3daafe3b4186f6b6457e060405160405180910390a35050565b6000611a486040518060400160405280600a81526020017f5f616374696f6e41646400000000000000000000000000000000000000000000815250611812565b6000611a53836105c0565b9050611a936040518060400160405280600681526020017f677569643a200000000000000000000000000000000000000000000000000000815250611812565b611a9c81612614565b60001515611aa9826123dc565b151514611aeb576040517f08c379a0000000000000000000000000000000000000000000000000000000008152600401611ae290613d5b565b60405180910390fd5b6000611af6826126ad565b9050611b376040518060400160405280600f81526020017f4e657720416374696f6e2069643a20000000000000000000000000000000000081525082612791565b83600960008481526020019081526020016000206000820151816000019080519060200190611b67929190612b73565b506020820151816001019080519060200190611b84929190612b73565b506040820151816002019080519060200190611ba1929190612b73565b506060820151816003019080519060200190611bbe929190612b73565b506080820151816004019080519060200190611bdb929190612b73565b5090505081817fa6e4efbed5c65872f7d8784082298c26405e8f62e3613c0e2c1ded455a37f02e86600001518760200151886040015189606001518a60800151604051611c2c959493929190613bd5565b60405180910390a38192505050919050565b80600a6000611c4c856113d1565b81526020019081526020016000206001016000820151816000019080519060200190611c79929190612b73565b5060208201518160010160006101000a81548160ff02191690831515021790555060408201518160020155905050817fb51fef63a3249adac600f7ec7765554769abe679a268e3fb43203d20d380b93d82604051611cd79190613e3b565b60405180910390a25050565b8173ffffffffffffffffffffffffffffffffffffffff168373ffffffffffffffffffffffffffffffffffffffff161415611d52576040517f08c379a0000000000000000000000000000000000000000000000000000000008152600401611d4990613dbb565b60405180910390fd5b80600360008573ffffffffffffffffffffffffffffffffffffffff1673ffffffffffffffffffffffffffffffffffffffff16815260200190815260200160002060008473ffffffffffffffffffffffffffffffffffffffff1673ffffffffffffffffffffffffffffffffffffffff16815260200190815260200160002060006101000a81548160ff0219169083151502179055508173ffffffffffffffffffffffffffffffffffffffff168373ffffffffffffffffffffffffffffffffffffffff167f17307eab39ab6107e8899845ad3d59bd9653f200f220920489ca2b5937696c3183604051611e439190613b5b565b60405180910390a3505050565b611e58612b44565b600960008381526020019081526020016000206040518060a0016040529081600082018054611e8690614152565b80601f0160208091040260200160405190810160405280929190818152602001828054611eb290614152565b8015611eff5780601f10611ed457610100808354040283529160200191611eff565b820191906000526020600020905b815481529060010190602001808311611ee257829003601f168201915b50505050508152602001600182018054611f1890614152565b80601f0160208091040260200160405190810160405280929190818152602001828054611f4490614152565b8015611f915780601f10611f6657610100808354040283529160200191611f91565b820191906000526020600020905b815481529060010190602001808311611f7457829003601f168201915b50505050508152602001600282018054611faa90614152565b80601f0160208091040260200160405190810160405280929190818152602001828054611fd690614152565b80156120235780601f10611ff857610100808354040283529160200191612023565b820191906000526020600020905b81548152906001019060200180831161200657829003601f168201915b5050505050815260200160038201805461203c90614152565b80601f016020809104026020016040519081016040528092919081815260200182805461206890614152565b80156120b55780601f1061208a576101008083540402835291602001916120b5565b820191906000526020600020905b81548152906001019060200180831161209857829003601f168201915b505050505081526020016004820180546120ce90614152565b80601f01602080910402602001604051908101604052809291908181526020018280546120fa90614152565b80156121475780601f1061211c57610100808354040283529160200191612147565b820191906000526020600020905b81548152906001019060200180831161212a57829003601f168201915b5050505050815250509050919050565b600073ffffffffffffffffffffffffffffffffffffffff168473ffffffffffffffffffffffffffffffffffffffff1614156121c7576040517f08c379a00000000000000000000000000000000000000000000000000000000081526004016121be90613d1b565b60405180910390fd5b60006121d16114a7565b90506121f18187876121e28861282d565b6121eb8861282d565b876123fc565b60006002600086815260200190815260200160002060008873ffffffffffffffffffffffffffffffffffffffff1673ffffffffffffffffffffffffffffffffffffffff16815260200190815260200160002054905083811015612289576040517f08c379a000000000000000000000000000000000000000000000000000000000815260040161228090613d7b565b60405180910390fd5b8381036002600087815260200190815260200160002060008973ffffffffffffffffffffffffffffffffffffffff1673ffffffffffffffffffffffffffffffffffffffff16815260200190815260200160002081905550836002600087815260200190815260200160002060008873ffffffffffffffffffffffffffffffffffffffff1673ffffffffffffffffffffffffffffffffffffffff1681526020019081526020016000206000828254612340919061402f565b925050819055508573ffffffffffffffffffffffffffffffffffffffff168773ffffffffffffffffffffffffffffffffffffffff168373ffffffffffffffffffffffffffffffffffffffff167fc3d58168c5ae7397731d063d5bbf3d657854427343f4c083240f7aacaa2d0f6288886040516123bd929190613e9a565b60405180910390a46123d38288888888886128f3565b50505050505050565b600080600660008481526020019081526020016000205414159050919050565b505050505050565b6124238473ffffffffffffffffffffffffffffffffffffffff16612ada565b156125e3578373ffffffffffffffffffffffffffffffffffffffff1663bc197c8187878686866040518663ffffffff1660e01b8152600401612469959493929190613a40565b602060405180830381600087803b15801561248357600080fd5b505af19250505080156124b457506040513d601f19601f820116820180604052508101906124b19190613413565b60015b61255a576124c06142bf565b806308c379a0141561251d57506124d5614708565b806124e0575061251f565b806040517f08c379a00000000000000000000000000000000000000000000000000000000081526004016125149190613bb3565b60405180910390fd5b505b6040517f08c379a000000000000000000000000000000000000000000000000000000000815260040161255190613c7b565b60405180910390fd5b63bc197c8160e01b7bffffffffffffffffffffffffffffffffffffffffffffffffffffffff1916817bffffffffffffffffffffffffffffffffffffffffffffffffffffffff1916146125e1576040517f08c379a00000000000000000000000000000000000000000000000000000000081526004016125d890613c9b565b60405180910390fd5b505b505050505050565b60008151905060006a636f6e736f6c652e6c6f679050602083016000808483855afa5050505050565b6126aa816040516024016126289190613b76565b6040516020818303038152906040527f27b7cf85000000000000000000000000000000000000000000000000000000007bffffffffffffffffffffffffffffffffffffffffffffffffffffffff19166020820180517bffffffffffffffffffffffffffffffffffffffffffffffffffffffff83818316178352505050506125eb565b50565b60008015156126bb836123dc565b151514826040516020016126cf91906139ff565b6040516020818303038152906040529061271f576040517f08c379a00000000000000000000000000000000000000000000000000000000081526004016127169190613bb3565b60405180910390fd5b5061272a6005612afd565b60006127366005612b13565b9050806006600085815260200190815260200160002081905550807fdcbad45255876953d8aaa865d840700b7d2d4a83ae0d627f028e8bf3a1986c5e846040516127809190613b76565b60405180910390a280915050919050565b61282982826040516024016127a7929190613c4b565b6040516020818303038152906040527f9710a9d0000000000000000000000000000000000000000000000000000000007bffffffffffffffffffffffffffffffffffffffffffffffffffffffff19166020820180517bffffffffffffffffffffffffffffffffffffffffffffffffffffffff83818316178352505050506125eb565b5050565b60606000600167ffffffffffffffff811115612872577f4e487b7100000000000000000000000000000000000000000000000000000000600052604160045260246000fd5b6040519080825280602002602001820160405280156128a05781602001602082028036833780820191505090505b50905082816000815181106128de577f4e487b7100000000000000000000000000000000000000000000000000000000600052603260045260246000fd5b60200260200101818152505080915050919050565b6129128473ffffffffffffffffffffffffffffffffffffffff16612ada565b15612ad2578373ffffffffffffffffffffffffffffffffffffffff1663f23a6e6187878686866040518663ffffffff1660e01b8152600401612958959493929190613aa8565b602060405180830381600087803b15801561297257600080fd5b505af19250505080156129a357506040513d601f19601f820116820180604052508101906129a09190613413565b60015b612a49576129af6142bf565b806308c379a01415612a0c57506129c4614708565b806129cf5750612a0e565b806040517f08c379a0000000000000000000000000000000000000000000000000000000008152600401612a039190613bb3565b60405180910390fd5b505b6040517f08c379a0000000000000000000000000000000000000000000000000000000008152600401612a4090613c7b565b60405180910390fd5b63f23a6e6160e01b7bffffffffffffffffffffffffffffffffffffffffffffffffffffffff1916817bffffffffffffffffffffffffffffffffffffffffffffffffffffffff191614612ad0576040517f08c379a0000000000000000000000000000000000000000000000000000000008152600401612ac790613c9b565b60405180910390fd5b505b505050505050565b6000808273ffffffffffffffffffffffffffffffffffffffff163b119050919050565b6001816000016000828254019250508190555050565b600081600001549050919050565b604051806060016040528060608152602001600015158152602001600081525090565b6040518060a0016040528060608152602001606081526020016060815260200160608152602001606081525090565b828054612b7f90614152565b90600052602060002090601f016020900481019282612ba15760008555612be8565b82601f10612bba57805160ff1916838001178555612be8565b82800160010185558215612be8579182015b82811115612be7578251825591602001919060010190612bcc565b5b509050612bf59190612bf9565b5090565b5b80821115612c12576000816000905550600101612bfa565b5090565b6000612c29612c2484613ee8565b613ec3565b90508083825260208201905082856020860282011115612c4857600080fd5b60005b85811015612c785781612c5e8882612d6a565b845260208401935060208301925050600181019050612c4b565b5050509392505050565b6000612c95612c9084613f14565b613ec3565b90508083825260208201905082856020860282011115612cb457600080fd5b60005b85811015612ce45781612cca8882613008565b845260208401935060208301925050600181019050612cb7565b5050509392505050565b6000612d01612cfc84613f40565b613ec3565b905082815260208101848484011115612d1957600080fd5b612d24848285614110565b509392505050565b6000612d3f612d3a84613f71565b613ec3565b905082815260208101848484011115612d5757600080fd5b612d62848285614110565b509392505050565b600081359050612d798161479e565b92915050565b600081519050612d8e8161479e565b92915050565b600082601f830112612da557600080fd5b8135612db5848260208601612c16565b91505092915050565b600082601f830112612dcf57600080fd5b8135612ddf848260208601612c82565b91505092915050565b600081359050612df7816147b5565b92915050565b600081359050612e0c816147cc565b92915050565b600081359050612e21816147e3565b92915050565b600081519050612e36816147e3565b92915050565b600082601f830112612e4d57600080fd5b8135612e5d848260208601612cee565b91505092915050565b600082601f830112612e7757600080fd5b8135612e87848260208601612d2c565b91505092915050565b600060608284031215612ea257600080fd5b612eac6060613ec3565b9050600082013567ffffffffffffffff811115612ec857600080fd5b612ed484828501612e66565b6000830152506020612ee884828501612de8565b6020830152506040612efc84828501613008565b60408301525092915050565b600060a08284031215612f1a57600080fd5b612f2460a0613ec3565b9050600082013567ffffffffffffffff811115612f4057600080fd5b612f4c84828501612e66565b600083015250602082013567ffffffffffffffff811115612f6c57600080fd5b612f7884828501612e66565b602083015250604082013567ffffffffffffffff811115612f9857600080fd5b612fa484828501612e66565b604083015250606082013567ffffffffffffffff811115612fc457600080fd5b612fd084828501612e66565b606083015250608082013567ffffffffffffffff811115612ff057600080fd5b612ffc84828501612e66565b60808301525092915050565b600081359050613017816147fa565b92915050565b60006020828403121561302f57600080fd5b600061303d84828501612d6a565b91505092915050565b60006020828403121561305857600080fd5b600061306684828501612d7f565b91505092915050565b6000806040838503121561308257600080fd5b600061309085828601612d6a565b92505060206130a185828601612d6a565b9150509250929050565b600080600080600060a086880312156130c357600080fd5b60006130d188828901612d6a565b95505060206130e288828901612d6a565b945050604086013567ffffffffffffffff8111156130ff57600080fd5b61310b88828901612dbe565b935050606086013567ffffffffffffffff81111561312857600080fd5b61313488828901612dbe565b925050608086013567ffffffffffffffff81111561315157600080fd5b61315d88828901612e3c565b9150509295509295909350565b600080600080600060a0868803121561318257600080fd5b600061319088828901612d6a565b95505060206131a188828901612d6a565b94505060406131b288828901613008565b93505060606131c388828901613008565b925050608086013567ffffffffffffffff8111156131e057600080fd5b6131ec88828901612e3c565b9150509295509295909350565b6000806040838503121561320c57600080fd5b600061321a85828601612d6a565b925050602061322b85828601612de8565b9150509250929050565b6000806040838503121561324857600080fd5b600061325685828601612d6a565b925050602061326785828601612dfd565b9150509250929050565b6000806040838503121561328457600080fd5b600061329285828601612d6a565b92505060206132a385828601613008565b9150509250929050565b600080604083850312156132c057600080fd5b600083013567ffffffffffffffff8111156132da57600080fd5b6132e685828601612d94565b925050602083013567ffffffffffffffff81111561330357600080fd5b61330f85828601612dbe565b9150509250929050565b60006020828403121561332b57600080fd5b600061333984828501612dfd565b91505092915050565b6000806040838503121561335557600080fd5b600061336385828601612dfd565b925050602083013567ffffffffffffffff81111561338057600080fd5b61338c85828601612e66565b9150509250929050565b600080604083850312156133a957600080fd5b60006133b785828601612dfd565b925050602083013567ffffffffffffffff8111156133d457600080fd5b6133e085828601612e90565b9150509250929050565b6000602082840312156133fc57600080fd5b600061340a84828501612e12565b91505092915050565b60006020828403121561342557600080fd5b600061343384828501612e27565b91505092915050565b60006020828403121561344e57600080fd5b600082013567ffffffffffffffff81111561346857600080fd5b61347484828501612e3c565b91505092915050565b60006020828403121561348f57600080fd5b600082013567ffffffffffffffff8111156134a957600080fd5b6134b584828501612f08565b91505092915050565b6000806000606084860312156134d357600080fd5b600084013567ffffffffffffffff8111156134ed57600080fd5b6134f986828701612f08565b935050602084013567ffffffffffffffff81111561351657600080fd5b61352286828701612e90565b925050604084013567ffffffffffffffff81111561353f57600080fd5b61354b86828701612e66565b9150509250925092565b60006020828403121561356757600080fd5b600061357584828501613008565b91505092915050565b600061358a83836139e1565b60208301905092915050565b61359f81614085565b82525050565b60006135b082613fb2565b6135ba8185613fe0565b93506135c583613fa2565b8060005b838110156135f65781516135dd888261357e565b97506135e883613fd3565b9250506001810190506135c9565b5085935050505092915050565b61360c81614097565b82525050565b61361b81614097565b82525050565b61362a816140a3565b82525050565b61364161363c826140a3565b614228565b82525050565b600061365282613fbd565b61365c8185613ff1565b935061366c81856020860161411f565b613675816142e1565b840191505092915050565b600061368b82613fc8565b6136958185614002565b93506136a581856020860161411f565b6136ae816142e1565b840191505092915050565b60006136c482613fc8565b6136ce8185614013565b93506136de81856020860161411f565b6136e7816142e1565b840191505092915050565b60006136ff603483614013565b915061370a826142ff565b604082019050919050565b6000613722602883614013565b915061372d8261434e565b604082019050919050565b6000613745602b83614013565b91506137508261439d565b604082019050919050565b6000613768602683614013565b9150613773826143ec565b604082019050919050565b600061378b602983614013565b91506137968261443b565b604082019050919050565b60006137ae601483614024565b91506137b98261448a565b601482019050919050565b60006137d1602583614013565b91506137dc826144b3565b604082019050919050565b60006137f4603283614013565b91506137ff82614502565b604082019050919050565b6000613817601583614013565b915061382282614551565b602082019050919050565b600061383a602a83614013565b91506138458261457a565b604082019050919050565b600061385d602083614013565b9150613868826145c9565b602082019050919050565b6000613880602983614013565b915061388b826145f2565b604082019050919050565b60006138a3602983614013565b91506138ae82614641565b604082019050919050565b60006138c6602883614013565b91506138d182614690565b604082019050919050565b60006138e9600f83614013565b91506138f4826146df565b602082019050919050565b6000606083016000830151848203600086015261391c8282613680565b91505060208301516139316020860182613603565b50604083015161394460408601826139e1565b508091505092915050565b600060a083016000830151848203600086015261396c8282613680565b915050602083015184820360208601526139868282613680565b915050604083015184820360408601526139a08282613680565b915050606083015184820360608601526139ba8282613680565b915050608083015184820360808601526139d48282613680565b9150508091505092915050565b6139ea816140f9565b82525050565b6139f9816140f9565b82525050565b6000613a0b8284613630565b602082019150613a1a826137a1565b915081905092915050565b6000602082019050613a3a6000830184613596565b92915050565b600060a082019050613a556000830188613596565b613a626020830187613596565b8181036040830152613a7481866135a5565b90508181036060830152613a8881856135a5565b90508181036080830152613a9c8184613647565b90509695505050505050565b600060a082019050613abd6000830188613596565b613aca6020830187613596565b613ad760408301866139f0565b613ae460608301856139f0565b8181036080830152613af68184613647565b90509695505050505050565b60006020820190508181036000830152613b1c81846135a5565b905092915050565b60006040820190508181036000830152613b3e81856135a5565b90508181036020830152613b5281846135a5565b90509392505050565b6000602082019050613b706000830184613612565b92915050565b6000602082019050613b8b6000830184613621565b92915050565b60006020820190508181036000830152613bab8184613647565b905092915050565b60006020820190508181036000830152613bcd81846136b9565b905092915050565b600060a0820190508181036000830152613bef81886136b9565b90508181036020830152613c0381876136b9565b90508181036040830152613c1781866136b9565b90508181036060830152613c2b81856136b9565b90508181036080830152613c3f81846136b9565b90509695505050505050565b60006040820190508181036000830152613c6581856136b9565b9050613c7460208301846139f0565b9392505050565b60006020820190508181036000830152613c94816136f2565b9050919050565b60006020820190508181036000830152613cb481613715565b9050919050565b60006020820190508181036000830152613cd481613738565b9050919050565b60006020820190508181036000830152613cf48161375b565b9050919050565b60006020820190508181036000830152613d148161377e565b9050919050565b60006020820190508181036000830152613d34816137c4565b9050919050565b60006020820190508181036000830152613d54816137e7565b9050919050565b60006020820190508181036000830152613d748161380a565b9050919050565b60006020820190508181036000830152613d948161382d565b9050919050565b60006020820190508181036000830152613db481613850565b9050919050565b60006020820190508181036000830152613dd481613873565b9050919050565b60006020820190508181036000830152613df481613896565b9050919050565b60006020820190508181036000830152613e14816138b9565b9050919050565b60006020820190508181036000830152613e34816138dc565b9050919050565b60006020820190508181036000830152613e5581846138ff565b905092915050565b60006020820190508181036000830152613e77818461394f565b905092915050565b6000602082019050613e9460008301846139f0565b92915050565b6000604082019050613eaf60008301856139f0565b613ebc60208301846139f0565b9392505050565b6000613ecd613ede565b9050613ed98282614184565b919050565b6000604051905090565b600067ffffffffffffffff821115613f0357613f02614290565b5b602082029050602081019050919050565b600067ffffffffffffffff821115613f2f57613f2e614290565b5b602082029050602081019050919050565b600067ffffffffffffffff821115613f5b57613f5a614290565b5b613f64826142e1565b9050602081019050919050565b600067ffffffffffffffff821115613f8c57613f8b614290565b5b613f95826142e1565b9050602081019050919050565b6000819050602082019050919050565b600081519050919050565b600081519050919050565b600081519050919050565b6000602082019050919050565b600082825260208201905092915050565b600082825260208201905092915050565b600082825260208201905092915050565b600082825260208201905092915050565b600081905092915050565b600061403a826140f9565b9150614045836140f9565b9250827fffffffffffffffffffffffffffffffffffffffffffffffffffffffffffffffff0382111561407a57614079614232565b5b828201905092915050565b6000614090826140d9565b9050919050565b60008115159050919050565b6000819050919050565b60007fffffffff0000000000000000000000000000000000000000000000000000000082169050919050565b600073ffffffffffffffffffffffffffffffffffffffff82169050919050565b6000819050919050565b600060ff82169050919050565b82818337600083830152505050565b60005b8381101561413d578082015181840152602081019050614122565b8381111561414c576000848401525b50505050565b6000600282049050600182168061416a57607f821691505b6020821081141561417e5761417d614261565b5b50919050565b61418d826142e1565b810181811067ffffffffffffffff821117156141ac576141ab614290565b5b80604052505050565b60006141c0826140f9565b91507fffffffffffffffffffffffffffffffffffffffffffffffffffffffffffffffff8214156141f3576141f2614232565b5b600182019050919050565b600061420982614103565b915060ff82141561421d5761421c614232565b5b600182019050919050565b6000819050919050565b7f4e487b7100000000000000000000000000000000000000000000000000000000600052601160045260246000fd5b7f4e487b7100000000000000000000000000000000000000000000000000000000600052602260045260246000fd5b7f4e487b7100000000000000000000000000000000000000000000000000000000600052604160045260246000fd5b600060033d11156142de5760046000803e6142db6000516142f2565b90505b90565b6000601f19601f8301169050919050565b60008160e01c9050919050565b7f455243313135353a207472616e7366657220746f206e6f6e204552433131353560008201527f526563656976657220696d706c656d656e746572000000000000000000000000602082015250565b7f455243313135353a204552433131353552656365697665722072656a6563746560008201527f6420746f6b656e73000000000000000000000000000000000000000000000000602082015250565b7f455243313135353a2062616c616e636520717565727920666f7220746865207a60008201527f65726f2061646472657373000000000000000000000000000000000000000000602082015250565b7f4f776e61626c653a206e6577206f776e657220697320746865207a65726f206160008201527f6464726573730000000000000000000000000000000000000000000000000000602082015250565b7f455243313135353a2063616c6c6572206973206e6f74206f776e6572206e6f7260008201527f20617070726f7665640000000000000000000000000000000000000000000000602082015250565b7f204755494420616c726561647920657869737473000000000000000000000000600082015250565b7f455243313135353a207472616e7366657220746f20746865207a65726f20616460008201527f6472657373000000000000000000000000000000000000000000000000000000602082015250565b7f455243313135353a207472616e736665722063616c6c6572206973206e6f742060008201527f6f776e6572206e6f7220617070726f7665640000000000000000000000000000602082015250565b7f416374696f6e20416c7265616479204578697374730000000000000000000000600082015250565b7f455243313135353a20696e73756666696369656e742062616c616e636520666f60008201527f72207472616e7366657200000000000000000000000000000000000000000000602082015250565b7f4f776e61626c653a2063616c6c6572206973206e6f7420746865206f776e6572600082015250565b7f455243313135353a2073657474696e6720617070726f76616c2073746174757360008201527f20666f722073656c660000000000000000000000000000000000000000000000602082015250565b7f455243313135353a206163636f756e747320616e6420696473206c656e67746860008201527f206d69736d617463680000000000000000000000000000000000000000000000602082015250565b7f455243313135353a2069647320616e6420616d6f756e7473206c656e6774682060008201527f6d69736d61746368000000000000000000000000000000000000000000000000602082015250565b7f494e4558495354454e545f475549440000000000000000000000000000000000600082015250565b600060443d10156147185761479b565b614720613ede565b60043d036004823e80513d602482011167ffffffffffffffff8211171561474857505061479b565b808201805167ffffffffffffffff811115614766575050505061479b565b80602083010160043d03850181111561478357505050505061479b565b61479282602001850186614184565b82955050505050505b90565b6147a781614085565b81146147b257600080fd5b50565b6147be81614097565b81146147c957600080fd5b50565b6147d5816140a3565b81146147e057600080fd5b50565b6147ec816140ad565b81146147f757600080fd5b50565b614803816140f9565b811461480e57600080fd5b5056fea2646970667358221220da95a764bb5ba00bbfe92a35e7fbb72a9e9d394a74aebdc85283374fe0f51e8264736f6c63430008040033",
  "linkReferences": {},
  "deployedLinkReferences": {}
}