{
  "_format": "hh-sol-artifact-1",
  "contractName": "AvatarNFT",
  "sourceName": "contracts/AvatarNFT.sol",
  "abi": [
    {
      "inputs": [
        {
          "internalType": "address",
          "name": "hub",
          "type": "address"
        }
      ],
      "stateMutability": "nonpayable",
      "type": "constructor"
    },
    {
      "anonymous": false,
      "inputs": [
        {
          "indexed": true,
          "internalType": "address",
          "name": "owner",
          "type": "address"
        },
        {
          "indexed": true,
          "internalType": "address",
          "name": "approved",
          "type": "address"
        },
        {
          "indexed": true,
          "internalType": "uint256",
          "name": "tokenId",
          "type": "uint256"
        }
      ],
      "name": "Approval",
      "type": "event"
    },
    {
      "anonymous": false,
      "inputs": [
        {
          "indexed": true,
          "internalType": "address",
          "name": "owner",
          "type": "address"
        },
        {
          "indexed": true,
          "internalType": "address",
          "name": "operator",
          "type": "address"
        },
        {
          "indexed": false,
          "internalType": "bool",
          "name": "approved",
          "type": "bool"
        }
      ],
      "name": "ApprovalForAll",
      "type": "event"
    },
    {
      "anonymous": false,
      "inputs": [
        {
          "indexed": true,
          "internalType": "address",
          "name": "previousOwner",
          "type": "address"
        },
        {
          "indexed": true,
          "internalType": "address",
          "name": "newOwner",
          "type": "address"
        }
      ],
      "name": "OwnershipTransferred",
      "type": "event"
    },
    {
      "anonymous": false,
      "inputs": [
        {
          "indexed": true,
          "internalType": "uint256",
          "name": "id",
          "type": "uint256"
        },
        {
          "indexed": false,
          "internalType": "enum DataTypes.Domain",
          "name": "domain",
          "type": "uint8"
        },
        {
          "indexed": false,
          "internalType": "enum DataTypes.Rating",
          "name": "rating",
          "type": "uint8"
        },
        {
          "indexed": false,
          "internalType": "uint256",
          "name": "socre",
          "type": "uint256"
        }
      ],
      "name": "ReputationChange",
      "type": "event"
    },
    {
      "anonymous": false,
      "inputs": [
        {
          "indexed": true,
          "internalType": "address",
          "name": "from",
          "type": "address"
        },
        {
          "indexed": true,
          "internalType": "address",
          "name": "to",
          "type": "address"
        },
        {
          "indexed": true,
          "internalType": "uint256",
          "name": "tokenId",
          "type": "uint256"
        }
      ],
      "name": "Transfer",
      "type": "event"
    },
    {
      "anonymous": false,
      "inputs": [
        {
          "indexed": false,
          "internalType": "string",
          "name": "value",
          "type": "string"
        },
        {
          "indexed": true,
          "internalType": "uint256",
          "name": "id",
          "type": "uint256"
        }
      ],
      "name": "URI",
      "type": "event"
    },
    {
      "inputs": [
        {
          "internalType": "string",
          "name": "tokenURI",
          "type": "string"
        }
      ],
      "name": "add",
      "outputs": [
        {
          "internalType": "uint256",
          "name": "",
          "type": "uint256"
        }
      ],
      "stateMutability": "nonpayable",
      "type": "function"
    },
    {
      "inputs": [
        {
          "internalType": "address",
          "name": "to",
          "type": "address"
        },
        {
          "internalType": "uint256",
          "name": "tokenId",
          "type": "uint256"
        }
      ],
      "name": "approve",
      "outputs": [],
      "stateMutability": "nonpayable",
      "type": "function"
    },
    {
      "inputs": [
        {
          "internalType": "address",
          "name": "owner",
          "type": "address"
        }
      ],
      "name": "balanceOf",
      "outputs": [
        {
          "internalType": "uint256",
          "name": "",
          "type": "uint256"
        }
      ],
      "stateMutability": "view",
      "type": "function"
    },
    {
      "inputs": [
        {
          "internalType": "uint256",
          "name": "tokenId",
          "type": "uint256"
        }
      ],
      "name": "getApproved",
      "outputs": [
        {
          "internalType": "address",
          "name": "",
          "type": "address"
        }
      ],
      "stateMutability": "view",
      "type": "function"
    },
    {
      "inputs": [
        {
          "internalType": "uint256",
          "name": "tokenId",
          "type": "uint256"
        },
        {
          "internalType": "enum DataTypes.Domain",
          "name": "domain",
          "type": "uint8"
        },
        {
          "internalType": "enum DataTypes.Rating",
          "name": "rating",
          "type": "uint8"
        }
      ],
      "name": "getRepForDomain",
      "outputs": [
        {
          "internalType": "uint256",
          "name": "",
          "type": "uint256"
        }
      ],
      "stateMutability": "view",
      "type": "function"
    },
    {
      "inputs": [
        {
          "internalType": "address",
          "name": "owner",
          "type": "address"
        },
        {
          "internalType": "address",
          "name": "operator",
          "type": "address"
        }
      ],
      "name": "isApprovedForAll",
      "outputs": [
        {
          "internalType": "bool",
          "name": "",
          "type": "bool"
        }
      ],
      "stateMutability": "view",
      "type": "function"
    },
    {
      "inputs": [
        {
          "internalType": "string",
          "name": "tokenURI",
          "type": "string"
        }
      ],
      "name": "mint",
      "outputs": [
        {
          "internalType": "uint256",
          "name": "",
          "type": "uint256"
        }
      ],
      "stateMutability": "nonpayable",
      "type": "function"
    },
    {
      "inputs": [],
      "name": "name",
      "outputs": [
        {
          "internalType": "string",
          "name": "",
          "type": "string"
        }
      ],
      "stateMutability": "view",
      "type": "function"
    },
    {
      "inputs": [
        {
          "internalType": "address",
          "name": "",
          "type": "address"
        },
        {
          "internalType": "address",
          "name": "",
          "type": "address"
        },
        {
          "internalType": "uint256",
          "name": "",
          "type": "uint256"
        },
        {
          "internalType": "bytes",
          "name": "",
          "type": "bytes"
        }
      ],
      "name": "onERC721Received",
      "outputs": [
        {
          "internalType": "bytes4",
          "name": "",
          "type": "bytes4"
        }
      ],
      "stateMutability": "pure",
      "type": "function"
    },
    {
      "inputs": [],
      "name": "owner",
      "outputs": [
        {
          "internalType": "address",
          "name": "",
          "type": "address"
        }
      ],
      "stateMutability": "view",
      "type": "function"
    },
    {
      "inputs": [
        {
          "internalType": "uint256",
          "name": "tokenId",
          "type": "uint256"
        }
      ],
      "name": "ownerOf",
      "outputs": [
        {
          "internalType": "address",
          "name": "",
          "type": "address"
        }
      ],
      "stateMutability": "view",
      "type": "function"
    },
    {
      "inputs": [],
      "name": "renounceOwnership",
      "outputs": [],
      "stateMutability": "nonpayable",
      "type": "function"
    },
    {
      "inputs": [
        {
          "internalType": "uint256",
          "name": "tokenId",
          "type": "uint256"
        },
        {
          "internalType": "enum DataTypes.Domain",
          "name": "domain",
          "type": "uint8"
        },
        {
          "internalType": "enum DataTypes.Rating",
          "name": "rating",
          "type": "uint8"
        },
        {
          "internalType": "uint8",
          "name": "amount",
          "type": "uint8"
        }
      ],
      "name": "repAdd",
      "outputs": [],
      "stateMutability": "nonpayable",
      "type": "function"
    },
    {
      "inputs": [
        {
          "internalType": "address",
          "name": "from",
          "type": "address"
        },
        {
          "internalType": "address",
          "name": "to",
          "type": "address"
        },
        {
          "internalType": "uint256",
          "name": "tokenId",
          "type": "uint256"
        }
      ],
      "name": "safeTransferFrom",
      "outputs": [],
      "stateMutability": "nonpayable",
      "type": "function"
    },
    {
      "inputs": [
        {
          "internalType": "address",
          "name": "from",
          "type": "address"
        },
        {
          "internalType": "address",
          "name": "to",
          "type": "address"
        },
        {
          "internalType": "uint256",
          "name": "tokenId",
          "type": "uint256"
        },
        {
          "internalType": "bytes",
          "name": "_data",
          "type": "bytes"
        }
      ],
      "name": "safeTransferFrom",
      "outputs": [],
      "stateMutability": "nonpayable",
      "type": "function"
    },
    {
      "inputs": [
        {
          "internalType": "address",
          "name": "operator",
          "type": "address"
        },
        {
          "internalType": "bool",
          "name": "approved",
          "type": "bool"
        }
      ],
      "name": "setApprovalForAll",
      "outputs": [],
      "stateMutability": "nonpayable",
      "type": "function"
    },
    {
      "inputs": [
        {
          "internalType": "bytes4",
          "name": "interfaceId",
          "type": "bytes4"
        }
      ],
      "name": "supportsInterface",
      "outputs": [
        {
          "internalType": "bool",
          "name": "",
          "type": "bool"
        }
      ],
      "stateMutability": "view",
      "type": "function"
    },
    {
      "inputs": [],
      "name": "symbol",
      "outputs": [
        {
          "internalType": "string",
          "name": "",
          "type": "string"
        }
      ],
      "stateMutability": "view",
      "type": "function"
    },
    {
      "inputs": [
        {
          "internalType": "uint256",
          "name": "tokenId",
          "type": "uint256"
        }
      ],
      "name": "tokenURI",
      "outputs": [
        {
          "internalType": "string",
          "name": "",
          "type": "string"
        }
      ],
      "stateMutability": "view",
      "type": "function"
    },
    {
      "inputs": [
        {
          "internalType": "address",
          "name": "from",
          "type": "address"
        },
        {
          "internalType": "address",
          "name": "to",
          "type": "address"
        },
        {
          "internalType": "uint256",
          "name": "tokenId",
          "type": "uint256"
        }
      ],
      "name": "transferFrom",
      "outputs": [],
      "stateMutability": "nonpayable",
      "type": "function"
    },
    {
      "inputs": [
        {
          "internalType": "address",
          "name": "newOwner",
          "type": "address"
        }
      ],
      "name": "transferOwnership",
      "outputs": [],
      "stateMutability": "nonpayable",
      "type": "function"
    },
    {
      "inputs": [
        {
          "internalType": "uint256",
          "name": "tokenId",
          "type": "uint256"
        },
        {
          "internalType": "string",
          "name": "uri",
          "type": "string"
        }
      ],
      "name": "update",
      "outputs": [
        {
          "internalType": "uint256",
          "name": "",
          "type": "uint256"
        }
      ],
      "stateMutability": "nonpayable",
      "type": "function"
    }
  ],
  "bytecode": "0x60806040523480156200001157600080fd5b506040516200459b3803806200459b833981810160405281019062000037919062000473565b6040518060400160405280600681526020017f41766174617200000000000000000000000000000000000000000000000000008152506040518060400160405280600681526020017f415641544152000000000000000000000000000000000000000000000000000081525082620000c4620000b86200011160201b60201c565b6200011960201b60201c565b620000d581620001dd60201b60201c565b508160029080519060200190620000ee9291906200033a565b508060039080519060200190620001079291906200033a565b50505050620007f2565b600033905090565b60008060009054906101000a900473ffffffffffffffffffffffffffffffffffffffff169050816000806101000a81548173ffffffffffffffffffffffffffffffffffffffff021916908373ffffffffffffffffffffffffffffffffffffffff1602179055508173ffffffffffffffffffffffffffffffffffffffff168173ffffffffffffffffffffffffffffffffffffffff167f8be0079c531659141344cd1fd0a4f28419497f9722a3daafe3b4186f6b6457e060405160405180910390a35050565b604051602001620001ee9062000582565b604051602081830303815290604052805190602001208173ffffffffffffffffffffffffffffffffffffffff166310055c1d6040518163ffffffff1660e01b815260040160006040518083038186803b1580156200024b57600080fd5b505afa15801562000260573d6000803e3d6000fd5b505050506040513d6000823e3d601f19601f820116820180604052508101906200028b91906200049f565b6040516020016200029d919062000569565b6040516020818303038152906040528051906020012014620002f6576040517f08c379a0000000000000000000000000000000000000000000000000000000008152600401620002ed9062000599565b60405180910390fd5b80600160006101000a81548173ffffffffffffffffffffffffffffffffffffffff021916908373ffffffffffffffffffffffffffffffffffffffff16021790555050565b8280546200034890620006ab565b90600052602060002090601f0160209004810192826200036c5760008555620003b8565b82601f106200038757805160ff1916838001178555620003b8565b82800160010185558215620003b8579182015b82811115620003b75782518255916020019190600101906200039a565b5b509050620003c79190620003cb565b5090565b5b80821115620003e6576000816000905550600101620003cc565b5090565b600062000401620003fb84620005e4565b620005bb565b9050828152602081018484840111156200041a57600080fd5b6200042784828562000675565b509392505050565b6000815190506200044081620007d8565b92915050565b600082601f8301126200045857600080fd5b81516200046a848260208601620003ea565b91505092915050565b6000602082840312156200048657600080fd5b600062000496848285016200042f565b91505092915050565b600060208284031215620004b257600080fd5b600082015167ffffffffffffffff811115620004cd57600080fd5b620004db8482850162000446565b91505092915050565b6000620004f1826200061a565b620004fd818562000636565b93506200050f81856020860162000675565b80840191505092915050565b60006200052a60148362000625565b9150620005378262000786565b602082019050919050565b60006200055160058362000636565b91506200055e82620007af565b600582019050919050565b6000620005778284620004e4565b915081905092915050565b60006200058f8262000542565b9150819050919050565b60006020820190508181036000830152620005b4816200051b565b9050919050565b6000620005c7620005da565b9050620005d58282620006e1565b919050565b6000604051905090565b600067ffffffffffffffff82111562000602576200060162000746565b5b6200060d8262000775565b9050602081019050919050565b600081519050919050565b600082825260208201905092915050565b600081905092915050565b60006200064e8262000655565b9050919050565b600073ffffffffffffffffffffffffffffffffffffffff82169050919050565b60005b838110156200069557808201518184015260208101905062000678565b83811115620006a5576000848401525b50505050565b60006002820490506001821680620006c457607f821691505b60208210811415620006db57620006da62000717565b5b50919050565b620006ec8262000775565b810181811067ffffffffffffffff821117156200070e576200070d62000746565b5b80604052505050565b7f4e487b7100000000000000000000000000000000000000000000000000000000600052602260045260246000fd5b7f4e487b7100000000000000000000000000000000000000000000000000000000600052604160045260246000fd5b6000601f19601f8301169050919050565b7f496e76616c69642048756220436f6e7472616374000000000000000000000000600082015250565b7f594a487562000000000000000000000000000000000000000000000000000000600082015250565b620007e38162000641565b8114620007ef57600080fd5b50565b613d9980620008026000396000f3fe608060405234801561001057600080fd5b50600436106101425760003560e01c806385bec695116100b8578063b88d4fde1161007c578063b88d4fde14610387578063c87b56dd146103a3578063d85d3d27146103d3578063e985e9c514610403578063f2fde38b14610433578063f745630f1461044f57610142565b806385bec695146102e35780638da5cb5b146102ff57806395d89b411461031d578063a22cb4651461033b578063b0c8f9dc1461035757610142565b80631be787501161010a5780631be787501461021157806323b872dd1461024157806342842e0e1461025d5780636352211e1461027957806370a08231146102a9578063715018a6146102d957610142565b806301ffc9a71461014757806306fdde0314610177578063081812fc14610195578063095ea7b3146101c5578063150b7a02146101e1575b600080fd5b610161600480360381019061015c91906128a1565b61047f565b60405161016e9190612eed565b60405180910390f35b61017f610561565b60405161018c9190612f5a565b60405180910390f35b6101af60048036038101906101aa9190612934565b6105f3565b6040516101bc9190612e86565b60405180910390f35b6101df60048036038101906101da9190612865565b610678565b005b6101fb60048036038101906101f6919061272e565b610790565b6040516102089190612f08565b60405180910390f35b61022b6004803603810190610226919061295d565b6107a5565b604051610238919061323c565b60405180910390f35b61025b600480360381019061025691906126df565b6108c6565b005b610277600480360381019061027291906126df565b610926565b005b610293600480360381019061028e9190612934565b610946565b6040516102a09190612e86565b60405180910390f35b6102c360048036038101906102be9190612651565b6109f8565b6040516102d0919061323c565b60405180910390f35b6102e1610ab0565b005b6102fd60048036038101906102f891906129ac565b610b38565b005b610307610dbe565b6040516103149190612e86565b60405180910390f35b610325610e65565b6040516103329190612f5a565b60405180910390f35b61035560048036038101906103509190612829565b610ef7565b005b610371600480360381019061036c91906128f3565b610f0d565b60405161037e919061323c565b60405180910390f35b6103a1600480360381019061039c91906127ae565b610f20565b005b6103bd60048036038101906103b89190612934565b610f82565b6040516103ca9190612f5a565b60405180910390f35b6103ed60048036038101906103e891906128f3565b6110d4565b6040516103fa919061323c565b60405180910390f35b61041d600480360381019061041891906126a3565b61113f565b60405161042a9190612eed565b60405180910390f35b61044d60048036038101906104489190612651565b6111d3565b005b61046960048036038101906104649190612a0f565b6112cb565b604051610476919061323c565b60405180910390f35b60007f80ac58cd000000000000000000000000000000000000000000000000000000007bffffffffffffffffffffffffffffffffffffffffffffffffffffffff1916827bffffffffffffffffffffffffffffffffffffffffffffffffffffffff1916148061054a57507f5b5e139f000000000000000000000000000000000000000000000000000000007bffffffffffffffffffffffffffffffffffffffffffffffffffffffff1916827bffffffffffffffffffffffffffffffffffffffffffffffffffffffff1916145b8061055a5750610559826113ac565b5b9050919050565b606060028054610570906134e9565b80601f016020809104026020016040519081016040528092919081815260200182805461059c906134e9565b80156105e95780601f106105be576101008083540402835291602001916105e9565b820191906000526020600020905b8154815290600101906020018083116105cc57829003601f168201915b5050505050905090565b60006105fe82611416565b61063d576040517f08c379a00000000000000000000000000000000000000000000000000000000081526004016106349061313c565b60405180910390fd5b6006600083815260200190815260200160002060009054906101000a900473ffffffffffffffffffffffffffffffffffffffff169050919050565b600061068382610946565b90508073ffffffffffffffffffffffffffffffffffffffff168373ffffffffffffffffffffffffffffffffffffffff1614156106f4576040517f08c379a00000000000000000000000000000000000000000000000000000000081526004016106eb906131dc565b60405180910390fd5b8073ffffffffffffffffffffffffffffffffffffffff16610713611482565b73ffffffffffffffffffffffffffffffffffffffff16148061074257506107418161073c611482565b61113f565b5b610781576040517f08c379a00000000000000000000000000000000000000000000000000000000081526004016107789061307c565b60405180910390fd5b61078b838361148a565b505050565b600063150b7a0260e01b905095945050505050565b6000600a600085815260200190815260200160002060008460028111156107f5577f4e487b7100000000000000000000000000000000000000000000000000000000600052602160045260246000fd5b600281111561082d577f4e487b7100000000000000000000000000000000000000000000000000000000600052602160045260246000fd5b81526020019081526020016000206000836001811115610876577f4e487b7100000000000000000000000000000000000000000000000000000000600052602160045260246000fd5b60018111156108ae577f4e487b7100000000000000000000000000000000000000000000000000000000600052602160045260246000fd5b81526020019081526020016000205490509392505050565b6108d76108d1611482565b82611543565b610916576040517f08c379a000000000000000000000000000000000000000000000000000000000815260040161090d906131fc565b60405180910390fd5b610921838383611621565b505050565b61094183838360405180602001604052806000815250610f20565b505050565b6000806004600084815260200190815260200160002060009054906101000a900473ffffffffffffffffffffffffffffffffffffffff169050600073ffffffffffffffffffffffffffffffffffffffff168173ffffffffffffffffffffffffffffffffffffffff1614156109ef576040517f08c379a00000000000000000000000000000000000000000000000000000000081526004016109e6906130bc565b60405180910390fd5b80915050919050565b60008073ffffffffffffffffffffffffffffffffffffffff168273ffffffffffffffffffffffffffffffffffffffff161415610a69576040517f08c379a0000000000000000000000000000000000000000000000000000000008152600401610a609061309c565b60405180910390fd5b600560008373ffffffffffffffffffffffffffffffffffffffff1673ffffffffffffffffffffffffffffffffffffffff168152602001908152602001600020549050919050565b610ab8611482565b73ffffffffffffffffffffffffffffffffffffffff16610ad6610dbe565b73ffffffffffffffffffffffffffffffffffffffff1614610b2c576040517f08c379a0000000000000000000000000000000000000000000000000000000008152600401610b239061317c565b60405180910390fd5b610b366000611888565b565b8060ff16600a60008681526020019081526020016000206000856002811115610b8a577f4e487b7100000000000000000000000000000000000000000000000000000000600052602160045260246000fd5b6002811115610bc2577f4e487b7100000000000000000000000000000000000000000000000000000000600052602160045260246000fd5b81526020019081526020016000206000846001811115610c0b577f4e487b7100000000000000000000000000000000000000000000000000000000600052602160045260246000fd5b6001811115610c43577f4e487b7100000000000000000000000000000000000000000000000000000000600052602160045260246000fd5b81526020019081526020016000206000828254610c609190613321565b92505081905550837fe1cfad35cd4b8805ccaa7d06b2ef7e690250613f43c586c53767012f14b4049b8484600a60008981526020019081526020016000206000886002811115610cd9577f4e487b7100000000000000000000000000000000000000000000000000000000600052602160045260246000fd5b6002811115610d11577f4e487b7100000000000000000000000000000000000000000000000000000000600052602160045260246000fd5b81526020019081526020016000206000876001811115610d5a577f4e487b7100000000000000000000000000000000000000000000000000000000600052602160045260246000fd5b6001811115610d92577f4e487b7100000000000000000000000000000000000000000000000000000000600052602160045260246000fd5b815260200190815260200160002054604051610db093929190612f23565b60405180910390a250505050565b6000600160009054906101000a900473ffffffffffffffffffffffffffffffffffffffff1673ffffffffffffffffffffffffffffffffffffffff16638da5cb5b6040518163ffffffff1660e01b815260040160206040518083038186803b158015610e2857600080fd5b505afa158015610e3c573d6000803e3d6000fd5b505050506040513d601f19601f82011682018060405250810190610e60919061267a565b905090565b606060038054610e74906134e9565b80601f0160208091040260200160405190810160405280929190818152602001828054610ea0906134e9565b8015610eed5780601f10610ec257610100808354040283529160200191610eed565b820191906000526020600020905b815481529060010190602001808311610ed057829003601f168201915b5050505050905090565b610f09610f02611482565b838361194c565b5050565b6000610f193083611ab9565b9050919050565b610f31610f2b611482565b83611543565b610f70576040517f08c379a0000000000000000000000000000000000000000000000000000000008152600401610f67906131fc565b60405180910390fd5b610f7c84848484611b9e565b50505050565b6060610f8d82611416565b610fcc576040517f08c379a0000000000000000000000000000000000000000000000000000000008152600401610fc39061311c565b60405180910390fd5b6000600860008481526020019081526020016000208054610fec906134e9565b80601f0160208091040260200160405190810160405280929190818152602001828054611018906134e9565b80156110655780601f1061103a57610100808354040283529160200191611065565b820191906000526020600020905b81548152906001019060200180831161104857829003601f168201915b505050505090506000611076611bfa565b905060008151141561108c5781925050506110cf565b6000825111156110c15780826040516020016110a9929190612e62565b604051602081830303815290604052925050506110cf565b6110ca84611c11565b925050505b919050565b6000806110e76110e2611482565b6109f8565b14611127576040517f08c379a000000000000000000000000000000000000000000000000000000000815260040161111e9061321c565b60405180910390fd5b611138611132611482565b83611ab9565b9050919050565b6000600760008473ffffffffffffffffffffffffffffffffffffffff1673ffffffffffffffffffffffffffffffffffffffff16815260200190815260200160002060008373ffffffffffffffffffffffffffffffffffffffff1673ffffffffffffffffffffffffffffffffffffffff16815260200190815260200160002060009054906101000a900460ff16905092915050565b6111db611482565b73ffffffffffffffffffffffffffffffffffffffff166111f9610dbe565b73ffffffffffffffffffffffffffffffffffffffff161461124f576040517f08c379a00000000000000000000000000000000000000000000000000000000081526004016112469061317c565b60405180910390fd5b600073ffffffffffffffffffffffffffffffffffffffff168173ffffffffffffffffffffffffffffffffffffffff1614156112bf576040517f08c379a00000000000000000000000000000000000000000000000000000000081526004016112b690612f9c565b60405180910390fd5b6112c881611888565b50565b60006112de6112d8611482565b84611543565b8061132257506112ec610dbe565b73ffffffffffffffffffffffffffffffffffffffff1661130a611482565b73ffffffffffffffffffffffffffffffffffffffff16145b611361576040517f08c379a0000000000000000000000000000000000000000000000000000000008152600401611358906131bc565b60405180910390fd5b61136b8383611cb8565b827f6bb7ff708619ba0610cba295a58592e0451dee2622938c8755667688daf3529b8360405161139b9190612f5a565b60405180910390a282905092915050565b60007f01ffc9a7000000000000000000000000000000000000000000000000000000007bffffffffffffffffffffffffffffffffffffffffffffffffffffffff1916827bffffffffffffffffffffffffffffffffffffffffffffffffffffffff1916149050919050565b60008073ffffffffffffffffffffffffffffffffffffffff166004600084815260200190815260200160002060009054906101000a900473ffffffffffffffffffffffffffffffffffffffff1673ffffffffffffffffffffffffffffffffffffffff1614159050919050565b600033905090565b816006600083815260200190815260200160002060006101000a81548173ffffffffffffffffffffffffffffffffffffffff021916908373ffffffffffffffffffffffffffffffffffffffff160217905550808273ffffffffffffffffffffffffffffffffffffffff166114fd83610946565b73ffffffffffffffffffffffffffffffffffffffff167f8c5be1e5ebec7d5bd14f71427d1e84f3dd0314c0f7b2291e5b200ac8c7c3b92560405160405180910390a45050565b600061154e82611416565b61158d576040517f08c379a00000000000000000000000000000000000000000000000000000000081526004016115849061305c565b60405180910390fd5b600061159883610946565b90508073ffffffffffffffffffffffffffffffffffffffff168473ffffffffffffffffffffffffffffffffffffffff16148061160757508373ffffffffffffffffffffffffffffffffffffffff166115ef846105f3565b73ffffffffffffffffffffffffffffffffffffffff16145b806116185750611617818561113f565b5b91505092915050565b8273ffffffffffffffffffffffffffffffffffffffff1661164182610946565b73ffffffffffffffffffffffffffffffffffffffff1614611697576040517f08c379a000000000000000000000000000000000000000000000000000000000815260040161168e90612fdc565b60405180910390fd5b600073ffffffffffffffffffffffffffffffffffffffff168273ffffffffffffffffffffffffffffffffffffffff161415611707576040517f08c379a00000000000000000000000000000000000000000000000000000000081526004016116fe9061301c565b60405180910390fd5b611712838383611d2c565b61171d60008261148a565b6001600560008573ffffffffffffffffffffffffffffffffffffffff1673ffffffffffffffffffffffffffffffffffffffff168152602001908152602001600020600082825461176d91906133a8565b925050819055506001600560008473ffffffffffffffffffffffffffffffffffffffff1673ffffffffffffffffffffffffffffffffffffffff16815260200190815260200160002060008282546117c49190613321565b92505081905550816004600083815260200190815260200160002060006101000a81548173ffffffffffffffffffffffffffffffffffffffff021916908373ffffffffffffffffffffffffffffffffffffffff160217905550808273ffffffffffffffffffffffffffffffffffffffff168473ffffffffffffffffffffffffffffffffffffffff167fddf252ad1be2c89b69c2b068fc378daa952ba7f163c4a11628f55a4df523b3ef60405160405180910390a4611883838383611def565b505050565b60008060009054906101000a900473ffffffffffffffffffffffffffffffffffffffff169050816000806101000a81548173ffffffffffffffffffffffffffffffffffffffff021916908373ffffffffffffffffffffffffffffffffffffffff1602179055508173ffffffffffffffffffffffffffffffffffffffff168173ffffffffffffffffffffffffffffffffffffffff167f8be0079c531659141344cd1fd0a4f28419497f9722a3daafe3b4186f6b6457e060405160405180910390a35050565b8173ffffffffffffffffffffffffffffffffffffffff168373ffffffffffffffffffffffffffffffffffffffff1614156119bb576040517f08c379a00000000000000000000000000000000000000000000000000000000081526004016119b29061303c565b60405180910390fd5b80600760008573ffffffffffffffffffffffffffffffffffffffff1673ffffffffffffffffffffffffffffffffffffffff16815260200190815260200160002060008473ffffffffffffffffffffffffffffffffffffffff1673ffffffffffffffffffffffffffffffffffffffff16815260200190815260200160002060006101000a81548160ff0219169083151502179055508173ffffffffffffffffffffffffffffffffffffffff168373ffffffffffffffffffffffffffffffffffffffff167f17307eab39ab6107e8899845ad3d59bd9653f200f220920489ca2b5937696c3183604051611aac9190612eed565b60405180910390a3505050565b6000611ac3611482565b73ffffffffffffffffffffffffffffffffffffffff163273ffffffffffffffffffffffffffffffffffffffff1614611b30576040517f08c379a0000000000000000000000000000000000000000000000000000000008152600401611b279061315c565b60405180910390fd5b611b3a6009611df4565b6000611b466009611e0a565b9050611b528482611e18565b611b5c8184611cb8565b807f6bb7ff708619ba0610cba295a58592e0451dee2622938c8755667688daf3529b84604051611b8c9190612f5a565b60405180910390a28091505092915050565b611ba9848484611621565b611bb584848484611e36565b611bf4576040517f08c379a0000000000000000000000000000000000000000000000000000000008152600401611beb90612f7c565b60405180910390fd5b50505050565b606060405180602001604052806000815250905090565b6060611c1c82611416565b611c5b576040517f08c379a0000000000000000000000000000000000000000000000000000000008152600401611c529061319c565b60405180910390fd5b6000611c65611bfa565b90506000815111611c855760405180602001604052806000815250611cb0565b80611c8f84611fcd565b604051602001611ca0929190612e62565b6040516020818303038152906040525b915050919050565b611cc182611416565b611d00576040517f08c379a0000000000000000000000000000000000000000000000000000000008152600401611cf7906130dc565b60405180910390fd5b80600860008481526020019081526020016000209080519060200190611d279291906123d7565b505050565b611d3783838361217a565b611d3f610dbe565b73ffffffffffffffffffffffffffffffffffffffff16611d5d611482565b73ffffffffffffffffffffffffffffffffffffffff161480611dab5750600073ffffffffffffffffffffffffffffffffffffffff168373ffffffffffffffffffffffffffffffffffffffff16145b611dea576040517f08c379a0000000000000000000000000000000000000000000000000000000008152600401611de190612fbc565b60405180910390fd5b505050565b505050565b6001816000016000828254019250508190555050565b600081600001549050919050565b611e3282826040518060200160405280600081525061217f565b5050565b6000611e578473ffffffffffffffffffffffffffffffffffffffff166121da565b15611fc0578373ffffffffffffffffffffffffffffffffffffffff1663150b7a02611e80611482565b8786866040518563ffffffff1660e01b8152600401611ea29493929190612ea1565b602060405180830381600087803b158015611ebc57600080fd5b505af1925050508015611eed57506040513d601f19601f82011682018060405250810190611eea91906128ca565b60015b611f70573d8060008114611f1d576040519150601f19603f3d011682016040523d82523d6000602084013e611f22565b606091505b50600081511415611f68576040517f08c379a0000000000000000000000000000000000000000000000000000000008152600401611f5f90612f7c565b60405180910390fd5b805181602001fd5b63150b7a0260e01b7bffffffffffffffffffffffffffffffffffffffffffffffffffffffff1916817bffffffffffffffffffffffffffffffffffffffffffffffffffffffff191614915050611fc5565b600190505b949350505050565b60606000821415612015576040518060400160405280600181526020017f30000000000000000000000000000000000000000000000000000000000000008152509050612175565b600082905060005b600082146120475780806120309061354c565b915050600a826120409190613377565b915061201d565b60008167ffffffffffffffff811115612089577f4e487b7100000000000000000000000000000000000000000000000000000000600052604160045260246000fd5b6040519080825280601f01601f1916602001820160405280156120bb5781602001600182028036833780820191505090505b5090505b6000851461216e576001826120d491906133a8565b9150600a856120e39190613595565b60306120ef9190613321565b60f81b81838151811061212b577f4e487b7100000000000000000000000000000000000000000000000000000000600052603260045260246000fd5b60200101907effffffffffffffffffffffffffffffffffffffffffffffffffffffffffffff1916908160001a905350600a856121679190613377565b94506120bf565b8093505050505b919050565b505050565b61218983836121fd565b6121966000848484611e36565b6121d5576040517f08c379a00000000000000000000000000000000000000000000000000000000081526004016121cc90612f7c565b60405180910390fd5b505050565b6000808273ffffffffffffffffffffffffffffffffffffffff163b119050919050565b600073ffffffffffffffffffffffffffffffffffffffff168273ffffffffffffffffffffffffffffffffffffffff16141561226d576040517f08c379a0000000000000000000000000000000000000000000000000000000008152600401612264906130fc565b60405180910390fd5b61227681611416565b156122b6576040517f08c379a00000000000000000000000000000000000000000000000000000000081526004016122ad90612ffc565b60405180910390fd5b6122c260008383611d2c565b6001600560008473ffffffffffffffffffffffffffffffffffffffff1673ffffffffffffffffffffffffffffffffffffffff16815260200190815260200160002060008282546123129190613321565b92505081905550816004600083815260200190815260200160002060006101000a81548173ffffffffffffffffffffffffffffffffffffffff021916908373ffffffffffffffffffffffffffffffffffffffff160217905550808273ffffffffffffffffffffffffffffffffffffffff16600073ffffffffffffffffffffffffffffffffffffffff167fddf252ad1be2c89b69c2b068fc378daa952ba7f163c4a11628f55a4df523b3ef60405160405180910390a46123d360008383611def565b5050565b8280546123e3906134e9565b90600052602060002090601f016020900481019282612405576000855561244c565b82601f1061241e57805160ff191683800117855561244c565b8280016001018555821561244c579182015b8281111561244b578251825591602001919060010190612430565b5b509050612459919061245d565b5090565b5b8082111561247657600081600090555060010161245e565b5090565b600061248d6124888461327c565b613257565b9050828152602081018484840111156124a557600080fd5b6124b08482856134a7565b509392505050565b60006124cb6124c6846132ad565b613257565b9050828152602081018484840111156124e357600080fd5b6124ee8482856134a7565b509392505050565b60008135905061250581613cd0565b92915050565b60008151905061251a81613cd0565b92915050565b60008135905061252f81613ce7565b92915050565b60008135905061254481613cfe565b92915050565b60008151905061255981613cfe565b92915050565b60008083601f84011261257157600080fd5b8235905067ffffffffffffffff81111561258a57600080fd5b6020830191508360018202830111156125a257600080fd5b9250929050565b600082601f8301126125ba57600080fd5b81356125ca84826020860161247a565b91505092915050565b6000813590506125e281613d15565b92915050565b6000813590506125f781613d25565b92915050565b600082601f83011261260e57600080fd5b813561261e8482602086016124b8565b91505092915050565b60008135905061263681613d35565b92915050565b60008135905061264b81613d4c565b92915050565b60006020828403121561266357600080fd5b6000612671848285016124f6565b91505092915050565b60006020828403121561268c57600080fd5b600061269a8482850161250b565b91505092915050565b600080604083850312156126b657600080fd5b60006126c4858286016124f6565b92505060206126d5858286016124f6565b9150509250929050565b6000806000606084860312156126f457600080fd5b6000612702868287016124f6565b9350506020612713868287016124f6565b925050604061272486828701612627565b9150509250925092565b60008060008060006080868803121561274657600080fd5b6000612754888289016124f6565b9550506020612765888289016124f6565b945050604061277688828901612627565b935050606086013567ffffffffffffffff81111561279357600080fd5b61279f8882890161255f565b92509250509295509295909350565b600080600080608085870312156127c457600080fd5b60006127d2878288016124f6565b94505060206127e3878288016124f6565b93505060406127f487828801612627565b925050606085013567ffffffffffffffff81111561281157600080fd5b61281d878288016125a9565b91505092959194509250565b6000806040838503121561283c57600080fd5b600061284a858286016124f6565b925050602061285b85828601612520565b9150509250929050565b6000806040838503121561287857600080fd5b6000612886858286016124f6565b925050602061289785828601612627565b9150509250929050565b6000602082840312156128b357600080fd5b60006128c184828501612535565b91505092915050565b6000602082840312156128dc57600080fd5b60006128ea8482850161254a565b91505092915050565b60006020828403121561290557600080fd5b600082013567ffffffffffffffff81111561291f57600080fd5b61292b848285016125fd565b91505092915050565b60006020828403121561294657600080fd5b600061295484828501612627565b91505092915050565b60008060006060848603121561297257600080fd5b600061298086828701612627565b9350506020612991868287016125d3565b92505060406129a2868287016125e8565b9150509250925092565b600080600080608085870312156129c257600080fd5b60006129d087828801612627565b94505060206129e1878288016125d3565b93505060406129f2878288016125e8565b9250506060612a038782880161263c565b91505092959194509250565b60008060408385031215612a2257600080fd5b6000612a3085828601612627565b925050602083013567ffffffffffffffff811115612a4d57600080fd5b612a59858286016125fd565b9150509250929050565b612a6c816133dc565b82525050565b612a7b816133ee565b82525050565b612a8a816133fa565b82525050565b6000612a9b826132de565b612aa581856132f4565b9350612ab58185602086016134b6565b612abe816136b1565b840191505092915050565b612ad281613483565b82525050565b612ae181613495565b82525050565b6000612af2826132e9565b612afc8185613305565b9350612b0c8185602086016134b6565b612b15816136b1565b840191505092915050565b6000612b2b826132e9565b612b358185613316565b9350612b458185602086016134b6565b80840191505092915050565b6000612b5e603283613305565b9150612b69826136c2565b604082019050919050565b6000612b81602683613305565b9150612b8c82613711565b604082019050919050565b6000612ba4602283613305565b9150612baf82613760565b604082019050919050565b6000612bc7602583613305565b9150612bd2826137af565b604082019050919050565b6000612bea601c83613305565b9150612bf5826137fe565b602082019050919050565b6000612c0d602483613305565b9150612c1882613827565b604082019050919050565b6000612c30601983613305565b9150612c3b82613876565b602082019050919050565b6000612c53602c83613305565b9150612c5e8261389f565b604082019050919050565b6000612c76603883613305565b9150612c81826138ee565b604082019050919050565b6000612c99602a83613305565b9150612ca48261393d565b604082019050919050565b6000612cbc602983613305565b9150612cc78261398c565b604082019050919050565b6000612cdf602e83613305565b9150612cea826139db565b604082019050919050565b6000612d02602083613305565b9150612d0d82613a2a565b602082019050919050565b6000612d25603183613305565b9150612d3082613a53565b604082019050919050565b6000612d48602c83613305565b9150612d5382613aa2565b604082019050919050565b6000612d6b601083613305565b9150612d7682613af1565b602082019050919050565b6000612d8e602083613305565b9150612d9982613b1a565b602082019050919050565b6000612db1602f83613305565b9150612dbc82613b43565b604082019050919050565b6000612dd4602083613305565b9150612ddf82613b92565b602082019050919050565b6000612df7602183613305565b9150612e0282613bbb565b604082019050919050565b6000612e1a603183613305565b9150612e2582613c0a565b604082019050919050565b6000612e3d602883613305565b9150612e4882613c59565b604082019050919050565b612e5c8161346c565b82525050565b6000612e6e8285612b20565b9150612e7a8284612b20565b91508190509392505050565b6000602082019050612e9b6000830184612a63565b92915050565b6000608082019050612eb66000830187612a63565b612ec36020830186612a63565b612ed06040830185612e53565b8181036060830152612ee28184612a90565b905095945050505050565b6000602082019050612f026000830184612a72565b92915050565b6000602082019050612f1d6000830184612a81565b92915050565b6000606082019050612f386000830186612ac9565b612f456020830185612ad8565b612f526040830184612e53565b949350505050565b60006020820190508181036000830152612f748184612ae7565b905092915050565b60006020820190508181036000830152612f9581612b51565b9050919050565b60006020820190508181036000830152612fb581612b74565b9050919050565b60006020820190508181036000830152612fd581612b97565b9050919050565b60006020820190508181036000830152612ff581612bba565b9050919050565b6000602082019050818103600083015261301581612bdd565b9050919050565b6000602082019050818103600083015261303581612c00565b9050919050565b6000602082019050818103600083015261305581612c23565b9050919050565b6000602082019050818103600083015261307581612c46565b9050919050565b6000602082019050818103600083015261309581612c69565b9050919050565b600060208201905081810360008301526130b581612c8c565b9050919050565b600060208201905081810360008301526130d581612caf565b9050919050565b600060208201905081810360008301526130f581612cd2565b9050919050565b6000602082019050818103600083015261311581612cf5565b9050919050565b6000602082019050818103600083015261313581612d18565b9050919050565b6000602082019050818103600083015261315581612d3b565b9050919050565b6000602082019050818103600083015261317581612d5e565b9050919050565b6000602082019050818103600083015261319581612d81565b9050919050565b600060208201905081810360008301526131b581612da4565b9050919050565b600060208201905081810360008301526131d581612dc7565b9050919050565b600060208201905081810360008301526131f581612dea565b9050919050565b6000602082019050818103600083015261321581612e0d565b9050919050565b6000602082019050818103600083015261323581612e30565b9050919050565b60006020820190506132516000830184612e53565b92915050565b6000613261613272565b905061326d828261351b565b919050565b6000604051905090565b600067ffffffffffffffff82111561329757613296613682565b5b6132a0826136b1565b9050602081019050919050565b600067ffffffffffffffff8211156132c8576132c7613682565b5b6132d1826136b1565b9050602081019050919050565b600081519050919050565b600081519050919050565b600082825260208201905092915050565b600082825260208201905092915050565b600081905092915050565b600061332c8261346c565b91506133378361346c565b9250827fffffffffffffffffffffffffffffffffffffffffffffffffffffffffffffffff0382111561336c5761336b6135c6565b5b828201905092915050565b60006133828261346c565b915061338d8361346c565b92508261339d5761339c6135f5565b5b828204905092915050565b60006133b38261346c565b91506133be8361346c565b9250828210156133d1576133d06135c6565b5b828203905092915050565b60006133e78261344c565b9050919050565b60008115159050919050565b60007fffffffff0000000000000000000000000000000000000000000000000000000082169050919050565b600081905061343482613ca8565b919050565b600081905061344782613cbc565b919050565b600073ffffffffffffffffffffffffffffffffffffffff82169050919050565b6000819050919050565b600060ff82169050919050565b600061348e82613426565b9050919050565b60006134a082613439565b9050919050565b82818337600083830152505050565b60005b838110156134d45780820151818401526020810190506134b9565b838111156134e3576000848401525b50505050565b6000600282049050600182168061350157607f821691505b6020821081141561351557613514613653565b5b50919050565b613524826136b1565b810181811067ffffffffffffffff8211171561354357613542613682565b5b80604052505050565b60006135578261346c565b91507fffffffffffffffffffffffffffffffffffffffffffffffffffffffffffffffff82141561358a576135896135c6565b5b600182019050919050565b60006135a08261346c565b91506135ab8361346c565b9250826135bb576135ba6135f5565b5b828206905092915050565b7f4e487b7100000000000000000000000000000000000000000000000000000000600052601160045260246000fd5b7f4e487b7100000000000000000000000000000000000000000000000000000000600052601260045260246000fd5b7f4e487b7100000000000000000000000000000000000000000000000000000000600052602160045260246000fd5b7f4e487b7100000000000000000000000000000000000000000000000000000000600052602260045260246000fd5b7f4e487b7100000000000000000000000000000000000000000000000000000000600052604160045260246000fd5b6000601f19601f8301169050919050565b7f4552433732313a207472616e7366657220746f206e6f6e20455243373231526560008201527f63656976657220696d706c656d656e7465720000000000000000000000000000602082015250565b7f4f776e61626c653a206e6577206f776e657220697320746865207a65726f206160008201527f6464726573730000000000000000000000000000000000000000000000000000602082015250565b7f536f7272792c2041737365747320617265206e6f6e2d7472616e73666572616260008201527f6c65000000000000000000000000000000000000000000000000000000000000602082015250565b7f4552433732313a207472616e736665722066726f6d20696e636f72726563742060008201527f6f776e6572000000000000000000000000000000000000000000000000000000602082015250565b7f4552433732313a20746f6b656e20616c7265616479206d696e74656400000000600082015250565b7f4552433732313a207472616e7366657220746f20746865207a65726f2061646460008201527f7265737300000000000000000000000000000000000000000000000000000000602082015250565b7f4552433732313a20617070726f766520746f2063616c6c657200000000000000600082015250565b7f4552433732313a206f70657261746f7220717565727920666f72206e6f6e657860008201527f697374656e7420746f6b656e0000000000000000000000000000000000000000602082015250565b7f4552433732313a20617070726f76652063616c6c6572206973206e6f74206f7760008201527f6e6572206e6f7220617070726f76656420666f7220616c6c0000000000000000602082015250565b7f4552433732313a2062616c616e636520717565727920666f7220746865207a6560008201527f726f206164647265737300000000000000000000000000000000000000000000602082015250565b7f4552433732313a206f776e657220717565727920666f72206e6f6e657869737460008201527f656e7420746f6b656e0000000000000000000000000000000000000000000000602082015250565b7f45524337323155524953746f726167653a2055524920736574206f66206e6f6e60008201527f6578697374656e7420746f6b656e000000000000000000000000000000000000602082015250565b7f4552433732313a206d696e7420746f20746865207a65726f2061646472657373600082015250565b7f45524337323155524953746f726167653a2055524920717565727920666f722060008201527f6e6f6e6578697374656e7420746f6b656e000000000000000000000000000000602082015250565b7f4552433732313a20617070726f76656420717565727920666f72206e6f6e657860008201527f697374656e7420746f6b656e0000000000000000000000000000000000000000602082015250565b7f426f7473206e6f7420616c6c6f77656400000000000000000000000000000000600082015250565b7f4f776e61626c653a2063616c6c6572206973206e6f7420746865206f776e6572600082015250565b7f4552433732314d657461646174613a2055524920717565727920666f72206e6f60008201527f6e6578697374656e7420746f6b656e0000000000000000000000000000000000602082015250565b7f63616c6c6572206973206e6f74206f776e6572206e6f7220617070726f766564600082015250565b7f4552433732313a20617070726f76616c20746f2063757272656e74206f776e6560008201527f7200000000000000000000000000000000000000000000000000000000000000602082015250565b7f4552433732313a207472616e736665722063616c6c6572206973206e6f74206f60008201527f776e6572206e6f7220617070726f766564000000000000000000000000000000602082015250565b7f52657175657374696e67206163636f756e7420616c726561647920686173206160008201527f6e20617661746172000000000000000000000000000000000000000000000000602082015250565b60038110613cb957613cb8613624565b5b50565b60028110613ccd57613ccc613624565b5b50565b613cd9816133dc565b8114613ce457600080fd5b50565b613cf0816133ee565b8114613cfb57600080fd5b50565b613d07816133fa565b8114613d1257600080fd5b50565b60038110613d2257600080fd5b50565b60028110613d3257600080fd5b50565b613d3e8161346c565b8114613d4957600080fd5b50565b613d5581613476565b8114613d6057600080fd5b5056fea264697066735822122076e3ac7d62c891d3eeefacaaa3934733ccd08e2adc741e36ec1ce1d717632c9c64736f6c63430008040033",
  "linkReferences": {},
  "deployedLinkReferences": {}
}