{
  "_format": "hh-sol-artifact-1",
  "contractName": "Jurisdiction",
  "sourceName": "contracts/Jurisdiction.sol",
  "abi": [
    {
      "inputs": [
        {
          "internalType": "address",
          "name": "hub",
          "type": "address"
        },
        {
          "internalType": "address",
          "name": "actionRepo",
          "type": "address"
        }
      ],
      "stateMutability": "nonpayable",
      "type": "constructor"
    },
    {
      "anonymous": false,
      "inputs": [
        {
          "indexed": false,
          "internalType": "address",
          "name": "actionRepo",
          "type": "address"
        }
      ],
      "name": "ActionRepoSet",
      "type": "event"
    },
    {
      "anonymous": false,
      "inputs": [
        {
          "indexed": true,
          "internalType": "address",
          "name": "account",
          "type": "address"
        },
        {
          "indexed": true,
          "internalType": "address",
          "name": "operator",
          "type": "address"
        },
        {
          "indexed": false,
          "internalType": "bool",
          "name": "approved",
          "type": "bool"
        }
      ],
      "name": "ApprovalForAll",
      "type": "event"
    },
    {
      "anonymous": false,
      "inputs": [
        {
          "indexed": true,
          "internalType": "uint256",
          "name": "id",
          "type": "uint256"
        },
        {
          "indexed": false,
          "internalType": "address",
          "name": "contractAddress",
          "type": "address"
        }
      ],
      "name": "CaseCreated",
      "type": "event"
    },
    {
      "anonymous": false,
      "inputs": [
        {
          "indexed": true,
          "internalType": "uint256",
          "name": "id",
          "type": "uint256"
        },
        {
          "indexed": false,
          "internalType": "bytes32",
          "name": "guid",
          "type": "bytes32"
        }
      ],
      "name": "GUIDCreated",
      "type": "event"
    },
    {
      "anonymous": false,
      "inputs": [
        {
          "indexed": true,
          "internalType": "address",
          "name": "previousOwner",
          "type": "address"
        },
        {
          "indexed": true,
          "internalType": "address",
          "name": "newOwner",
          "type": "address"
        }
      ],
      "name": "OwnershipTransferred",
      "type": "event"
    },
    {
      "anonymous": false,
      "inputs": [
        {
          "indexed": true,
          "internalType": "uint256",
          "name": "id",
          "type": "uint256"
        },
        {
          "indexed": false,
          "internalType": "string",
          "name": "role",
          "type": "string"
        }
      ],
      "name": "RoleCreated",
      "type": "event"
    },
    {
      "anonymous": false,
      "inputs": [
        {
          "indexed": true,
          "internalType": "uint256",
          "name": "id",
          "type": "uint256"
        },
        {
          "components": [
            {
              "internalType": "bytes32",
              "name": "about",
              "type": "bytes32"
            },
            {
              "internalType": "string",
              "name": "uri",
              "type": "string"
            },
            {
              "components": [
                {
                  "internalType": "int8",
                  "name": "professional",
                  "type": "int8"
                },
                {
                  "internalType": "int8",
                  "name": "social",
                  "type": "int8"
                },
                {
                  "internalType": "int8",
                  "name": "personal",
                  "type": "int8"
                }
              ],
              "internalType": "struct DataTypes.Effects",
              "name": "effects",
              "type": "tuple"
            },
            {
              "internalType": "bool",
              "name": "negation",
              "type": "bool"
            }
          ],
          "indexed": false,
          "internalType": "struct DataTypes.Rule",
          "name": "rule",
          "type": "tuple"
        }
      ],
      "name": "RuleAdded",
      "type": "event"
    },
    {
      "anonymous": false,
      "inputs": [
        {
          "indexed": true,
          "internalType": "uint256",
          "name": "id",
          "type": "uint256"
        },
        {
          "components": [
            {
              "internalType": "bytes32",
              "name": "about",
              "type": "bytes32"
            },
            {
              "internalType": "string",
              "name": "uri",
              "type": "string"
            },
            {
              "components": [
                {
                  "internalType": "int8",
                  "name": "professional",
                  "type": "int8"
                },
                {
                  "internalType": "int8",
                  "name": "social",
                  "type": "int8"
                },
                {
                  "internalType": "int8",
                  "name": "personal",
                  "type": "int8"
                }
              ],
              "internalType": "struct DataTypes.Effects",
              "name": "effects",
              "type": "tuple"
            },
            {
              "internalType": "bool",
              "name": "negation",
              "type": "bool"
            }
          ],
          "indexed": false,
          "internalType": "struct DataTypes.Rule",
          "name": "rule",
          "type": "tuple"
        }
      ],
      "name": "RuleChanged",
      "type": "event"
    },
    {
      "anonymous": false,
      "inputs": [
        {
          "indexed": true,
          "internalType": "uint256",
          "name": "id",
          "type": "uint256"
        }
      ],
      "name": "RuleRemoved",
      "type": "event"
    },
    {
      "anonymous": false,
      "inputs": [
        {
          "indexed": true,
          "internalType": "address",
          "name": "operator",
          "type": "address"
        },
        {
          "indexed": true,
          "internalType": "address",
          "name": "from",
          "type": "address"
        },
        {
          "indexed": true,
          "internalType": "address",
          "name": "to",
          "type": "address"
        },
        {
          "indexed": false,
          "internalType": "uint256[]",
          "name": "ids",
          "type": "uint256[]"
        },
        {
          "indexed": false,
          "internalType": "uint256[]",
          "name": "values",
          "type": "uint256[]"
        }
      ],
      "name": "TransferBatch",
      "type": "event"
    },
    {
      "anonymous": false,
      "inputs": [
        {
          "indexed": true,
          "internalType": "address",
          "name": "operator",
          "type": "address"
        },
        {
          "indexed": true,
          "internalType": "address",
          "name": "from",
          "type": "address"
        },
        {
          "indexed": true,
          "internalType": "address",
          "name": "to",
          "type": "address"
        },
        {
          "indexed": false,
          "internalType": "uint256",
          "name": "id",
          "type": "uint256"
        },
        {
          "indexed": false,
          "internalType": "uint256",
          "name": "value",
          "type": "uint256"
        }
      ],
      "name": "TransferSingle",
      "type": "event"
    },
    {
      "anonymous": false,
      "inputs": [
        {
          "indexed": false,
          "internalType": "string",
          "name": "value",
          "type": "string"
        },
        {
          "indexed": true,
          "internalType": "uint256",
          "name": "id",
          "type": "uint256"
        }
      ],
      "name": "URI",
      "type": "event"
    },
    {
      "inputs": [
        {
          "internalType": "address",
          "name": "account",
          "type": "address"
        },
        {
          "internalType": "bytes32",
          "name": "guid",
          "type": "bytes32"
        }
      ],
      "name": "GUIDHas",
      "outputs": [
        {
          "internalType": "bool",
          "name": "",
          "type": "bool"
        }
      ],
      "stateMutability": "view",
      "type": "function"
    },
    {
      "inputs": [
        {
          "internalType": "address",
          "name": "account",
          "type": "address"
        },
        {
          "internalType": "uint256",
          "name": "id",
          "type": "uint256"
        }
      ],
      "name": "balanceOf",
      "outputs": [
        {
          "internalType": "uint256",
          "name": "",
          "type": "uint256"
        }
      ],
      "stateMutability": "view",
      "type": "function"
    },
    {
      "inputs": [
        {
          "internalType": "address[]",
          "name": "accounts",
          "type": "address[]"
        },
        {
          "internalType": "uint256[]",
          "name": "ids",
          "type": "uint256[]"
        }
      ],
      "name": "balanceOfBatch",
      "outputs": [
        {
          "internalType": "uint256[]",
          "name": "",
          "type": "uint256[]"
        }
      ],
      "stateMutability": "view",
      "type": "function"
    },
    {
      "inputs": [
        {
          "internalType": "address",
          "name": "account",
          "type": "address"
        },
        {
          "internalType": "address",
          "name": "operator",
          "type": "address"
        }
      ],
      "name": "isApprovedForAll",
      "outputs": [
        {
          "internalType": "bool",
          "name": "",
          "type": "bool"
        }
      ],
      "stateMutability": "view",
      "type": "function"
    },
    {
      "inputs": [],
      "name": "join",
      "outputs": [],
      "stateMutability": "nonpayable",
      "type": "function"
    },
    {
      "inputs": [],
      "name": "leave",
      "outputs": [],
      "stateMutability": "nonpayable",
      "type": "function"
    },
    {
      "inputs": [],
      "name": "name",
      "outputs": [
        {
          "internalType": "string",
          "name": "",
          "type": "string"
        }
      ],
      "stateMutability": "view",
      "type": "function"
    },
    {
      "inputs": [],
      "name": "owner",
      "outputs": [
        {
          "internalType": "address",
          "name": "",
          "type": "address"
        }
      ],
      "stateMutability": "view",
      "type": "function"
    },
    {
      "inputs": [],
      "name": "renounceOwnership",
      "outputs": [],
      "stateMutability": "nonpayable",
      "type": "function"
    },
    {
      "inputs": [
        {
          "internalType": "address",
          "name": "account",
          "type": "address"
        },
        {
          "internalType": "string",
          "name": "role",
          "type": "string"
        }
      ],
      "name": "roleAssign",
      "outputs": [],
      "stateMutability": "nonpayable",
      "type": "function"
    },
    {
      "inputs": [
        {
          "internalType": "address",
          "name": "account",
          "type": "address"
        },
        {
          "internalType": "string",
          "name": "role",
          "type": "string"
        }
      ],
      "name": "roleHas",
      "outputs": [
        {
          "internalType": "bool",
          "name": "",
          "type": "bool"
        }
      ],
      "stateMutability": "view",
      "type": "function"
    },
    {
      "inputs": [
        {
          "internalType": "address",
          "name": "account",
          "type": "address"
        },
        {
          "internalType": "string",
          "name": "role",
          "type": "string"
        }
      ],
      "name": "roleRemove",
      "outputs": [],
      "stateMutability": "nonpayable",
      "type": "function"
    },
    {
      "inputs": [
        {
          "components": [
            {
              "internalType": "bytes32",
              "name": "about",
              "type": "bytes32"
            },
            {
              "internalType": "string",
              "name": "uri",
              "type": "string"
            },
            {
              "components": [
                {
                  "internalType": "int8",
                  "name": "professional",
                  "type": "int8"
                },
                {
                  "internalType": "int8",
                  "name": "social",
                  "type": "int8"
                },
                {
                  "internalType": "int8",
                  "name": "personal",
                  "type": "int8"
                }
              ],
              "internalType": "struct DataTypes.Effects",
              "name": "effects",
              "type": "tuple"
            },
            {
              "internalType": "bool",
              "name": "negation",
              "type": "bool"
            }
          ],
          "internalType": "struct DataTypes.Rule",
          "name": "rule",
          "type": "tuple"
        }
      ],
      "name": "ruleAdd",
      "outputs": [
        {
          "internalType": "uint256",
          "name": "",
          "type": "uint256"
        }
      ],
      "stateMutability": "nonpayable",
      "type": "function"
    },
    {
      "inputs": [
        {
          "internalType": "uint256",
          "name": "id",
          "type": "uint256"
        }
      ],
      "name": "ruleGet",
      "outputs": [
        {
          "components": [
            {
              "internalType": "bytes32",
              "name": "about",
              "type": "bytes32"
            },
            {
              "internalType": "string",
              "name": "uri",
              "type": "string"
            },
            {
              "components": [
                {
                  "internalType": "int8",
                  "name": "professional",
                  "type": "int8"
                },
                {
                  "internalType": "int8",
                  "name": "social",
                  "type": "int8"
                },
                {
                  "internalType": "int8",
                  "name": "personal",
                  "type": "int8"
                }
              ],
              "internalType": "struct DataTypes.Effects",
              "name": "effects",
              "type": "tuple"
            },
            {
              "internalType": "bool",
              "name": "negation",
              "type": "bool"
            }
          ],
          "internalType": "struct DataTypes.Rule",
          "name": "",
          "type": "tuple"
        }
      ],
      "stateMutability": "view",
      "type": "function"
    },
    {
      "inputs": [
        {
          "internalType": "uint256",
          "name": "id",
          "type": "uint256"
        },
        {
          "components": [
            {
              "internalType": "bytes32",
              "name": "about",
              "type": "bytes32"
            },
            {
              "internalType": "string",
              "name": "uri",
              "type": "string"
            },
            {
              "components": [
                {
                  "internalType": "int8",
                  "name": "professional",
                  "type": "int8"
                },
                {
                  "internalType": "int8",
                  "name": "social",
                  "type": "int8"
                },
                {
                  "internalType": "int8",
                  "name": "personal",
                  "type": "int8"
                }
              ],
              "internalType": "struct DataTypes.Effects",
              "name": "effects",
              "type": "tuple"
            },
            {
              "internalType": "bool",
              "name": "negation",
              "type": "bool"
            }
          ],
          "internalType": "struct DataTypes.Rule",
          "name": "rule",
          "type": "tuple"
        }
      ],
      "name": "ruleUpdate",
      "outputs": [],
      "stateMutability": "nonpayable",
      "type": "function"
    },
    {
      "inputs": [
        {
          "internalType": "address",
          "name": "from",
          "type": "address"
        },
        {
          "internalType": "address",
          "name": "to",
          "type": "address"
        },
        {
          "internalType": "uint256[]",
          "name": "ids",
          "type": "uint256[]"
        },
        {
          "internalType": "uint256[]",
          "name": "amounts",
          "type": "uint256[]"
        },
        {
          "internalType": "bytes",
          "name": "data",
          "type": "bytes"
        }
      ],
      "name": "safeBatchTransferFrom",
      "outputs": [],
      "stateMutability": "nonpayable",
      "type": "function"
    },
    {
      "inputs": [
        {
          "internalType": "address",
          "name": "from",
          "type": "address"
        },
        {
          "internalType": "address",
          "name": "to",
          "type": "address"
        },
        {
          "internalType": "uint256",
          "name": "id",
          "type": "uint256"
        },
        {
          "internalType": "uint256",
          "name": "amount",
          "type": "uint256"
        },
        {
          "internalType": "bytes",
          "name": "data",
          "type": "bytes"
        }
      ],
      "name": "safeTransferFrom",
      "outputs": [],
      "stateMutability": "nonpayable",
      "type": "function"
    },
    {
      "inputs": [
        {
          "internalType": "address",
          "name": "operator",
          "type": "address"
        },
        {
          "internalType": "bool",
          "name": "approved",
          "type": "bool"
        }
      ],
      "name": "setApprovalForAll",
      "outputs": [],
      "stateMutability": "nonpayable",
      "type": "function"
    },
    {
      "inputs": [
        {
          "internalType": "bytes4",
          "name": "interfaceId",
          "type": "bytes4"
        }
      ],
      "name": "supportsInterface",
      "outputs": [
        {
          "internalType": "bool",
          "name": "",
          "type": "bool"
        }
      ],
      "stateMutability": "view",
      "type": "function"
    },
    {
      "inputs": [],
      "name": "symbol",
      "outputs": [
        {
          "internalType": "string",
          "name": "",
          "type": "string"
        }
      ],
      "stateMutability": "view",
      "type": "function"
    },
    {
      "inputs": [
        {
          "internalType": "address",
          "name": "newOwner",
          "type": "address"
        }
      ],
      "name": "transferOwnership",
      "outputs": [],
      "stateMutability": "nonpayable",
      "type": "function"
    },
    {
      "inputs": [
        {
          "internalType": "uint256",
          "name": "",
          "type": "uint256"
        }
      ],
      "name": "uri",
      "outputs": [
        {
          "internalType": "string",
          "name": "",
          "type": "string"
        }
      ],
      "stateMutability": "view",
      "type": "function"
    }
  ],
  "bytecode": "0x60806040523480156200001157600080fd5b50604051620057a7380380620057a7833981810160405281019062000037919062000923565b604051806020016040528060008152508083836200005b81620001cc60201b60201c565b506200007c62000070620003f660201b60201c565b620003fe60201b60201c565b6200008d81620004c460201b60201c565b506200009f816200062160201b60201c565b50506040518060400160405280601681526020017f416e74692d5363616d204a7572697364696374696f6e00000000000000000000815250600b9080519060200190620000ee929190620007ea565b50620001356040518060400160405280600581526020017f61646d696e0000000000000000000000000000000000000000000000000000008152506200063d60201b60201c565b506200017c6040518060400160405280600681526020017f6d656d62657200000000000000000000000000000000000000000000000000008152506200063d60201b60201c565b50620001c36040518060400160405280600581526020017f6a756467650000000000000000000000000000000000000000000000000000008152506200063d60201b60201c565b50505062000f6c565b600073ffffffffffffffffffffffffffffffffffffffff16600160009054906101000a900473ffffffffffffffffffffffffffffffffffffffff1673ffffffffffffffffffffffffffffffffffffffff161462000260576040517f08c379a0000000000000000000000000000000000000000000000000000000008152600401620002579062000c5b565b60405180910390fd5b604051602001620002719062000ba2565b604051602081830303815290604052805190602001208173ffffffffffffffffffffffffffffffffffffffff166395d89b416040518163ffffffff1660e01b815260040160006040518083038186803b158015620002ce57600080fd5b505afa158015620002e3573d6000803e3d6000fd5b505050506040513d6000823e3d601f19601f820116820180604052508101906200030e919062000964565b60405160200162000320919062000b72565b604051602081830303815290604052805190602001201462000379576040517f08c379a0000000000000000000000000000000000000000000000000000000008152600401620003709062000c39565b60405180910390fd5b80600160006101000a81548173ffffffffffffffffffffffffffffffffffffffff021916908373ffffffffffffffffffffffffffffffffffffffff1602179055507f43ac03973d16abd29b7b76baaf42724a654cd312d0949245c204bc852a22dfaf81604051620003eb919062000bb9565b60405180910390a150565b600033905090565b6000600360009054906101000a900473ffffffffffffffffffffffffffffffffffffffff16905081600360006101000a81548173ffffffffffffffffffffffffffffffffffffffff021916908373ffffffffffffffffffffffffffffffffffffffff1602179055508173ffffffffffffffffffffffffffffffffffffffff168173ffffffffffffffffffffffffffffffffffffffff167f8be0079c531659141344cd1fd0a4f28419497f9722a3daafe3b4186f6b6457e060405160405180910390a35050565b604051602001620004d59062000b8b565b604051602081830303815290604052805190602001208173ffffffffffffffffffffffffffffffffffffffff166310055c1d6040518163ffffffff1660e01b815260040160006040518083038186803b1580156200053257600080fd5b505afa15801562000547573d6000803e3d6000fd5b505050506040513d6000823e3d601f19601f8201168201806040525081019062000572919062000964565b60405160200162000584919062000b72565b6040516020818303038152906040528051906020012014620005dd576040517f08c379a0000000000000000000000000000000000000000000000000000000008152600401620005d49062000c17565b60405180910390fd5b80600460006101000a81548173ffffffffffffffffffffffffffffffffffffffff021916908373ffffffffffffffffffffffffffffffffffffffff16021790555050565b806007908051906020019062000639929190620007ea565b5050565b60006200066062000654836200066760201b60201c565b6200069960201b60201c565b9050919050565b6000816040516020016200067c919062000bf3565b604051602081830303815290604052805190602001209050919050565b6000801515620006af83620007a660201b60201c565b15151482604051602001620006c5919062000b48565b6040516020818303038152906040529062000718576040517f08c379a00000000000000000000000000000000000000000000000000000000081526004016200070f919062000bf3565b60405180910390fd5b50620007306008620007c660201b620013421760201c565b6000620007496008620007dc60201b620013581760201c565b9050806009600085815260200190815260200160002081905550807fdcbad45255876953d8aaa865d840700b7d2d4a83ae0d627f028e8bf3a1986c5e8460405162000795919062000bd6565b60405180910390a280915050919050565b600080600960008481526020019081526020016000205414159050919050565b6001816000016000828254019250508190555050565b600081600001549050919050565b828054620007f89062000d77565b90600052602060002090601f0160209004810192826200081c576000855562000868565b82601f106200083757805160ff191683800117855562000868565b8280016001018555821562000868579182015b82811115620008675782518255916020019190600101906200084a565b5b5090506200087791906200087b565b5090565b5b80821115620008965760008160009055506001016200087c565b5090565b6000620008b1620008ab8462000ca6565b62000c7d565b905082815260208101848484011115620008ca57600080fd5b620008d784828562000d41565b509392505050565b600081519050620008f08162000f52565b92915050565b600082601f8301126200090857600080fd5b81516200091a8482602086016200089a565b91505092915050565b600080604083850312156200093757600080fd5b60006200094785828601620008df565b92505060206200095a85828601620008df565b9150509250929050565b6000602082840312156200097757600080fd5b600082015167ffffffffffffffff8111156200099257600080fd5b620009a084828501620008f6565b91505092915050565b620009b48162000d03565b82525050565b620009c58162000d17565b82525050565b620009e0620009da8262000d17565b62000de3565b82525050565b6000620009f38262000cdc565b620009ff818562000ce7565b935062000a1181856020860162000d41565b62000a1c8162000e4b565b840191505092915050565b600062000a348262000cdc565b62000a40818562000cf8565b935062000a5281856020860162000d41565b80840191505092915050565b600062000a6d60148362000ce7565b915062000a7a8262000e5c565b602082019050919050565b600062000a94601a8362000ce7565b915062000aa18262000e85565b602082019050919050565b600062000abb60148362000cf8565b915062000ac88262000eae565b601482019050919050565b600062000ae2601c8362000ce7565b915062000aef8262000ed7565b602082019050919050565b600062000b0960058362000cf8565b915062000b168262000f00565b600582019050919050565b600062000b3060078362000cf8565b915062000b3d8262000f29565b600782019050919050565b600062000b568284620009cb565b60208201915062000b678262000aac565b915081905092915050565b600062000b80828462000a27565b915081905092915050565b600062000b988262000afa565b9150819050919050565b600062000baf8262000b21565b9150819050919050565b600060208201905062000bd06000830184620009a9565b92915050565b600060208201905062000bed6000830184620009ba565b92915050565b6000602082019050818103600083015262000c0f8184620009e6565b905092915050565b6000602082019050818103600083015262000c328162000a5e565b9050919050565b6000602082019050818103600083015262000c548162000a85565b9050919050565b6000602082019050818103600083015262000c768162000ad3565b9050919050565b600062000c8962000c9c565b905062000c97828262000dad565b919050565b6000604051905090565b600067ffffffffffffffff82111562000cc45762000cc362000e1c565b5b62000ccf8262000e4b565b9050602081019050919050565b600081519050919050565b600082825260208201905092915050565b600081905092915050565b600062000d108262000d21565b9050919050565b6000819050919050565b600073ffffffffffffffffffffffffffffffffffffffff82169050919050565b60005b8381101562000d6157808201518184015260208101905062000d44565b8381111562000d71576000848401525b50505050565b6000600282049050600182168062000d9057607f821691505b6020821081141562000da75762000da662000ded565b5b50919050565b62000db88262000e4b565b810181811067ffffffffffffffff8211171562000dda5762000dd962000e1c565b5b80604052505050565b6000819050919050565b7f4e487b7100000000000000000000000000000000000000000000000000000000600052602260045260246000fd5b7f4e487b7100000000000000000000000000000000000000000000000000000000600052604160045260246000fd5b6000601f19601f8301169050919050565b7f496e76616c69642048756220436f6e7472616374000000000000000000000000600082015250565b7f457870656374696e6720484953544f525920436f6e7472616374000000000000600082015250565b7f204755494420616c726561647920657869737473000000000000000000000000600082015250565b7f484953544f525920436f6e747261637420416c72656164792053657400000000600082015250565b7f594a487562000000000000000000000000000000000000000000000000000000600082015250565b7f484953544f525900000000000000000000000000000000000000000000000000600082015250565b62000f5d8162000d03565b811462000f6957600080fd5b50565b61482b8062000f7c6000396000f3fe608060405234801561001057600080fd5b50600436106101415760003560e01c8063715018a6116100b8578063b688a3631161007c578063b688a36314610386578063d66d9e1914610390578063dae4a17f1461039a578063e985e9c5146103ca578063f242432a146103fa578063f2fde38b1461041657610141565b8063715018a6146103085780638da5cb5b1461031257806395d89b4114610330578063a22cb4651461034e578063a80c616f1461036a57610141565b80631ee185ad1161010a5780631ee185ad146102105780632eb2c2d61461022c5780634e1273f4146102485780634e88fddf146102785780634f8ae1a7146102a85780636e58f657146102d857610141565b8062fdd58e1461014657806301ffc9a71461017657806306fdde03146101a65780630e89341c146101c4578063122592d1146101f4575b600080fd5b610160600480360381019061015b91906131bc565b610432565b60405161016d9190613cfa565b60405180910390f35b610190600480360381019061018b9190613264565b6104fc565b60405161019d91906139db565b60405180910390f35b6101ae6105de565b6040516101bb91906139f6565b60405180910390f35b6101de60048036038101906101d991906132f7565b61066c565b6040516101eb91906139f6565b60405180910390f35b61020e60048036038101906102099190613320565b610700565b005b61022a60048036038101906102259190613168565b610793565b005b61024660048036038101906102419190612fa2565b61090c565b005b610262600480360381019061025d91906131f8565b6109ad565b60405161026f9190613982565b60405180910390f35b610292600480360381019061028d919061312c565b610b5e565b60405161029f91906139db565b60405180910390f35b6102c260048036038101906102bd91906132b6565b610b7c565b6040516102cf9190613cfa565b60405180910390f35b6102f260048036038101906102ed91906132f7565b610c13565b6040516102ff9190613cd8565b60405180910390f35b610310610d62565b005b61031a610dea565b60405161032791906138a5565b60405180910390f35b610338610e91565b60405161034591906139f6565b60405180910390f35b610368600480360381019061036391906130f0565b610eca565b005b610384600480360381019061037f9190613168565b610ee0565b005b61038e611059565b005b6103986110a9565b005b6103b460048036038101906103af9190613168565b6110f9565b6040516103c191906139db565b60405180910390f35b6103e460048036038101906103df9190612f66565b611115565b6040516103f191906139db565b60405180910390f35b610414600480360381019061040f9190613061565b6111a9565b005b610430600480360381019061042b9190612f14565b61124a565b005b60008073ffffffffffffffffffffffffffffffffffffffff168373ffffffffffffffffffffffffffffffffffffffff1614156104a3576040517f08c379a000000000000000000000000000000000000000000000000000000000815260040161049a90613a58565b60405180910390fd5b6005600083815260200190815260200160002060008473ffffffffffffffffffffffffffffffffffffffff1673ffffffffffffffffffffffffffffffffffffffff16815260200190815260200160002054905092915050565b60007fd9b67a26000000000000000000000000000000000000000000000000000000007bffffffffffffffffffffffffffffffffffffffffffffffffffffffff1916827bffffffffffffffffffffffffffffffffffffffffffffffffffffffff191614806105c757507f0e89341c000000000000000000000000000000000000000000000000000000007bffffffffffffffffffffffffffffffffffffffffffffffffffffffff1916827bffffffffffffffffffffffffffffffffffffffffffffffffffffffff1916145b806105d757506105d682611366565b5b9050919050565b600b80546105eb90613fc2565b80601f016020809104026020016040519081016040528092919081815260200182805461061790613fc2565b80156106645780601f1061063957610100808354040283529160200191610664565b820191906000526020600020905b81548152906001019060200180831161064757829003601f168201915b505050505081565b60606007805461067b90613fc2565b80601f01602080910402602001604051908101604052809291908181526020018280546106a790613fc2565b80156106f45780601f106106c9576101008083540402835291602001916106f4565b820191906000526020600020905b8154815290600101906020018083116106d757829003601f168201915b50505050509050919050565b61074661070b6113d0565b6040518060400160405280600581526020017f61646d696e0000000000000000000000000000000000000000000000000000008152506110f9565b610785576040517f08c379a000000000000000000000000000000000000000000000000000000000815260040161077c90613b38565b60405180910390fd5b61078f82826113d8565b5050565b806107a56107a0826114e9565b611519565b6107e4576040517f08c379a00000000000000000000000000000000000000000000000000000000081526004016107db90613b98565b60405180910390fd5b8273ffffffffffffffffffffffffffffffffffffffff166108036113d0565b73ffffffffffffffffffffffffffffffffffffffff16148061085e57506108286113d0565b73ffffffffffffffffffffffffffffffffffffffff16610846610dea565b73ffffffffffffffffffffffffffffffffffffffff16145b806108b6575060006108b46108716113d0565b6108af6040518060400160405280600581526020017f61646d696e000000000000000000000000000000000000000000000000000000815250611539565b610432565b115b6108f5576040517f08c379a00000000000000000000000000000000000000000000000000000000081526004016108ec90613b18565b60405180910390fd5b61090783610902846114e9565b6115a5565b505050565b6109146113d0565b73ffffffffffffffffffffffffffffffffffffffff168573ffffffffffffffffffffffffffffffffffffffff16148061095a5750610959856109546113d0565b611115565b5b610999576040517f08c379a000000000000000000000000000000000000000000000000000000000815260040161099090613b78565b60405180910390fd5b6109a68585858585611664565b5050505050565b606081518351146109f3576040517f08c379a00000000000000000000000000000000000000000000000000000000081526004016109ea90613c58565b60405180910390fd5b6000835167ffffffffffffffff811115610a36577f4e487b7100000000000000000000000000000000000000000000000000000000600052604160045260246000fd5b604051908082528060200260200182016040528015610a645781602001602082028036833780820191505090505b50905060005b8451811015610b5357610afd858281518110610aaf577f4e487b7100000000000000000000000000000000000000000000000000000000600052603260045260246000fd5b6020026020010151858381518110610af0577f4e487b7100000000000000000000000000000000000000000000000000000000600052603260045260246000fd5b6020026020010151610432565b828281518110610b36577f4e487b7100000000000000000000000000000000000000000000000000000000600052603260045260246000fd5b60200260200101818152505080610b4c90614025565b9050610a6a565b508091505092915050565b600080610b7384610b6e856119c7565b610432565b11905092915050565b6000610bc4610b896113d0565b6040518060400160405280600581526020017f61646d696e0000000000000000000000000000000000000000000000000000008152506110f9565b610c03576040517f08c379a0000000000000000000000000000000000000000000000000000000008152600401610bfa90613b38565b60405180910390fd5b610c0c82611a2e565b9050919050565b610c1b612a87565b6002600083815260200190815260200160002060405180608001604052908160008201548152602001600182018054610c5390613fc2565b80601f0160208091040260200160405190810160405280929190818152602001828054610c7f90613fc2565b8015610ccc5780601f10610ca157610100808354040283529160200191610ccc565b820191906000526020600020905b815481529060010190602001808311610caf57829003601f168201915b50505050508152602001600282016040518060600160405290816000820160009054906101000a900460000b60000b60000b81526020016000820160019054906101000a900460000b60000b60000b81526020016000820160029054906101000a900460000b60000b60000b8152505081526020016003820160009054906101000a900460ff1615151515815250509050919050565b610d6a6113d0565b73ffffffffffffffffffffffffffffffffffffffff16610d88610dea565b73ffffffffffffffffffffffffffffffffffffffff1614610dde576040517f08c379a0000000000000000000000000000000000000000000000000000000008152600401610dd590613bf8565b60405180910390fd5b610de86000611b5e565b565b6000600460009054906101000a900473ffffffffffffffffffffffffffffffffffffffff1673ffffffffffffffffffffffffffffffffffffffff16638da5cb5b6040518163ffffffff1660e01b815260040160206040518083038186803b158015610e5457600080fd5b505afa158015610e68573d6000803e3d6000fd5b505050506040513d601f19601f82011682018060405250810190610e8c9190612f3d565b905090565b6040518060400160405280600f81526020017f594a5f4a7572697364696374696f6e000000000000000000000000000000000081525081565b610edc610ed56113d0565b8383611c24565b5050565b80610ef2610eed826114e9565b611519565b610f31576040517f08c379a0000000000000000000000000000000000000000000000000000000008152600401610f2890613b98565b60405180910390fd5b8273ffffffffffffffffffffffffffffffffffffffff16610f506113d0565b73ffffffffffffffffffffffffffffffffffffffff161480610fab5750610f756113d0565b73ffffffffffffffffffffffffffffffffffffffff16610f93610dea565b73ffffffffffffffffffffffffffffffffffffffff16145b8061100357506000611001610fbe6113d0565b610ffc6040518060400160405280600581526020017f61646d696e000000000000000000000000000000000000000000000000000000815250611539565b610432565b115b611042576040517f08c379a000000000000000000000000000000000000000000000000000000000815260040161103990613b18565b60405180910390fd5b6110548361104f846114e9565b611d91565b505050565b6110a76110646113d0565b6110a26040518060400160405280600681526020017f6d656d62657200000000000000000000000000000000000000000000000000008152506114e9565b611d91565b565b6110f76110b46113d0565b6110f26040518060400160405280600681526020017f6d656d62657200000000000000000000000000000000000000000000000000008152506114e9565b6115a5565b565b600061110d83611108846114e9565b610b5e565b905092915050565b6000600660008473ffffffffffffffffffffffffffffffffffffffff1673ffffffffffffffffffffffffffffffffffffffff16815260200190815260200160002060008373ffffffffffffffffffffffffffffffffffffffff1673ffffffffffffffffffffffffffffffffffffffff16815260200190815260200160002060009054906101000a900460ff16905092915050565b6111b16113d0565b73ffffffffffffffffffffffffffffffffffffffff168573ffffffffffffffffffffffffffffffffffffffff1614806111f757506111f6856111f16113d0565b611115565b5b611236576040517f08c379a000000000000000000000000000000000000000000000000000000000815260040161122d90613ad8565b60405180910390fd5b6112438585858585611e09565b5050505050565b6112526113d0565b73ffffffffffffffffffffffffffffffffffffffff16611270610dea565b73ffffffffffffffffffffffffffffffffffffffff16146112c6576040517f08c379a00000000000000000000000000000000000000000000000000000000081526004016112bd90613bf8565b60405180910390fd5b600073ffffffffffffffffffffffffffffffffffffffff168173ffffffffffffffffffffffffffffffffffffffff161415611336576040517f08c379a000000000000000000000000000000000000000000000000000000000815260040161132d90613a78565b60405180910390fd5b61133f81611b5e565b50565b6001816000016000828254019250508190555050565b600081600001549050919050565b60007f01ffc9a7000000000000000000000000000000000000000000000000000000007bffffffffffffffffffffffffffffffffffffffffffffffffffffffff1916827bffffffffffffffffffffffffffffffffffffffffffffffffffffffff1916149050919050565b600033905090565b8060026000848152602001908152602001600020600082015181600001556020820151816001019080519060200190611412929190612aba565b5060408201518160020160008201518160000160006101000a81548160ff021916908360000b60ff16021790555060208201518160000160016101000a81548160ff021916908360000b60ff16021790555060408201518160000160026101000a81548160ff021916908360000b60ff160217905550505060608201518160030160006101000a81548160ff021916908315150217905550905050817f08f02cd41f640a69cd3d17213954a55866cfe7e0d9c0c224f3f2ced23905c215826040516114dd9190613cd8565b60405180910390a25050565b6000816040516020016114fc91906139f6565b604051602081830303815290604052805190602001209050919050565b600080600960008481526020019081526020016000205414159050919050565b60008161154d611548826114e9565b611519565b61158c576040517f08c379a000000000000000000000000000000000000000000000000000000000815260040161158390613b98565b60405180910390fd5b61159d611598846114e9565b6119c7565b915050919050565b806115af81611519565b6115ee576040517f08c379a00000000000000000000000000000000000000000000000000000000081526004016115e590613cb8565b60405180910390fd5b60006009600084815260200190815260200160002054905060006116128583610432565b11611652576040517f08c379a000000000000000000000000000000000000000000000000000000000815260040161164990613c18565b60405180910390fd5b61165e8482600161208e565b50505050565b81518351146116a8576040517f08c379a000000000000000000000000000000000000000000000000000000000815260040161169f90613c78565b60405180910390fd5b600073ffffffffffffffffffffffffffffffffffffffff168473ffffffffffffffffffffffffffffffffffffffff161415611718576040517f08c379a000000000000000000000000000000000000000000000000000000000815260040161170f90613b58565b60405180910390fd5b60006117226113d0565b90506117328187878787876122ad565b60005b8451811015611932576000858281518110611779577f4e487b7100000000000000000000000000000000000000000000000000000000600052603260045260246000fd5b6020026020010151905060008583815181106117be577f4e487b7100000000000000000000000000000000000000000000000000000000600052603260045260246000fd5b6020026020010151905060006005600084815260200190815260200160002060008b73ffffffffffffffffffffffffffffffffffffffff1673ffffffffffffffffffffffffffffffffffffffff16815260200190815260200160002054905081811015611860576040517f08c379a000000000000000000000000000000000000000000000000000000000815260040161185790613bd8565b60405180910390fd5b8181036005600085815260200190815260200160002060008c73ffffffffffffffffffffffffffffffffffffffff1673ffffffffffffffffffffffffffffffffffffffff16815260200190815260200160002081905550816005600085815260200190815260200160002060008b73ffffffffffffffffffffffffffffffffffffffff1673ffffffffffffffffffffffffffffffffffffffff16815260200190815260200160002060008282546119179190613e9f565b925050819055505050508061192b90614025565b9050611735565b508473ffffffffffffffffffffffffffffffffffffffff168673ffffffffffffffffffffffffffffffffffffffff168273ffffffffffffffffffffffffffffffffffffffff167f4a39dc06d4c0dbc64b70af90fd698a233a518aa5d07e595d983b8c0526c8f7fb87876040516119a99291906139a4565b60405180910390a46119bf818787878787612431565b505050505050565b6000816119d381611519565b611a12576040517f08c379a0000000000000000000000000000000000000000000000000000000008152600401611a0990613cb8565b60405180910390fd5b6009600084815260200190815260200160002054915050919050565b6000611a3a6000611342565b6000611a466000611358565b90508260026000838152602001908152602001600020600082015181600001556020820151816001019080519060200190611a82929190612aba565b5060408201518160020160008201518160000160006101000a81548160ff021916908360000b60ff16021790555060208201518160000160016101000a81548160ff021916908360000b60ff16021790555060408201518160000160026101000a81548160ff021916908360000b60ff160217905550505060608201518160030160006101000a81548160ff021916908315150217905550905050807fa4c7c6b01b76557b07fecedd4f3c83c221413a66f0c467d99edccdfb1f41e97584604051611b4d9190613cd8565b60405180910390a280915050919050565b6000600360009054906101000a900473ffffffffffffffffffffffffffffffffffffffff16905081600360006101000a81548173ffffffffffffffffffffffffffffffffffffffff021916908373ffffffffffffffffffffffffffffffffffffffff1602179055508173ffffffffffffffffffffffffffffffffffffffff168173ffffffffffffffffffffffffffffffffffffffff167f8be0079c531659141344cd1fd0a4f28419497f9722a3daafe3b4186f6b6457e060405160405180910390a35050565b8173ffffffffffffffffffffffffffffffffffffffff168373ffffffffffffffffffffffffffffffffffffffff161415611c93576040517f08c379a0000000000000000000000000000000000000000000000000000000008152600401611c8a90613c38565b60405180910390fd5b80600660008573ffffffffffffffffffffffffffffffffffffffff1673ffffffffffffffffffffffffffffffffffffffff16815260200190815260200160002060008473ffffffffffffffffffffffffffffffffffffffff1673ffffffffffffffffffffffffffffffffffffffff16815260200190815260200160002060006101000a81548160ff0219169083151502179055508173ffffffffffffffffffffffffffffffffffffffff168373ffffffffffffffffffffffffffffffffffffffff167f17307eab39ab6107e8899845ad3d59bd9653f200f220920489ca2b5937696c3183604051611d8491906139db565b60405180910390a3505050565b80611d9b81611519565b611dda576040517f08c379a0000000000000000000000000000000000000000000000000000000008152600401611dd190613cb8565b60405180910390fd5b6000611de5836119c7565b9050611e038482600160405180602001604052806000815250612618565b50505050565b600073ffffffffffffffffffffffffffffffffffffffff168473ffffffffffffffffffffffffffffffffffffffff161415611e79576040517f08c379a0000000000000000000000000000000000000000000000000000000008152600401611e7090613b58565b60405180910390fd5b6000611e836113d0565b9050611ea3818787611e94886127af565b611e9d886127af565b876122ad565b60006005600086815260200190815260200160002060008873ffffffffffffffffffffffffffffffffffffffff1673ffffffffffffffffffffffffffffffffffffffff16815260200190815260200160002054905083811015611f3b576040517f08c379a0000000000000000000000000000000000000000000000000000000008152600401611f3290613bd8565b60405180910390fd5b8381036005600087815260200190815260200160002060008973ffffffffffffffffffffffffffffffffffffffff1673ffffffffffffffffffffffffffffffffffffffff16815260200190815260200160002081905550836005600087815260200190815260200160002060008873ffffffffffffffffffffffffffffffffffffffff1673ffffffffffffffffffffffffffffffffffffffff1681526020019081526020016000206000828254611ff29190613e9f565b925050819055508573ffffffffffffffffffffffffffffffffffffffff168773ffffffffffffffffffffffffffffffffffffffff168373ffffffffffffffffffffffffffffffffffffffff167fc3d58168c5ae7397731d063d5bbf3d657854427343f4c083240f7aacaa2d0f62888860405161206f929190613d15565b60405180910390a4612085828888888888612875565b50505050505050565b600073ffffffffffffffffffffffffffffffffffffffff168373ffffffffffffffffffffffffffffffffffffffff1614156120fe576040517f08c379a00000000000000000000000000000000000000000000000000000000081526004016120f590613bb8565b60405180910390fd5b60006121086113d0565b90506121388185600061211a876127af565b612123876127af565b604051806020016040528060008152506122ad565b60006005600085815260200190815260200160002060008673ffffffffffffffffffffffffffffffffffffffff1673ffffffffffffffffffffffffffffffffffffffff168152602001908152602001600020549050828110156121d0576040517f08c379a00000000000000000000000000000000000000000000000000000000081526004016121c790613a98565b60405180910390fd5b8281036005600086815260200190815260200160002060008773ffffffffffffffffffffffffffffffffffffffff1673ffffffffffffffffffffffffffffffffffffffff16815260200190815260200160002081905550600073ffffffffffffffffffffffffffffffffffffffff168573ffffffffffffffffffffffffffffffffffffffff168373ffffffffffffffffffffffffffffffffffffffff167fc3d58168c5ae7397731d063d5bbf3d657854427343f4c083240f7aacaa2d0f62878760405161229e929190613d15565b60405180910390a45050505050565b6122bb868686868686612a5c565b600073ffffffffffffffffffffffffffffffffffffffff168473ffffffffffffffffffffffffffffffffffffffff16146124295760005b8351811015612427576000848281518110612336577f4e487b7100000000000000000000000000000000000000000000000000000000600052603260045260246000fd5b60200260200101519050600061234c8783610432565b1461238c576040517f08c379a000000000000000000000000000000000000000000000000000000000815260040161238390613af8565b60405180910390fd5b60008483815181106123c7577f4e487b7100000000000000000000000000000000000000000000000000000000600052603260045260246000fd5b6020026020010151905060018114612414576040517f08c379a000000000000000000000000000000000000000000000000000000000815260040161240b90613ab8565b60405180910390fd5b50508061242090614025565b90506122f2565b505b505050505050565b6124508473ffffffffffffffffffffffffffffffffffffffff16612a64565b15612610578373ffffffffffffffffffffffffffffffffffffffff1663bc197c8187878686866040518663ffffffff1660e01b81526004016124969594939291906138c0565b602060405180830381600087803b1580156124b057600080fd5b505af19250505080156124e157506040513d601f19601f820116820180604052508101906124de919061328d565b60015b612587576124ed6140fb565b806308c379a0141561254a57506125026146d5565b8061250d575061254c565b806040517f08c379a000000000000000000000000000000000000000000000000000000000815260040161254191906139f6565b60405180910390fd5b505b6040517f08c379a000000000000000000000000000000000000000000000000000000000815260040161257e90613a18565b60405180910390fd5b63bc197c8160e01b7bffffffffffffffffffffffffffffffffffffffffffffffffffffffff1916817bffffffffffffffffffffffffffffffffffffffffffffffffffffffff19161461260e576040517f08c379a000000000000000000000000000000000000000000000000000000000815260040161260590613a38565b60405180910390fd5b505b505050505050565b600073ffffffffffffffffffffffffffffffffffffffff168473ffffffffffffffffffffffffffffffffffffffff161415612688576040517f08c379a000000000000000000000000000000000000000000000000000000000815260040161267f90613c98565b60405180910390fd5b60006126926113d0565b90506126b3816000876126a4886127af565b6126ad886127af565b876122ad565b826005600086815260200190815260200160002060008773ffffffffffffffffffffffffffffffffffffffff1673ffffffffffffffffffffffffffffffffffffffff16815260200190815260200160002060008282546127139190613e9f565b925050819055508473ffffffffffffffffffffffffffffffffffffffff16600073ffffffffffffffffffffffffffffffffffffffff168273ffffffffffffffffffffffffffffffffffffffff167fc3d58168c5ae7397731d063d5bbf3d657854427343f4c083240f7aacaa2d0f628787604051612791929190613d15565b60405180910390a46127a881600087878787612875565b5050505050565b60606000600167ffffffffffffffff8111156127f4577f4e487b7100000000000000000000000000000000000000000000000000000000600052604160045260246000fd5b6040519080825280602002602001820160405280156128225781602001602082028036833780820191505090505b5090508281600081518110612860577f4e487b7100000000000000000000000000000000000000000000000000000000600052603260045260246000fd5b60200260200101818152505080915050919050565b6128948473ffffffffffffffffffffffffffffffffffffffff16612a64565b15612a54578373ffffffffffffffffffffffffffffffffffffffff1663f23a6e6187878686866040518663ffffffff1660e01b81526004016128da959493929190613928565b602060405180830381600087803b1580156128f457600080fd5b505af192505050801561292557506040513d601f19601f82011682018060405250810190612922919061328d565b60015b6129cb576129316140fb565b806308c379a0141561298e57506129466146d5565b806129515750612990565b806040517f08c379a000000000000000000000000000000000000000000000000000000000815260040161298591906139f6565b60405180910390fd5b505b6040517f08c379a00000000000000000000000000000000000000000000000000000000081526004016129c290613a18565b60405180910390fd5b63f23a6e6160e01b7bffffffffffffffffffffffffffffffffffffffffffffffffffffffff1916817bffffffffffffffffffffffffffffffffffffffffffffffffffffffff191614612a52576040517f08c379a0000000000000000000000000000000000000000000000000000000008152600401612a4990613a38565b60405180910390fd5b505b505050505050565b505050505050565b6000808273ffffffffffffffffffffffffffffffffffffffff163b119050919050565b60405180608001604052806000801916815260200160608152602001612aab612b40565b81526020016000151581525090565b828054612ac690613fc2565b90600052602060002090601f016020900481019282612ae85760008555612b2f565b82601f10612b0157805160ff1916838001178555612b2f565b82800160010185558215612b2f579182015b82811115612b2e578251825591602001919060010190612b13565b5b509050612b3c9190612b67565b5090565b60405180606001604052806000800b81526020016000800b81526020016000800b81525090565b5b80821115612b80576000816000905550600101612b68565b5090565b6000612b97612b9284613d63565b613d3e565b90508083825260208201905082856020860282011115612bb657600080fd5b60005b85811015612be65781612bcc8882612cd8565b845260208401935060208301925050600181019050612bb9565b5050509392505050565b6000612c03612bfe84613d8f565b613d3e565b90508083825260208201905082856020860282011115612c2257600080fd5b60005b85811015612c525781612c388882612eff565b845260208401935060208301925050600181019050612c25565b5050509392505050565b6000612c6f612c6a84613dbb565b613d3e565b905082815260208101848484011115612c8757600080fd5b612c92848285613f80565b509392505050565b6000612cad612ca884613dec565b613d3e565b905082815260208101848484011115612cc557600080fd5b612cd0848285613f80565b509392505050565b600081359050612ce78161476b565b92915050565b600081519050612cfc8161476b565b92915050565b600082601f830112612d1357600080fd5b8135612d23848260208601612b84565b91505092915050565b600082601f830112612d3d57600080fd5b8135612d4d848260208601612bf0565b91505092915050565b600081359050612d6581614782565b92915050565b600081359050612d7a81614799565b92915050565b600081359050612d8f816147b0565b92915050565b600081519050612da4816147b0565b92915050565b600082601f830112612dbb57600080fd5b8135612dcb848260208601612c5c565b91505092915050565b600081359050612de3816147c7565b92915050565b600082601f830112612dfa57600080fd5b8135612e0a848260208601612c9a565b91505092915050565b600060608284031215612e2557600080fd5b612e2f6060613d3e565b90506000612e3f84828501612dd4565b6000830152506020612e5384828501612dd4565b6020830152506040612e6784828501612dd4565b60408301525092915050565b600060c08284031215612e8557600080fd5b612e8f6080613d3e565b90506000612e9f84828501612d6b565b600083015250602082013567ffffffffffffffff811115612ebf57600080fd5b612ecb84828501612de9565b6020830152506040612edf84828501612e13565b60408301525060a0612ef384828501612d56565b60608301525092915050565b600081359050612f0e816147de565b92915050565b600060208284031215612f2657600080fd5b6000612f3484828501612cd8565b91505092915050565b600060208284031215612f4f57600080fd5b6000612f5d84828501612ced565b91505092915050565b60008060408385031215612f7957600080fd5b6000612f8785828601612cd8565b9250506020612f9885828601612cd8565b9150509250929050565b600080600080600060a08688031215612fba57600080fd5b6000612fc888828901612cd8565b9550506020612fd988828901612cd8565b945050604086013567ffffffffffffffff811115612ff657600080fd5b61300288828901612d2c565b935050606086013567ffffffffffffffff81111561301f57600080fd5b61302b88828901612d2c565b925050608086013567ffffffffffffffff81111561304857600080fd5b61305488828901612daa565b9150509295509295909350565b600080600080600060a0868803121561307957600080fd5b600061308788828901612cd8565b955050602061309888828901612cd8565b94505060406130a988828901612eff565b93505060606130ba88828901612eff565b925050608086013567ffffffffffffffff8111156130d757600080fd5b6130e388828901612daa565b9150509295509295909350565b6000806040838503121561310357600080fd5b600061311185828601612cd8565b925050602061312285828601612d56565b9150509250929050565b6000806040838503121561313f57600080fd5b600061314d85828601612cd8565b925050602061315e85828601612d6b565b9150509250929050565b6000806040838503121561317b57600080fd5b600061318985828601612cd8565b925050602083013567ffffffffffffffff8111156131a657600080fd5b6131b285828601612de9565b9150509250929050565b600080604083850312156131cf57600080fd5b60006131dd85828601612cd8565b92505060206131ee85828601612eff565b9150509250929050565b6000806040838503121561320b57600080fd5b600083013567ffffffffffffffff81111561322557600080fd5b61323185828601612d02565b925050602083013567ffffffffffffffff81111561324e57600080fd5b61325a85828601612d2c565b9150509250929050565b60006020828403121561327657600080fd5b600061328484828501612d80565b91505092915050565b60006020828403121561329f57600080fd5b60006132ad84828501612d95565b91505092915050565b6000602082840312156132c857600080fd5b600082013567ffffffffffffffff8111156132e257600080fd5b6132ee84828501612e73565b91505092915050565b60006020828403121561330957600080fd5b600061331784828501612eff565b91505092915050565b6000806040838503121561333357600080fd5b600061334185828601612eff565b925050602083013567ffffffffffffffff81111561335e57600080fd5b61336a85828601612e73565b9150509250929050565b60006133808383613887565b60208301905092915050565b61339581613ef5565b82525050565b60006133a682613e2d565b6133b08185613e5b565b93506133bb83613e1d565b8060005b838110156133ec5781516133d38882613374565b97506133de83613e4e565b9250506001810190506133bf565b5085935050505092915050565b61340281613f07565b82525050565b61341181613f07565b82525050565b61342081613f13565b82525050565b600061343182613e38565b61343b8185613e6c565b935061344b818560208601613f8f565b6134548161411d565b840191505092915050565b61346881613f49565b82525050565b600061347982613e43565b6134838185613e7d565b9350613493818560208601613f8f565b61349c8161411d565b840191505092915050565b60006134b282613e43565b6134bc8185613e8e565b93506134cc818560208601613f8f565b6134d58161411d565b840191505092915050565b60006134ed603483613e8e565b91506134f88261413b565b604082019050919050565b6000613510602883613e8e565b915061351b8261418a565b604082019050919050565b6000613533602b83613e8e565b915061353e826141d9565b604082019050919050565b6000613556602683613e8e565b915061356182614228565b604082019050919050565b6000613579602483613e8e565b915061358482614277565b604082019050919050565b600061359c600d83613e8e565b91506135a7826142c6565b602082019050919050565b60006135bf602983613e8e565b91506135ca826142ef565b604082019050919050565b60006135e2601883613e8e565b91506135ed8261433e565b602082019050919050565b6000613605601383613e8e565b915061361082614367565b602082019050919050565b6000613628600a83613e8e565b915061363382614390565b602082019050919050565b600061364b602583613e8e565b9150613656826143b9565b604082019050919050565b600061366e603283613e8e565b915061367982614408565b604082019050919050565b6000613691600f83613e8e565b915061369c82614457565b602082019050919050565b60006136b4602383613e8e565b91506136bf82614480565b604082019050919050565b60006136d7602a83613e8e565b91506136e2826144cf565b604082019050919050565b60006136fa602083613e8e565b91506137058261451e565b602082019050919050565b600061371d600b83613e8e565b915061372882614547565b602082019050919050565b6000613740602983613e8e565b915061374b82614570565b604082019050919050565b6000613763602983613e8e565b915061376e826145bf565b604082019050919050565b6000613786602883613e8e565b91506137918261460e565b604082019050919050565b60006137a9602183613e8e565b91506137b48261465d565b604082019050919050565b60006137cc600f83613e8e565b91506137d7826146ac565b602082019050919050565b6060820160008201516137f8600085018261345f565b50602082015161380b602085018261345f565b50604082015161381e604085018261345f565b50505050565b600060c08301600083015161383c6000860182613417565b5060208301518482036020860152613854828261346e565b915050604083015161386960408601826137e2565b50606083015161387c60a08601826133f9565b508091505092915050565b61389081613f76565b82525050565b61389f81613f76565b82525050565b60006020820190506138ba600083018461338c565b92915050565b600060a0820190506138d5600083018861338c565b6138e2602083018761338c565b81810360408301526138f4818661339b565b90508181036060830152613908818561339b565b9050818103608083015261391c8184613426565b90509695505050505050565b600060a08201905061393d600083018861338c565b61394a602083018761338c565b6139576040830186613896565b6139646060830185613896565b81810360808301526139768184613426565b90509695505050505050565b6000602082019050818103600083015261399c818461339b565b905092915050565b600060408201905081810360008301526139be818561339b565b905081810360208301526139d2818461339b565b90509392505050565b60006020820190506139f06000830184613408565b92915050565b60006020820190508181036000830152613a1081846134a7565b905092915050565b60006020820190508181036000830152613a31816134e0565b9050919050565b60006020820190508181036000830152613a5181613503565b9050919050565b60006020820190508181036000830152613a7181613526565b9050919050565b60006020820190508181036000830152613a9181613549565b9050919050565b60006020820190508181036000830152613ab18161356c565b9050919050565b60006020820190508181036000830152613ad18161358f565b9050919050565b60006020820190508181036000830152613af1816135b2565b9050919050565b60006020820190508181036000830152613b11816135d5565b9050919050565b60006020820190508181036000830152613b31816135f8565b9050919050565b60006020820190508181036000830152613b518161361b565b9050919050565b60006020820190508181036000830152613b718161363e565b9050919050565b60006020820190508181036000830152613b9181613661565b9050919050565b60006020820190508181036000830152613bb181613684565b9050919050565b60006020820190508181036000830152613bd1816136a7565b9050919050565b60006020820190508181036000830152613bf1816136ca565b9050919050565b60006020820190508181036000830152613c11816136ed565b9050919050565b60006020820190508181036000830152613c3181613710565b9050919050565b60006020820190508181036000830152613c5181613733565b9050919050565b60006020820190508181036000830152613c7181613756565b9050919050565b60006020820190508181036000830152613c9181613779565b9050919050565b60006020820190508181036000830152613cb18161379c565b9050919050565b60006020820190508181036000830152613cd1816137bf565b9050919050565b60006020820190508181036000830152613cf28184613824565b905092915050565b6000602082019050613d0f6000830184613896565b92915050565b6000604082019050613d2a6000830185613896565b613d376020830184613896565b9392505050565b6000613d48613d59565b9050613d548282613ff4565b919050565b6000604051905090565b600067ffffffffffffffff821115613d7e57613d7d6140cc565b5b602082029050602081019050919050565b600067ffffffffffffffff821115613daa57613da96140cc565b5b602082029050602081019050919050565b600067ffffffffffffffff821115613dd657613dd56140cc565b5b613ddf8261411d565b9050602081019050919050565b600067ffffffffffffffff821115613e0757613e066140cc565b5b613e108261411d565b9050602081019050919050565b6000819050602082019050919050565b600081519050919050565b600081519050919050565b600081519050919050565b6000602082019050919050565b600082825260208201905092915050565b600082825260208201905092915050565b600082825260208201905092915050565b600082825260208201905092915050565b6000613eaa82613f76565b9150613eb583613f76565b9250827fffffffffffffffffffffffffffffffffffffffffffffffffffffffffffffffff03821115613eea57613ee961406e565b5b828201905092915050565b6000613f0082613f56565b9050919050565b60008115159050919050565b6000819050919050565b60007fffffffff0000000000000000000000000000000000000000000000000000000082169050919050565b60008160000b9050919050565b600073ffffffffffffffffffffffffffffffffffffffff82169050919050565b6000819050919050565b82818337600083830152505050565b60005b83811015613fad578082015181840152602081019050613f92565b83811115613fbc576000848401525b50505050565b60006002820490506001821680613fda57607f821691505b60208210811415613fee57613fed61409d565b5b50919050565b613ffd8261411d565b810181811067ffffffffffffffff8211171561401c5761401b6140cc565b5b80604052505050565b600061403082613f76565b91507fffffffffffffffffffffffffffffffffffffffffffffffffffffffffffffffff8214156140635761406261406e565b5b600182019050919050565b7f4e487b7100000000000000000000000000000000000000000000000000000000600052601160045260246000fd5b7f4e487b7100000000000000000000000000000000000000000000000000000000600052602260045260246000fd5b7f4e487b7100000000000000000000000000000000000000000000000000000000600052604160045260246000fd5b600060033d111561411a5760046000803e61411760005161412e565b90505b90565b6000601f19601f8301169050919050565b60008160e01c9050919050565b7f455243313135353a207472616e7366657220746f206e6f6e204552433131353560008201527f526563656976657220696d706c656d656e746572000000000000000000000000602082015250565b7f455243313135353a204552433131353552656365697665722072656a6563746560008201527f6420746f6b656e73000000000000000000000000000000000000000000000000602082015250565b7f455243313135353a2062616c616e636520717565727920666f7220746865207a60008201527f65726f2061646472657373000000000000000000000000000000000000000000602082015250565b7f4f776e61626c653a206e6577206f776e657220697320746865207a65726f206160008201527f6464726573730000000000000000000000000000000000000000000000000000602082015250565b7f455243313135353a206275726e20616d6f756e7420657863656564732062616c60008201527f616e636500000000000000000000000000000000000000000000000000000000602082015250565b7f4f4e455f544f4b454e5f4d415800000000000000000000000000000000000000600082015250565b7f455243313135353a2063616c6c6572206973206e6f74206f776e6572206e6f7260008201527f20617070726f7665640000000000000000000000000000000000000000000000602082015250565b7f414c52454144595f41535349474e45445f544f5f524f4c450000000000000000600082015250565b7f494e56414c49445f5045524d495353494f4e5300000000000000000000000000600082015250565b7f41646d696e204f6e6c7900000000000000000000000000000000000000000000600082015250565b7f455243313135353a207472616e7366657220746f20746865207a65726f20616460008201527f6472657373000000000000000000000000000000000000000000000000000000602082015250565b7f455243313135353a207472616e736665722063616c6c6572206973206e6f742060008201527f6f776e6572206e6f7220617070726f7665640000000000000000000000000000602082015250565b7f494e4558495354454e545f524f4c450000000000000000000000000000000000600082015250565b7f455243313135353a206275726e2066726f6d20746865207a65726f206164647260008201527f6573730000000000000000000000000000000000000000000000000000000000602082015250565b7f455243313135353a20696e73756666696369656e742062616c616e636520666f60008201527f72207472616e7366657200000000000000000000000000000000000000000000602082015250565b7f4f776e61626c653a2063616c6c6572206973206e6f7420746865206f776e6572600082015250565b7f4e4f545f494e5f524f4c45000000000000000000000000000000000000000000600082015250565b7f455243313135353a2073657474696e6720617070726f76616c2073746174757360008201527f20666f722073656c660000000000000000000000000000000000000000000000602082015250565b7f455243313135353a206163636f756e747320616e6420696473206c656e67746860008201527f206d69736d617463680000000000000000000000000000000000000000000000602082015250565b7f455243313135353a2069647320616e6420616d6f756e7473206c656e6774682060008201527f6d69736d61746368000000000000000000000000000000000000000000000000602082015250565b7f455243313135353a206d696e7420746f20746865207a65726f2061646472657360008201527f7300000000000000000000000000000000000000000000000000000000000000602082015250565b7f494e4558495354454e545f475549440000000000000000000000000000000000600082015250565b600060443d10156146e557614768565b6146ed613d59565b60043d036004823e80513d602482011167ffffffffffffffff82111715614715575050614768565b808201805167ffffffffffffffff8111156147335750505050614768565b80602083010160043d038501811115614750575050505050614768565b61475f82602001850186613ff4565b82955050505050505b90565b61477481613ef5565b811461477f57600080fd5b50565b61478b81613f07565b811461479657600080fd5b50565b6147a281613f13565b81146147ad57600080fd5b50565b6147b981613f1d565b81146147c457600080fd5b50565b6147d081613f49565b81146147db57600080fd5b50565b6147e781613f76565b81146147f257600080fd5b5056fea2646970667358221220208f3ed071287073fbdef7e695e99cd7ac3a27cf4f927242b99440af6922c9af64736f6c63430008040033",
  "linkReferences": {},
  "deployedLinkReferences": {}
}