{
  "_format": "hh-sol-artifact-1",
  "contractName": "Jurisdiction",
  "sourceName": "contracts/Jurisdiction.sol",
  "abi": [
    {
      "inputs": [
        {
          "internalType": "address",
          "name": "hub",
          "type": "address"
        }
      ],
      "stateMutability": "nonpayable",
      "type": "constructor"
    },
    {
      "anonymous": false,
      "inputs": [
        {
          "indexed": true,
          "internalType": "address",
          "name": "account",
          "type": "address"
        },
        {
          "indexed": true,
          "internalType": "address",
          "name": "operator",
          "type": "address"
        },
        {
          "indexed": false,
          "internalType": "bool",
          "name": "approved",
          "type": "bool"
        }
      ],
      "name": "ApprovalForAll",
      "type": "event"
    },
    {
      "anonymous": false,
      "inputs": [
        {
          "indexed": true,
          "internalType": "uint256",
          "name": "id",
          "type": "uint256"
        },
        {
          "indexed": false,
          "internalType": "address",
          "name": "contractAddress",
          "type": "address"
        }
      ],
      "name": "CaseCreated",
      "type": "event"
    },
    {
      "anonymous": false,
      "inputs": [
        {
          "indexed": true,
          "internalType": "address",
          "name": "previousOwner",
          "type": "address"
        },
        {
          "indexed": true,
          "internalType": "address",
          "name": "newOwner",
          "type": "address"
        }
      ],
      "name": "OwnershipTransferred",
      "type": "event"
    },
    {
      "anonymous": false,
      "inputs": [
        {
          "indexed": true,
          "internalType": "uint256",
          "name": "id",
          "type": "uint256"
        },
        {
          "indexed": false,
          "internalType": "string",
          "name": "role",
          "type": "string"
        }
      ],
      "name": "RoleCreated",
      "type": "event"
    },
    {
      "anonymous": false,
      "inputs": [
        {
          "indexed": true,
          "internalType": "address",
          "name": "operator",
          "type": "address"
        },
        {
          "indexed": true,
          "internalType": "address",
          "name": "from",
          "type": "address"
        },
        {
          "indexed": true,
          "internalType": "address",
          "name": "to",
          "type": "address"
        },
        {
          "indexed": false,
          "internalType": "uint256[]",
          "name": "ids",
          "type": "uint256[]"
        },
        {
          "indexed": false,
          "internalType": "uint256[]",
          "name": "values",
          "type": "uint256[]"
        }
      ],
      "name": "TransferBatch",
      "type": "event"
    },
    {
      "anonymous": false,
      "inputs": [
        {
          "indexed": true,
          "internalType": "address",
          "name": "operator",
          "type": "address"
        },
        {
          "indexed": true,
          "internalType": "address",
          "name": "from",
          "type": "address"
        },
        {
          "indexed": true,
          "internalType": "address",
          "name": "to",
          "type": "address"
        },
        {
          "indexed": false,
          "internalType": "uint256",
          "name": "id",
          "type": "uint256"
        },
        {
          "indexed": false,
          "internalType": "uint256",
          "name": "value",
          "type": "uint256"
        }
      ],
      "name": "TransferSingle",
      "type": "event"
    },
    {
      "anonymous": false,
      "inputs": [
        {
          "indexed": false,
          "internalType": "string",
          "name": "value",
          "type": "string"
        },
        {
          "indexed": true,
          "internalType": "uint256",
          "name": "id",
          "type": "uint256"
        }
      ],
      "name": "URI",
      "type": "event"
    },
    {
      "inputs": [
        {
          "internalType": "address",
          "name": "account",
          "type": "address"
        },
        {
          "internalType": "uint256",
          "name": "id",
          "type": "uint256"
        }
      ],
      "name": "balanceOf",
      "outputs": [
        {
          "internalType": "uint256",
          "name": "",
          "type": "uint256"
        }
      ],
      "stateMutability": "view",
      "type": "function"
    },
    {
      "inputs": [
        {
          "internalType": "address[]",
          "name": "accounts",
          "type": "address[]"
        },
        {
          "internalType": "uint256[]",
          "name": "ids",
          "type": "uint256[]"
        }
      ],
      "name": "balanceOfBatch",
      "outputs": [
        {
          "internalType": "uint256[]",
          "name": "",
          "type": "uint256[]"
        }
      ],
      "stateMutability": "view",
      "type": "function"
    },
    {
      "inputs": [
        {
          "internalType": "string",
          "name": "name_",
          "type": "string"
        }
      ],
      "name": "caseMake",
      "outputs": [
        {
          "internalType": "uint256",
          "name": "",
          "type": "uint256"
        },
        {
          "internalType": "address",
          "name": "",
          "type": "address"
        }
      ],
      "stateMutability": "nonpayable",
      "type": "function"
    },
    {
      "inputs": [
        {
          "internalType": "address",
          "name": "account",
          "type": "address"
        },
        {
          "internalType": "address",
          "name": "operator",
          "type": "address"
        }
      ],
      "name": "isApprovedForAll",
      "outputs": [
        {
          "internalType": "bool",
          "name": "",
          "type": "bool"
        }
      ],
      "stateMutability": "view",
      "type": "function"
    },
    {
      "inputs": [],
      "name": "join",
      "outputs": [],
      "stateMutability": "nonpayable",
      "type": "function"
    },
    {
      "inputs": [],
      "name": "leave",
      "outputs": [],
      "stateMutability": "nonpayable",
      "type": "function"
    },
    {
      "inputs": [],
      "name": "name",
      "outputs": [
        {
          "internalType": "string",
          "name": "",
          "type": "string"
        }
      ],
      "stateMutability": "view",
      "type": "function"
    },
    {
      "inputs": [],
      "name": "owner",
      "outputs": [
        {
          "internalType": "address",
          "name": "",
          "type": "address"
        }
      ],
      "stateMutability": "view",
      "type": "function"
    },
    {
      "inputs": [],
      "name": "renounceOwnership",
      "outputs": [],
      "stateMutability": "nonpayable",
      "type": "function"
    },
    {
      "inputs": [],
      "name": "role",
      "outputs": [
        {
          "internalType": "string",
          "name": "",
          "type": "string"
        }
      ],
      "stateMutability": "view",
      "type": "function"
    },
    {
      "inputs": [
        {
          "internalType": "address",
          "name": "account",
          "type": "address"
        },
        {
          "internalType": "string",
          "name": "role",
          "type": "string"
        }
      ],
      "name": "roleAssign",
      "outputs": [],
      "stateMutability": "nonpayable",
      "type": "function"
    },
    {
      "inputs": [
        {
          "internalType": "address",
          "name": "account",
          "type": "address"
        },
        {
          "internalType": "string",
          "name": "role",
          "type": "string"
        }
      ],
      "name": "roleHas",
      "outputs": [
        {
          "internalType": "bool",
          "name": "",
          "type": "bool"
        }
      ],
      "stateMutability": "view",
      "type": "function"
    },
    {
      "inputs": [
        {
          "internalType": "address",
          "name": "account",
          "type": "address"
        },
        {
          "internalType": "string",
          "name": "role",
          "type": "string"
        }
      ],
      "name": "roleRemove",
      "outputs": [],
      "stateMutability": "nonpayable",
      "type": "function"
    },
    {
      "inputs": [
        {
          "internalType": "address",
          "name": "from",
          "type": "address"
        },
        {
          "internalType": "address",
          "name": "to",
          "type": "address"
        },
        {
          "internalType": "uint256[]",
          "name": "ids",
          "type": "uint256[]"
        },
        {
          "internalType": "uint256[]",
          "name": "amounts",
          "type": "uint256[]"
        },
        {
          "internalType": "bytes",
          "name": "data",
          "type": "bytes"
        }
      ],
      "name": "safeBatchTransferFrom",
      "outputs": [],
      "stateMutability": "nonpayable",
      "type": "function"
    },
    {
      "inputs": [
        {
          "internalType": "address",
          "name": "from",
          "type": "address"
        },
        {
          "internalType": "address",
          "name": "to",
          "type": "address"
        },
        {
          "internalType": "uint256",
          "name": "id",
          "type": "uint256"
        },
        {
          "internalType": "uint256",
          "name": "amount",
          "type": "uint256"
        },
        {
          "internalType": "bytes",
          "name": "data",
          "type": "bytes"
        }
      ],
      "name": "safeTransferFrom",
      "outputs": [],
      "stateMutability": "nonpayable",
      "type": "function"
    },
    {
      "inputs": [
        {
          "internalType": "address",
          "name": "operator",
          "type": "address"
        },
        {
          "internalType": "bool",
          "name": "approved",
          "type": "bool"
        }
      ],
      "name": "setApprovalForAll",
      "outputs": [],
      "stateMutability": "nonpayable",
      "type": "function"
    },
    {
      "inputs": [
        {
          "internalType": "bytes4",
          "name": "interfaceId",
          "type": "bytes4"
        }
      ],
      "name": "supportsInterface",
      "outputs": [
        {
          "internalType": "bool",
          "name": "",
          "type": "bool"
        }
      ],
      "stateMutability": "view",
      "type": "function"
    },
    {
      "inputs": [],
      "name": "symbol",
      "outputs": [
        {
          "internalType": "string",
          "name": "",
          "type": "string"
        }
      ],
      "stateMutability": "view",
      "type": "function"
    },
    {
      "inputs": [
        {
          "internalType": "address",
          "name": "newOwner",
          "type": "address"
        }
      ],
      "name": "transferOwnership",
      "outputs": [],
      "stateMutability": "nonpayable",
      "type": "function"
    },
    {
      "inputs": [
        {
          "internalType": "uint256",
          "name": "",
          "type": "uint256"
        }
      ],
      "name": "uri",
      "outputs": [
        {
          "internalType": "string",
          "name": "",
          "type": "string"
        }
      ],
      "stateMutability": "view",
      "type": "function"
    }
  ],
  "bytecode": "0x60806040523480156200001157600080fd5b50604051620063d1380380620063d18339818101604052810190620000379190620006c5565b6040518060200160405280600081525081620000686200005c6200020160201b60201c565b6200020960201b60201c565b6200007981620002cf60201b60201c565b506200008b816200042c60201b60201c565b506040518060400160405280601681526020017f416e74692d5363616d204a7572697364696374696f6e0000000000000000000081525060089080519060200190620000d99291906200058c565b506040518060400160405280600581526020017f594a5f4a3100000000000000000000000000000000000000000000000000000081525060099080519060200190620001279291906200058c565b506200016e6040518060400160405280600581526020017f61646d696e0000000000000000000000000000000000000000000000000000008152506200044860201b60201c565b620001b46040518060400160405280600681526020017f6d656d62657200000000000000000000000000000000000000000000000000008152506200044860201b60201c565b620001fa6040518060400160405280600581526020017f6a756467650000000000000000000000000000000000000000000000000000008152506200044860201b60201c565b5062000b1f565b600033905090565b6000600160009054906101000a900473ffffffffffffffffffffffffffffffffffffffff16905081600160006101000a81548173ffffffffffffffffffffffffffffffffffffffff021916908373ffffffffffffffffffffffffffffffffffffffff1602179055508173ffffffffffffffffffffffffffffffffffffffff168173ffffffffffffffffffffffffffffffffffffffff167f8be0079c531659141344cd1fd0a4f28419497f9722a3daafe3b4186f6b6457e060405160405180910390a35050565b604051602001620002e09062000862565b604051602081830303815290604052805190602001208173ffffffffffffffffffffffffffffffffffffffff166310055c1d6040518163ffffffff1660e01b815260040160006040518083038186803b1580156200033d57600080fd5b505afa15801562000352573d6000803e3d6000fd5b505050506040513d6000823e3d601f19601f820116820180604052508101906200037d9190620006f1565b6040516020016200038f919062000823565b6040516020818303038152906040528051906020012014620003e8576040517f08c379a0000000000000000000000000000000000000000000000000000000008152600401620003df906200089d565b60405180910390fd5b80600260006101000a81548173ffffffffffffffffffffffffffffffffffffffff021916908373ffffffffffffffffffffffffffffffffffffffff16021790555050565b8060059080519060200190620004449291906200058c565b5050565b6000600a826040516200045c919062000823565b90815260200160405180910390205414816040516020016200047f91906200083c565b60405160208183030381529060405290620004d2576040517f08c379a0000000000000000000000000000000000000000000000000000000008152600401620004c9919062000879565b60405180910390fd5b50620004ea60066200056860201b620012991760201c565b60006200050360066200057e60201b620012af1760201c565b905080600a8360405162000518919062000823565b908152602001604051809103902081905550807f33d5db5dadf5598bea14bf7ec1ca42f58c47dd66bb953ae16559d034bd12dd23836040516200055c919062000879565b60405180910390a25050565b6001816000016000828254019250508190555050565b600081600001549050919050565b8280546200059a90620009af565b90600052602060002090601f016020900481019282620005be57600085556200060a565b82601f10620005d957805160ff19168380011785556200060a565b828001600101855582156200060a579182015b8281111562000609578251825591602001919060010190620005ec565b5b5090506200061991906200061d565b5090565b5b80821115620006385760008160009055506001016200061e565b5090565b6000620006536200064d84620008e8565b620008bf565b9050828152602081018484840111156200066c57600080fd5b6200067984828562000979565b509392505050565b600081519050620006928162000b05565b92915050565b600082601f830112620006aa57600080fd5b8151620006bc8482602086016200063c565b91505092915050565b600060208284031215620006d857600080fd5b6000620006e88482850162000681565b91505092915050565b6000602082840312156200070457600080fd5b600082015167ffffffffffffffff8111156200071f57600080fd5b6200072d8482850162000698565b91505092915050565b600062000743826200091e565b6200074f818562000929565b93506200076181856020860162000979565b6200076c8162000a79565b840191505092915050565b600062000784826200091e565b6200079081856200093a565b9350620007a281856020860162000979565b80840191505092915050565b6000620007bd60148362000929565b9150620007ca8262000a8a565b602082019050919050565b6000620007e46015836200093a565b9150620007f18262000ab3565b601582019050919050565b60006200080b6005836200093a565b9150620008188262000adc565b600582019050919050565b600062000831828462000777565b915081905092915050565b60006200084a828462000777565b91506200085782620007d5565b915081905092915050565b60006200086f82620007fc565b9150819050919050565b6000602082019050818103600083015262000895818462000736565b905092915050565b60006020820190508181036000830152620008b881620007ae565b9050919050565b6000620008cb620008de565b9050620008d98282620009e5565b919050565b6000604051905090565b600067ffffffffffffffff82111562000906576200090562000a4a565b5b620009118262000a79565b9050602081019050919050565b600081519050919050565b600082825260208201905092915050565b600081905092915050565b6000620009528262000959565b9050919050565b600073ffffffffffffffffffffffffffffffffffffffff82169050919050565b60005b83811015620009995780820151818401526020810190506200097c565b83811115620009a9576000848401525b50505050565b60006002820490506001821680620009c857607f821691505b60208210811415620009df57620009de62000a1b565b5b50919050565b620009f08262000a79565b810181811067ffffffffffffffff8211171562000a125762000a1162000a4a565b5b80604052505050565b7f4e487b7100000000000000000000000000000000000000000000000000000000600052602260045260246000fd5b7f4e487b7100000000000000000000000000000000000000000000000000000000600052604160045260246000fd5b6000601f19601f8301169050919050565b7f496e76616c69642048756220436f6e7472616374000000000000000000000000600082015250565b7f20726f6c6520616c726561647920657869737473200000000000000000000000600082015250565b7f594a487562000000000000000000000000000000000000000000000000000000600082015250565b62000b108162000945565b811462000b1c57600080fd5b50565b6158a28062000b2f6000396000f3fe60806040523480156200001157600080fd5b5060043610620001475760003560e01c806395d89b4111620000bd578063d66d9e19116200007b578063d66d9e19146200037b578063dae4a17f1462000387578063e985e9c514620003bd578063f242432a14620003f3578063f2fde38b14620004135762000147565b806395d89b4114620002d6578063a22cb46514620002f8578063a80c616f1462000318578063b688a3631462000338578063ce5dd57f14620003445762000147565b80631ee185ad116200010b5780631ee185ad14620002325780632eb2c2d614620002525780634e1273f41462000272578063715018a614620002a85780638da5cb5b14620002b45762000147565b8062fdd58e146200014c57806301ffc9a7146200018257806306fdde0314620001b85780630e89341c14620001da57806310055c1d1462000210575b600080fd5b6200016a600480360381019062000164919062002f34565b62000433565b60405162000179919062003b1a565b60405180910390f35b620001a060048036038101906200019a919062002fe8565b62000500565b604051620001af9190620037d4565b60405180910390f35b620001c2620005e6565b604051620001d191906200384e565b60405180910390f35b620001f86004803603810190620001f2919062003089565b6200067c565b6040516200020791906200384e565b60405180910390f35b6200021a62000718565b6040516200022991906200384e565b60405180910390f35b6200025060048036038101906200024a919062002ed6565b62000751565b005b6200027060048036038101906200026a919062002d2d565b620008b6565b005b6200029060048036038101906200028a919062002f75565b62000963565b6040516200029f919062003775565b60405180910390f35b620002b262000b22565b005b620002be62000bb3565b604051620002cd919062003682565b60405180910390f35b620002e062000c5e565b604051620002ef91906200384e565b60405180910390f35b62000316600480360381019062000310919062002e95565b62000cf4565b005b62000336600480360381019062000330919062002ed6565b62000d0e565b005b6200034262000e73565b005b6200036260048036038101906200035c919062003040565b62000ec0565b6040516200037292919062003b37565b60405180910390f35b6200038562000ff3565b005b620003a560048036038101906200039f919062002ed6565b62001030565b604051620003b49190620037d4565b60405180910390f35b620003db6004803603810190620003d5919062002cec565b62001054565b604051620003ea9190620037d4565b60405180910390f35b6200041160048036038101906200040b919062002dfa565b620010e8565b005b6200043160048036038101906200042b919062002c94565b62001195565b005b60008073ffffffffffffffffffffffffffffffffffffffff168373ffffffffffffffffffffffffffffffffffffffff161415620004a7576040517f08c379a00000000000000000000000000000000000000000000000000000000081526004016200049e90620038b6565b60405180910390fd5b6003600083815260200190815260200160002060008473ffffffffffffffffffffffffffffffffffffffff1673ffffffffffffffffffffffffffffffffffffffff16815260200190815260200160002054905092915050565b60007fd9b67a26000000000000000000000000000000000000000000000000000000007bffffffffffffffffffffffffffffffffffffffffffffffffffffffff1916827bffffffffffffffffffffffffffffffffffffffffffffffffffffffff19161480620005cc57507f0e89341c000000000000000000000000000000000000000000000000000000007bffffffffffffffffffffffffffffffffffffffffffffffffffffffff1916827bffffffffffffffffffffffffffffffffffffffffffffffffffffffff1916145b80620005df5750620005de82620012bd565b5b9050919050565b60088054620005f59062003e55565b80601f0160208091040260200160405190810160405280929190818152602001828054620006239062003e55565b8015620006745780601f10620006485761010080835404028352916020019162000674565b820191906000526020600020905b8154815290600101906020018083116200065657829003601f168201915b505050505081565b6060600580546200068d9062003e55565b80601f0160208091040260200160405190810160405280929190818152602001828054620006bb9062003e55565b80156200070c5780601f10620006e0576101008083540402835291602001916200070c565b820191906000526020600020905b815481529060010190602001808311620006ee57829003601f168201915b50505050509050919050565b6040518060400160405280600f81526020017f594a5f4a7572697364696374696f6e000000000000000000000000000000000081525081565b81816200075f828262001327565b620007a1576040517f08c379a00000000000000000000000000000000000000000000000000000000081526004016200079890620039e8565b60405180910390fd5b8473ffffffffffffffffffffffffffffffffffffffff16620007c262001357565b73ffffffffffffffffffffffffffffffffffffffff161480620008225750620007ea62001357565b73ffffffffffffffffffffffffffffffffffffffff166200080a62000bb3565b73ffffffffffffffffffffffffffffffffffffffff16145b8062000860575060006200085e6200083962001357565b600a60405162000849906200366b565b90815260200160405180910390205462000433565b115b620008a2576040517f08c379a0000000000000000000000000000000000000000000000000000000008152600401620008999062003982565b60405180910390fd5b620008af8585856200135f565b5050505050565b620008c062001357565b73ffffffffffffffffffffffffffffffffffffffff168573ffffffffffffffffffffffffffffffffffffffff1614806200090b57506200090a856200090462001357565b62001054565b5b6200094d576040517f08c379a00000000000000000000000000000000000000000000000000000000081526004016200094490620039c6565b60405180910390fd5b6200095c85858585856200143d565b5050505050565b60608151835114620009ac576040517f08c379a0000000000000000000000000000000000000000000000000000000008152600401620009a39062003ab4565b60405180910390fd5b6000835167ffffffffffffffff811115620009f0577f4e487b7100000000000000000000000000000000000000000000000000000000600052604160045260246000fd5b60405190808252806020026020018201604052801562000a1f5781602001602082028036833780820191505090505b50905060005b845181101562000b175762000abd85828151811062000a6d577f4e487b7100000000000000000000000000000000000000000000000000000000600052603260045260246000fd5b602002602001015185838151811062000aaf577f4e487b7100000000000000000000000000000000000000000000000000000000600052603260045260246000fd5b602002602001015162000433565b82828151811062000af7577f4e487b7100000000000000000000000000000000000000000000000000000000600052603260045260246000fd5b6020026020010181815250508062000b0f9062003ec1565b905062000a25565b508091505092915050565b62000b2c62001357565b73ffffffffffffffffffffffffffffffffffffffff1662000b4c62000bb3565b73ffffffffffffffffffffffffffffffffffffffff161462000ba5576040517f08c379a000000000000000000000000000000000000000000000000000000000815260040162000b9c9062003a4e565b60405180910390fd5b62000bb16000620017b9565b565b6000600260009054906101000a900473ffffffffffffffffffffffffffffffffffffffff1673ffffffffffffffffffffffffffffffffffffffff16638da5cb5b6040518163ffffffff1660e01b815260040160206040518083038186803b15801562000c1e57600080fd5b505afa15801562000c33573d6000803e3d6000fd5b505050506040513d601f19601f8201168201806040525081019062000c59919062002cc0565b905090565b6009805462000c6d9062003e55565b80601f016020809104026020016040519081016040528092919081815260200182805462000c9b9062003e55565b801562000cec5780601f1062000cc05761010080835404028352916020019162000cec565b820191906000526020600020905b81548152906001019060200180831162000cce57829003601f168201915b505050505081565b62000d0a62000d0262001357565b83836200187f565b5050565b818162000d1c828262001327565b62000d5e576040517f08c379a000000000000000000000000000000000000000000000000000000000815260040162000d5590620039e8565b60405180910390fd5b8473ffffffffffffffffffffffffffffffffffffffff1662000d7f62001357565b73ffffffffffffffffffffffffffffffffffffffff16148062000ddf575062000da762001357565b73ffffffffffffffffffffffffffffffffffffffff1662000dc762000bb3565b73ffffffffffffffffffffffffffffffffffffffff16145b8062000e1d5750600062000e1b62000df662001357565b600a60405162000e06906200366b565b90815260200160405180910390205462000433565b115b62000e5f576040517f08c379a000000000000000000000000000000000000000000000000000000000815260040162000e569062003982565b60405180910390fd5b62000e6c858585620019f1565b5050505050565b6000600a60405162000e85906200362e565b908152602001604051809103902054905062000ebd62000ea462001357565b8260016040518060200160405280600081525062001a8e565b50565b60008062000ecf600762001299565b600062000edd6007620012af565b90506000858562000eee8462001c36565b60405160200162000f00919062003645565b60405160208183030381529060405262000f1962001df8565b3060405162000f2890620029f9565b62000f38959493929190620037f1565b604051809103906000f08015801562000f55573d6000803e3d6000fd5b50905080600b600084815260200190815260200160002060006101000a81548173ffffffffffffffffffffffffffffffffffffffff021916908373ffffffffffffffffffffffffffffffffffffffff160217905550817f114f7d75e6fa54e0288ebc602fe66be2cb832e0262834313f06dc8ff06839cb88260405162000fdc919062003682565b60405180910390a281819350935050509250929050565b6000600a60405162001005906200362e565b90815260200160405180910390205490506200102d6200102462001357565b82600162001e22565b50565b6000806200104a8562001044868662002051565b62000433565b1190509392505050565b6000600460008473ffffffffffffffffffffffffffffffffffffffff1673ffffffffffffffffffffffffffffffffffffffff16815260200190815260200160002060008373ffffffffffffffffffffffffffffffffffffffff1673ffffffffffffffffffffffffffffffffffffffff16815260200190815260200160002060009054906101000a900460ff16905092915050565b620010f262001357565b73ffffffffffffffffffffffffffffffffffffffff168573ffffffffffffffffffffffffffffffffffffffff1614806200113d57506200113c856200113662001357565b62001054565b5b6200117f576040517f08c379a000000000000000000000000000000000000000000000000000000000815260040162001176906200393e565b60405180910390fd5b6200118e8585858585620020d0565b5050505050565b6200119f62001357565b73ffffffffffffffffffffffffffffffffffffffff16620011bf62000bb3565b73ffffffffffffffffffffffffffffffffffffffff161462001218576040517f08c379a00000000000000000000000000000000000000000000000000000000081526004016200120f9062003a4e565b60405180910390fd5b600073ffffffffffffffffffffffffffffffffffffffff168173ffffffffffffffffffffffffffffffffffffffff1614156200128b576040517f08c379a00000000000000000000000000000000000000000000000000000000081526004016200128290620038d8565b60405180910390fd5b6200129681620017b9565b50565b6001816000016000828254019250508190555050565b600081600001549050919050565b60007f01ffc9a7000000000000000000000000000000000000000000000000000000007bffffffffffffffffffffffffffffffffffffffffffffffffffffffff1916827bffffffffffffffffffffffffffffffffffffffffffffffffffffffff1916149050919050565b600080600a84846040516200133e92919062003613565b9081526020016040518091039020541415905092915050565b600033905090565b81816200136d828262001327565b620013af576040517f08c379a0000000000000000000000000000000000000000000000000000000008152600401620013a690620039e8565b60405180910390fd5b6000600a8585604051620013c592919062003613565b90815260200160405180910390205490506000620013e4878362000433565b1162001427576040517f08c379a00000000000000000000000000000000000000000000000000000000081526004016200141e9062003a70565b60405180910390fd5b620014358682600162001e22565b505050505050565b815183511462001484576040517f08c379a00000000000000000000000000000000000000000000000000000000081526004016200147b9062003ad6565b60405180910390fd5b600073ffffffffffffffffffffffffffffffffffffffff168473ffffffffffffffffffffffffffffffffffffffff161415620014f7576040517f08c379a0000000000000000000000000000000000000000000000000000000008152600401620014ee90620039a4565b60405180910390fd5b60006200150362001357565b90506200151581878787878762002369565b60005b8451811015620017205760008582815181106200155e577f4e487b7100000000000000000000000000000000000000000000000000000000600052603260045260246000fd5b602002602001015190506000858381518110620015a4577f4e487b7100000000000000000000000000000000000000000000000000000000600052603260045260246000fd5b6020026020010151905060006003600084815260200190815260200160002060008b73ffffffffffffffffffffffffffffffffffffffff1673ffffffffffffffffffffffffffffffffffffffff1681526020019081526020016000205490508181101562001649576040517f08c379a0000000000000000000000000000000000000000000000000000000008152600401620016409062003a2c565b60405180910390fd5b8181036003600085815260200190815260200160002060008c73ffffffffffffffffffffffffffffffffffffffff1673ffffffffffffffffffffffffffffffffffffffff16815260200190815260200160002081905550816003600085815260200190815260200160002060008b73ffffffffffffffffffffffffffffffffffffffff1673ffffffffffffffffffffffffffffffffffffffff168152602001908152602001600020600082825462001702919062003cca565b9250508190555050505080620017189062003ec1565b905062001518565b508473ffffffffffffffffffffffffffffffffffffffff168673ffffffffffffffffffffffffffffffffffffffff168273ffffffffffffffffffffffffffffffffffffffff167f4a39dc06d4c0dbc64b70af90fd698a233a518aa5d07e595d983b8c0526c8f7fb87876040516200179992919062003799565b60405180910390a4620017b181878787878762002507565b505050505050565b6000600160009054906101000a900473ffffffffffffffffffffffffffffffffffffffff16905081600160006101000a81548173ffffffffffffffffffffffffffffffffffffffff021916908373ffffffffffffffffffffffffffffffffffffffff1602179055508173ffffffffffffffffffffffffffffffffffffffff168173ffffffffffffffffffffffffffffffffffffffff167f8be0079c531659141344cd1fd0a4f28419497f9722a3daafe3b4186f6b6457e060405160405180910390a35050565b8173ffffffffffffffffffffffffffffffffffffffff168373ffffffffffffffffffffffffffffffffffffffff161415620018f1576040517f08c379a0000000000000000000000000000000000000000000000000000000008152600401620018e89062003a92565b60405180910390fd5b80600460008573ffffffffffffffffffffffffffffffffffffffff1673ffffffffffffffffffffffffffffffffffffffff16815260200190815260200160002060008473ffffffffffffffffffffffffffffffffffffffff1673ffffffffffffffffffffffffffffffffffffffff16815260200190815260200160002060006101000a81548160ff0219169083151502179055508173ffffffffffffffffffffffffffffffffffffffff168373ffffffffffffffffffffffffffffffffffffffff167f17307eab39ab6107e8899845ad3d59bd9653f200f220920489ca2b5937696c3183604051620019e49190620037d4565b60405180910390a3505050565b8181620019ff828262001327565b62001a41576040517f08c379a000000000000000000000000000000000000000000000000000000000815260040162001a3890620039e8565b60405180910390fd5b6000600a858560405162001a5792919062003613565b908152602001604051809103902054905062001a86868260016040518060200160405280600081525062001a8e565b505050505050565b600073ffffffffffffffffffffffffffffffffffffffff168473ffffffffffffffffffffffffffffffffffffffff16141562001b01576040517f08c379a000000000000000000000000000000000000000000000000000000000815260040162001af89062003af8565b60405180910390fd5b600062001b0d62001357565b905062001b348160008762001b228862002706565b62001b2d8862002706565b8762002369565b826003600086815260200190815260200160002060008773ffffffffffffffffffffffffffffffffffffffff1673ffffffffffffffffffffffffffffffffffffffff168152602001908152602001600020600082825462001b96919062003cca565b925050819055508473ffffffffffffffffffffffffffffffffffffffff16600073ffffffffffffffffffffffffffffffffffffffff168273ffffffffffffffffffffffffffffffffffffffff167fc3d58168c5ae7397731d063d5bbf3d657854427343f4c083240f7aacaa2d0f62878760405162001c1692919062003b64565b60405180910390a462001c2f81600087878787620027cf565b5050505050565b6060600082141562001c80576040518060400160405280600181526020017f3000000000000000000000000000000000000000000000000000000000000000815250905062001df3565b600082905060005b6000821462001cb857808062001c9e9062003ec1565b915050600a8262001cb0919062003d27565b915062001c88565b60008167ffffffffffffffff81111562001cfb577f4e487b7100000000000000000000000000000000000000000000000000000000600052604160045260246000fd5b6040519080825280601f01601f19166020018201604052801562001d2e5781602001600182028036833780820191505090505b5090505b6000851462001dec5760018262001d4a919062003d5f565b9150600a8562001d5b919062003f0f565b603062001d69919062003cca565b60f81b81838151811062001da6577f4e487b7100000000000000000000000000000000000000000000000000000000600052603260045260246000fd5b60200101907effffffffffffffffffffffffffffffffffffffffffffffffffffffffffffff1916908160001a905350600a8562001de4919062003d27565b945062001d32565b8093505050505b919050565b6000600260009054906101000a900473ffffffffffffffffffffffffffffffffffffffff16905090565b600073ffffffffffffffffffffffffffffffffffffffff168373ffffffffffffffffffffffffffffffffffffffff16141562001e95576040517f08c379a000000000000000000000000000000000000000000000000000000000815260040162001e8c9062003a0a565b60405180910390fd5b600062001ea162001357565b905062001ed78185600062001eb68762002706565b62001ec18762002706565b6040518060200160405280600081525062002369565b60006003600085815260200190815260200160002060008673ffffffffffffffffffffffffffffffffffffffff1673ffffffffffffffffffffffffffffffffffffffff1681526020019081526020016000205490508281101562001f72576040517f08c379a000000000000000000000000000000000000000000000000000000000815260040162001f6990620038fa565b60405180910390fd5b8281036003600086815260200190815260200160002060008773ffffffffffffffffffffffffffffffffffffffff1673ffffffffffffffffffffffffffffffffffffffff16815260200190815260200160002081905550600073ffffffffffffffffffffffffffffffffffffffff168573ffffffffffffffffffffffffffffffffffffffff168373ffffffffffffffffffffffffffffffffffffffff167fc3d58168c5ae7397731d063d5bbf3d657854427343f4c083240f7aacaa2d0f6287876040516200204292919062003b64565b60405180910390a45050505050565b6000828262002061828262001327565b620020a3576040517f08c379a00000000000000000000000000000000000000000000000000000000081526004016200209a90620039e8565b60405180910390fd5b600a8585604051620020b792919062003613565b9081526020016040518091039020549250505092915050565b600073ffffffffffffffffffffffffffffffffffffffff168473ffffffffffffffffffffffffffffffffffffffff16141562002143576040517f08c379a00000000000000000000000000000000000000000000000000000000081526004016200213a90620039a4565b60405180910390fd5b60006200214f62001357565b905062002175818787620021638862002706565b6200216e8862002706565b8762002369565b60006003600086815260200190815260200160002060008873ffffffffffffffffffffffffffffffffffffffff1673ffffffffffffffffffffffffffffffffffffffff1681526020019081526020016000205490508381101562002210576040517f08c379a0000000000000000000000000000000000000000000000000000000008152600401620022079062003a2c565b60405180910390fd5b8381036003600087815260200190815260200160002060008973ffffffffffffffffffffffffffffffffffffffff1673ffffffffffffffffffffffffffffffffffffffff16815260200190815260200160002081905550836003600087815260200190815260200160002060008873ffffffffffffffffffffffffffffffffffffffff1673ffffffffffffffffffffffffffffffffffffffff1681526020019081526020016000206000828254620022c9919062003cca565b925050819055508573ffffffffffffffffffffffffffffffffffffffff168773ffffffffffffffffffffffffffffffffffffffff168373ffffffffffffffffffffffffffffffffffffffff167fc3d58168c5ae7397731d063d5bbf3d657854427343f4c083240f7aacaa2d0f6288886040516200234892919062003b64565b60405180910390a462002360828888888888620027cf565b50505050505050565b62002379868686868686620029ce565b600073ffffffffffffffffffffffffffffffffffffffff168473ffffffffffffffffffffffffffffffffffffffff1614620024ff5760005b8351811015620024fd576000848281518110620023f7577f4e487b7100000000000000000000000000000000000000000000000000000000600052603260045260246000fd5b6020026020010151905060008483815181106200243d577f4e487b7100000000000000000000000000000000000000000000000000000000600052603260045260246000fd5b6020026020010151905060006200245e6200245762001357565b8462000433565b14620024a1576040517f08c379a0000000000000000000000000000000000000000000000000000000008152600401620024989062003960565b60405180910390fd5b60018114620024e7576040517f08c379a0000000000000000000000000000000000000000000000000000000008152600401620024de906200391c565b60405180910390fd5b505080620024f59062003ec1565b9050620023b1565b505b505050505050565b620025288473ffffffffffffffffffffffffffffffffffffffff16620029d6565b15620026fe578373ffffffffffffffffffffffffffffffffffffffff1663bc197c8187878686866040518663ffffffff1660e01b8152600401620025719594939291906200369f565b602060405180830381600087803b1580156200258c57600080fd5b505af1925050508015620025c057506040513d601f19601f82011682018060405250810190620025bd919062003014565b60015b6200267257620025cf62004003565b806308c379a01415620026335750620025e762004609565b80620025f4575062002635565b806040517f08c379a00000000000000000000000000000000000000000000000000000000081526004016200262a91906200384e565b60405180910390fd5b505b6040517f08c379a0000000000000000000000000000000000000000000000000000000008152600401620026699062003872565b60405180910390fd5b63bc197c8160e01b7bffffffffffffffffffffffffffffffffffffffffffffffffffffffff1916817bffffffffffffffffffffffffffffffffffffffffffffffffffffffff191614620026fc576040517f08c379a0000000000000000000000000000000000000000000000000000000008152600401620026f39062003894565b60405180910390fd5b505b505050505050565b60606000600167ffffffffffffffff8111156200274c577f4e487b7100000000000000000000000000000000000000000000000000000000600052604160045260246000fd5b6040519080825280602002602001820160405280156200277b5781602001602082028036833780820191505090505b5090508281600081518110620027ba577f4e487b7100000000000000000000000000000000000000000000000000000000600052603260045260246000fd5b60200260200101818152505080915050919050565b620027f08473ffffffffffffffffffffffffffffffffffffffff16620029d6565b15620029c6578373ffffffffffffffffffffffffffffffffffffffff1663f23a6e6187878686866040518663ffffffff1660e01b81526004016200283995949392919062003711565b602060405180830381600087803b1580156200285457600080fd5b505af19250505080156200288857506040513d601f19601f8201168201806040525081019062002885919062003014565b60015b6200293a576200289762004003565b806308c379a01415620028fb5750620028af62004609565b80620028bc5750620028fd565b806040517f08c379a0000000000000000000000000000000000000000000000000000000008152600401620028f291906200384e565b60405180910390fd5b505b6040517f08c379a0000000000000000000000000000000000000000000000000000000008152600401620029319062003872565b60405180910390fd5b63f23a6e6160e01b7bffffffffffffffffffffffffffffffffffffffffffffffffffffffff1916817bffffffffffffffffffffffffffffffffffffffffffffffffffffffff191614620029c4576040517f08c379a0000000000000000000000000000000000000000000000000000000008152600401620029bb9062003894565b60405180910390fd5b505b505050505050565b505050505050565b6000808273ffffffffffffffffffffffffffffffffffffffff163b119050919050565b611159806200471483390190565b600062002a1e62002a188462003bba565b62003b91565b9050808382526020820190508285602086028201111562002a3e57600080fd5b60005b8581101562002a72578162002a57888262002b36565b84526020840193506020830192505060018101905062002a41565b5050509392505050565b600062002a9362002a8d8462003be9565b62003b91565b9050808382526020820190508285602086028201111562002ab357600080fd5b60005b8581101562002ae7578162002acc888262002c7d565b84526020840193506020830192505060018101905062002ab6565b5050509392505050565b600062002b0862002b028462003c18565b62003b91565b90508281526020810184848401111562002b2157600080fd5b62002b2e84828562003e10565b509392505050565b60008135905062002b4781620046ab565b92915050565b60008151905062002b5e81620046ab565b92915050565b600082601f83011262002b7657600080fd5b813562002b8884826020860162002a07565b91505092915050565b600082601f83011262002ba357600080fd5b813562002bb584826020860162002a7c565b91505092915050565b60008135905062002bcf81620046c5565b92915050565b60008135905062002be681620046df565b92915050565b60008151905062002bfd81620046df565b92915050565b600082601f83011262002c1557600080fd5b813562002c2784826020860162002af1565b91505092915050565b60008083601f84011262002c4357600080fd5b8235905067ffffffffffffffff81111562002c5d57600080fd5b60208301915083600182028301111562002c7657600080fd5b9250929050565b60008135905062002c8e81620046f9565b92915050565b60006020828403121562002ca757600080fd5b600062002cb78482850162002b36565b91505092915050565b60006020828403121562002cd357600080fd5b600062002ce38482850162002b4d565b91505092915050565b6000806040838503121562002d0057600080fd5b600062002d108582860162002b36565b925050602062002d238582860162002b36565b9150509250929050565b600080600080600060a0868803121562002d4657600080fd5b600062002d568882890162002b36565b955050602062002d698882890162002b36565b945050604086013567ffffffffffffffff81111562002d8757600080fd5b62002d958882890162002b91565b935050606086013567ffffffffffffffff81111562002db357600080fd5b62002dc18882890162002b91565b925050608086013567ffffffffffffffff81111562002ddf57600080fd5b62002ded8882890162002c03565b9150509295509295909350565b600080600080600060a0868803121562002e1357600080fd5b600062002e238882890162002b36565b955050602062002e368882890162002b36565b945050604062002e498882890162002c7d565b935050606062002e5c8882890162002c7d565b925050608086013567ffffffffffffffff81111562002e7a57600080fd5b62002e888882890162002c03565b9150509295509295909350565b6000806040838503121562002ea957600080fd5b600062002eb98582860162002b36565b925050602062002ecc8582860162002bbe565b9150509250929050565b60008060006040848603121562002eec57600080fd5b600062002efc8682870162002b36565b935050602084013567ffffffffffffffff81111562002f1a57600080fd5b62002f288682870162002c30565b92509250509250925092565b6000806040838503121562002f4857600080fd5b600062002f588582860162002b36565b925050602062002f6b8582860162002c7d565b9150509250929050565b6000806040838503121562002f8957600080fd5b600083013567ffffffffffffffff81111562002fa457600080fd5b62002fb28582860162002b64565b925050602083013567ffffffffffffffff81111562002fd057600080fd5b62002fde8582860162002b91565b9150509250929050565b60006020828403121562002ffb57600080fd5b60006200300b8482850162002bd5565b91505092915050565b6000602082840312156200302757600080fd5b6000620030378482850162002bec565b91505092915050565b600080602083850312156200305457600080fd5b600083013567ffffffffffffffff8111156200306f57600080fd5b6200307d8582860162002c30565b92509250509250929050565b6000602082840312156200309c57600080fd5b6000620030ac8482850162002c7d565b91505092915050565b6000620030c38383620035f1565b60208301905092915050565b620030da8162003d9a565b82525050565b6000620030ed8262003c5e565b620030f9818562003c8c565b9350620031068362003c4e565b8060005b838110156200313d578151620031218882620030b5565b97506200312e8362003c7f565b9250506001810190506200310a565b5085935050505092915050565b620031558162003dae565b82525050565b6000620031688262003c69565b62003174818562003c9d565b93506200318681856020860162003e1f565b620031918162004028565b840191505092915050565b6000620031aa838562003cae565b9350620031b983858462003e10565b620031c48362004028565b840190509392505050565b6000620031dd838562003cbf565b9350620031ec83858462003e10565b82840190509392505050565b6000620032058262003c74565b62003211818562003cae565b93506200322381856020860162003e1f565b6200322e8162004028565b840191505092915050565b6000620032468262003c74565b62003252818562003cbf565b93506200326481856020860162003e1f565b80840191505092915050565b60006200327f60348362003cae565b91506200328c8262004046565b604082019050919050565b6000620032a660288362003cae565b9150620032b38262004095565b604082019050919050565b6000620032cd60068362003cbf565b9150620032da82620040e4565b600682019050919050565b6000620032f4602b8362003cae565b915062003301826200410d565b604082019050919050565b60006200331b60268362003cae565b915062003328826200415c565b604082019050919050565b60006200334260248362003cae565b91506200334f82620041ab565b604082019050919050565b60006200336960038362003cbf565b91506200337682620041fa565b600382019050919050565b600062003390600d8362003cae565b91506200339d8262004223565b602082019050919050565b6000620033b760298362003cae565b9150620033c4826200424c565b604082019050919050565b6000620033de60188362003cae565b9150620033eb826200429b565b602082019050919050565b60006200340560138362003cae565b91506200341282620042c4565b602082019050919050565b60006200342c60258362003cae565b91506200343982620042ed565b604082019050919050565b60006200345360328362003cae565b915062003460826200433c565b604082019050919050565b60006200347a600f8362003cae565b915062003487826200438b565b602082019050919050565b6000620034a160238362003cae565b9150620034ae82620043b4565b604082019050919050565b6000620034c8602a8362003cae565b9150620034d58262004403565b604082019050919050565b6000620034ef60208362003cae565b9150620034fc8262004452565b602082019050919050565b600062003516600b8362003cae565b915062003523826200447b565b602082019050919050565b60006200353d60298362003cae565b91506200354a82620044a4565b604082019050919050565b60006200356460298362003cae565b91506200357182620044f3565b604082019050919050565b60006200358b60288362003cae565b9150620035988262004542565b604082019050919050565b6000620035b260218362003cae565b9150620035bf8262004591565b604082019050919050565b6000620035d960058362003cbf565b9150620035e682620045e0565b600582019050919050565b620035fc8162003e06565b82525050565b6200360d8162003e06565b82525050565b600062003622828486620031cf565b91508190509392505050565b60006200363b82620032be565b9150819050919050565b600062003652826200335a565b915062003660828462003239565b915081905092915050565b60006200367882620035ca565b9150819050919050565b6000602082019050620036996000830184620030cf565b92915050565b600060a082019050620036b66000830188620030cf565b620036c56020830187620030cf565b8181036040830152620036d98186620030e0565b90508181036060830152620036ef8185620030e0565b905081810360808301526200370581846200315b565b90509695505050505050565b600060a082019050620037286000830188620030cf565b620037376020830187620030cf565b62003746604083018662003602565b62003755606083018562003602565b81810360808301526200376981846200315b565b90509695505050505050565b60006020820190508181036000830152620037918184620030e0565b905092915050565b60006040820190508181036000830152620037b58185620030e0565b90508181036020830152620037cb8184620030e0565b90509392505050565b6000602082019050620037eb60008301846200314a565b92915050565b600060808201905081810360008301526200380e8187896200319c565b90508181036020830152620038248186620031f8565b9050620038356040830185620030cf565b620038446060830184620030cf565b9695505050505050565b600060208201905081810360008301526200386a8184620031f8565b905092915050565b600060208201905081810360008301526200388d8162003270565b9050919050565b60006020820190508181036000830152620038af8162003297565b9050919050565b60006020820190508181036000830152620038d181620032e5565b9050919050565b60006020820190508181036000830152620038f3816200330c565b9050919050565b60006020820190508181036000830152620039158162003333565b9050919050565b60006020820190508181036000830152620039378162003381565b9050919050565b600060208201905081810360008301526200395981620033a8565b9050919050565b600060208201905081810360008301526200397b81620033cf565b9050919050565b600060208201905081810360008301526200399d81620033f6565b9050919050565b60006020820190508181036000830152620039bf816200341d565b9050919050565b60006020820190508181036000830152620039e18162003444565b9050919050565b6000602082019050818103600083015262003a03816200346b565b9050919050565b6000602082019050818103600083015262003a258162003492565b9050919050565b6000602082019050818103600083015262003a4781620034b9565b9050919050565b6000602082019050818103600083015262003a6981620034e0565b9050919050565b6000602082019050818103600083015262003a8b8162003507565b9050919050565b6000602082019050818103600083015262003aad816200352e565b9050919050565b6000602082019050818103600083015262003acf8162003555565b9050919050565b6000602082019050818103600083015262003af1816200357c565b9050919050565b6000602082019050818103600083015262003b1381620035a3565b9050919050565b600060208201905062003b31600083018462003602565b92915050565b600060408201905062003b4e600083018562003602565b62003b5d6020830184620030cf565b9392505050565b600060408201905062003b7b600083018562003602565b62003b8a602083018462003602565b9392505050565b600062003b9d62003bb0565b905062003bab828262003e8b565b919050565b6000604051905090565b600067ffffffffffffffff82111562003bd85762003bd762003fd4565b5b602082029050602081019050919050565b600067ffffffffffffffff82111562003c075762003c0662003fd4565b5b602082029050602081019050919050565b600067ffffffffffffffff82111562003c365762003c3562003fd4565b5b62003c418262004028565b9050602081019050919050565b6000819050602082019050919050565b600081519050919050565b600081519050919050565b600081519050919050565b6000602082019050919050565b600082825260208201905092915050565b600082825260208201905092915050565b600082825260208201905092915050565b600081905092915050565b600062003cd78262003e06565b915062003ce48362003e06565b9250827fffffffffffffffffffffffffffffffffffffffffffffffffffffffffffffffff0382111562003d1c5762003d1b62003f47565b5b828201905092915050565b600062003d348262003e06565b915062003d418362003e06565b92508262003d545762003d5362003f76565b5b828204905092915050565b600062003d6c8262003e06565b915062003d798362003e06565b92508282101562003d8f5762003d8e62003f47565b5b828203905092915050565b600062003da78262003de6565b9050919050565b60008115159050919050565b60007fffffffff0000000000000000000000000000000000000000000000000000000082169050919050565b600073ffffffffffffffffffffffffffffffffffffffff82169050919050565b6000819050919050565b82818337600083830152505050565b60005b8381101562003e3f57808201518184015260208101905062003e22565b8381111562003e4f576000848401525b50505050565b6000600282049050600182168062003e6e57607f821691505b6020821081141562003e855762003e8462003fa5565b5b50919050565b62003e968262004028565b810181811067ffffffffffffffff8211171562003eb85762003eb762003fd4565b5b80604052505050565b600062003ece8262003e06565b91507fffffffffffffffffffffffffffffffffffffffffffffffffffffffffffffffff82141562003f045762003f0362003f47565b5b600182019050919050565b600062003f1c8262003e06565b915062003f298362003e06565b92508262003f3c5762003f3b62003f76565b5b828206905092915050565b7f4e487b7100000000000000000000000000000000000000000000000000000000600052601160045260246000fd5b7f4e487b7100000000000000000000000000000000000000000000000000000000600052601260045260246000fd5b7f4e487b7100000000000000000000000000000000000000000000000000000000600052602260045260246000fd5b7f4e487b7100000000000000000000000000000000000000000000000000000000600052604160045260246000fd5b600060033d1115620040255760046000803e6200402260005162004039565b90505b90565b6000601f19601f8301169050919050565b60008160e01c9050919050565b7f455243313135353a207472616e7366657220746f206e6f6e204552433131353560008201527f526563656976657220696d706c656d656e746572000000000000000000000000602082015250565b7f455243313135353a204552433131353552656365697665722072656a6563746560008201527f6420746f6b656e73000000000000000000000000000000000000000000000000602082015250565b7f6d656d6265720000000000000000000000000000000000000000000000000000600082015250565b7f455243313135353a2062616c616e636520717565727920666f7220746865207a60008201527f65726f2061646472657373000000000000000000000000000000000000000000602082015250565b7f4f776e61626c653a206e6577206f776e657220697320746865207a65726f206160008201527f6464726573730000000000000000000000000000000000000000000000000000602082015250565b7f455243313135353a206275726e20616d6f756e7420657863656564732062616c60008201527f616e636500000000000000000000000000000000000000000000000000000000602082015250565b7f594a5f0000000000000000000000000000000000000000000000000000000000600082015250565b7f4f4e455f544f4b454e5f4d415800000000000000000000000000000000000000600082015250565b7f455243313135353a2063616c6c6572206973206e6f74206f776e6572206e6f7260008201527f20617070726f7665640000000000000000000000000000000000000000000000602082015250565b7f414c52454144595f41535349474e45445f544f5f524f4c450000000000000000600082015250565b7f494e56414c49445f5045524d495353494f4e5300000000000000000000000000600082015250565b7f455243313135353a207472616e7366657220746f20746865207a65726f20616460008201527f6472657373000000000000000000000000000000000000000000000000000000602082015250565b7f455243313135353a207472616e736665722063616c6c6572206973206e6f742060008201527f6f776e6572206e6f7220617070726f7665640000000000000000000000000000602082015250565b7f494e4558495354454e545f524f4c450000000000000000000000000000000000600082015250565b7f455243313135353a206275726e2066726f6d20746865207a65726f206164647260008201527f6573730000000000000000000000000000000000000000000000000000000000602082015250565b7f455243313135353a20696e73756666696369656e742062616c616e636520666f60008201527f72207472616e7366657200000000000000000000000000000000000000000000602082015250565b7f4f776e61626c653a2063616c6c6572206973206e6f7420746865206f776e6572600082015250565b7f4e4f545f494e5f524f4c45000000000000000000000000000000000000000000600082015250565b7f455243313135353a2073657474696e6720617070726f76616c2073746174757360008201527f20666f722073656c660000000000000000000000000000000000000000000000602082015250565b7f455243313135353a206163636f756e747320616e6420696473206c656e67746860008201527f206d69736d617463680000000000000000000000000000000000000000000000602082015250565b7f455243313135353a2069647320616e6420616d6f756e7473206c656e6774682060008201527f6d69736d61746368000000000000000000000000000000000000000000000000602082015250565b7f455243313135353a206d696e7420746f20746865207a65726f2061646472657360008201527f7300000000000000000000000000000000000000000000000000000000000000602082015250565b7f61646d696e000000000000000000000000000000000000000000000000000000600082015250565b600060443d10156200461b57620046a8565b6200462562003bb0565b60043d036004823e80513d602482011167ffffffffffffffff821117156200464f575050620046a8565b808201805167ffffffffffffffff8111156200466f5750505050620046a8565b80602083010160043d0385018111156200468e575050505050620046a8565b6200469f8260200185018662003e8b565b82955050505050505b90565b620046b68162003d9a565b8114620046c257600080fd5b50565b620046d08162003dae565b8114620046dc57600080fd5b50565b620046ea8162003dba565b8114620046f657600080fd5b50565b620047048162003e06565b81146200471057600080fd5b5056fe60806040523480156200001157600080fd5b506040516200115938038062001159833981810160405281019062000037919062000501565b81620000586200004c6200015a60201b60201c565b6200016260201b60201c565b62000069816200022660201b60201c565b50600073ffffffffffffffffffffffffffffffffffffffff168173ffffffffffffffffffffffffffffffffffffffff161415620000dd576040517f08c379a0000000000000000000000000000000000000000000000000000000008152600401620000d4906200069d565b60405180910390fd5b80600460006101000a81548173ffffffffffffffffffffffffffffffffffffffff021916908373ffffffffffffffffffffffffffffffffffffffff16021790555083600290805190602001906200013692919062000383565b5082600390805190602001906200014f92919062000383565b50505050506200091f565b600033905090565b60008060009054906101000a900473ffffffffffffffffffffffffffffffffffffffff169050816000806101000a81548173ffffffffffffffffffffffffffffffffffffffff021916908373ffffffffffffffffffffffffffffffffffffffff1602179055508173ffffffffffffffffffffffffffffffffffffffff168173ffffffffffffffffffffffffffffffffffffffff167f8be0079c531659141344cd1fd0a4f28419497f9722a3daafe3b4186f6b6457e060405160405180910390a35050565b604051602001620002379062000664565b604051602081830303815290604052805190602001208173ffffffffffffffffffffffffffffffffffffffff166310055c1d6040518163ffffffff1660e01b815260040160006040518083038186803b1580156200029457600080fd5b505afa158015620002a9573d6000803e3d6000fd5b505050506040513d6000823e3d601f19601f82011682018060405250810190620002d49190620004bc565b604051602001620002e691906200064b565b60405160208183030381529060405280519060200120146200033f576040517f08c379a000000000000000000000000000000000000000000000000000000000815260040162000336906200067b565b60405180910390fd5b80600160006101000a81548173ffffffffffffffffffffffffffffffffffffffff021916908373ffffffffffffffffffffffffffffffffffffffff16021790555050565b8280546200039190620007af565b90600052602060002090601f016020900481019282620003b5576000855562000401565b82601f10620003d057805160ff191683800117855562000401565b8280016001018555821562000401579182015b8281111562000400578251825591602001919060010190620003e3565b5b50905062000410919062000414565b5090565b5b808211156200042f57600081600090555060010162000415565b5090565b60006200044a6200044484620006e8565b620006bf565b9050828152602081018484840111156200046357600080fd5b6200047084828562000779565b509392505050565b600081519050620004898162000905565b92915050565b600082601f830112620004a157600080fd5b8151620004b384826020860162000433565b91505092915050565b600060208284031215620004cf57600080fd5b600082015167ffffffffffffffff811115620004ea57600080fd5b620004f8848285016200048f565b91505092915050565b600080600080608085870312156200051857600080fd5b600085015167ffffffffffffffff8111156200053357600080fd5b62000541878288016200048f565b945050602085015167ffffffffffffffff8111156200055f57600080fd5b6200056d878288016200048f565b9350506040620005808782880162000478565b9250506060620005938782880162000478565b91505092959194509250565b6000620005ac826200071e565b620005b881856200073a565b9350620005ca81856020860162000779565b80840191505092915050565b6000620005e560148362000729565b9150620005f2826200088a565b602082019050919050565b60006200060c60148362000729565b91506200061982620008b3565b602082019050919050565b6000620006336005836200073a565b91506200064082620008dc565b600582019050919050565b60006200065982846200059f565b915081905092915050565b6000620006718262000624565b9150819050919050565b600060208201905081810360008301526200069681620005d6565b9050919050565b60006020820190508181036000830152620006b881620005fd565b9050919050565b6000620006cb620006de565b9050620006d98282620007e5565b919050565b6000604051905090565b600067ffffffffffffffff8211156200070657620007056200084a565b5b620007118262000879565b9050602081019050919050565b600081519050919050565b600082825260208201905092915050565b600081905092915050565b6000620007528262000759565b9050919050565b600073ffffffffffffffffffffffffffffffffffffffff82169050919050565b60005b83811015620007995780820151818401526020810190506200077c565b83811115620007a9576000848401525b50505050565b60006002820490506001821680620007c857607f821691505b60208210811415620007df57620007de6200081b565b5b50919050565b620007f08262000879565b810181811067ffffffffffffffff821117156200081257620008116200084a565b5b80604052505050565b7f4e487b7100000000000000000000000000000000000000000000000000000000600052602260045260246000fd5b7f4e487b7100000000000000000000000000000000000000000000000000000000600052604160045260246000fd5b6000601f19601f8301169050919050565b7f496e76616c69642048756220436f6e7472616374000000000000000000000000600082015250565b7f494e56414c4944204a5552495344494354494f4e000000000000000000000000600082015250565b7f594a487562000000000000000000000000000000000000000000000000000000600082015250565b620009108162000745565b81146200091c57600080fd5b50565b61082a806200092f6000396000f3fe608060405234801561001057600080fd5b50600436106100575760003560e01c806306fdde031461005c578063715018a61461007a5780638da5cb5b1461008457806395d89b41146100a2578063f2fde38b146100c0575b600080fd5b6100646100dc565b6040516100719190610610565b60405180910390f35b61008261016a565b005b61008c6101f2565b60405161009991906105f5565b60405180910390f35b6100aa610299565b6040516100b79190610610565b60405180910390f35b6100da60048036038101906100d59190610515565b610327565b005b600280546100e9906106f3565b80601f0160208091040260200160405190810160405280929190818152602001828054610115906106f3565b80156101625780601f1061013757610100808354040283529160200191610162565b820191906000526020600020905b81548152906001019060200180831161014557829003601f168201915b505050505081565b61017261041f565b73ffffffffffffffffffffffffffffffffffffffff166101906101f2565b73ffffffffffffffffffffffffffffffffffffffff16146101e6576040517f08c379a00000000000000000000000000000000000000000000000000000000081526004016101dd90610652565b60405180910390fd5b6101f06000610427565b565b6000600160009054906101000a900473ffffffffffffffffffffffffffffffffffffffff1673ffffffffffffffffffffffffffffffffffffffff16638da5cb5b6040518163ffffffff1660e01b815260040160206040518083038186803b15801561025c57600080fd5b505afa158015610270573d6000803e3d6000fd5b505050506040513d601f19601f82011682018060405250810190610294919061053e565b905090565b600380546102a6906106f3565b80601f01602080910402602001604051908101604052809291908181526020018280546102d2906106f3565b801561031f5780601f106102f45761010080835404028352916020019161031f565b820191906000526020600020905b81548152906001019060200180831161030257829003601f168201915b505050505081565b61032f61041f565b73ffffffffffffffffffffffffffffffffffffffff1661034d6101f2565b73ffffffffffffffffffffffffffffffffffffffff16146103a3576040517f08c379a000000000000000000000000000000000000000000000000000000000815260040161039a90610652565b60405180910390fd5b600073ffffffffffffffffffffffffffffffffffffffff168173ffffffffffffffffffffffffffffffffffffffff161415610413576040517f08c379a000000000000000000000000000000000000000000000000000000000815260040161040a90610632565b60405180910390fd5b61041c81610427565b50565b600033905090565b60008060009054906101000a900473ffffffffffffffffffffffffffffffffffffffff169050816000806101000a81548173ffffffffffffffffffffffffffffffffffffffff021916908373ffffffffffffffffffffffffffffffffffffffff1602179055508173ffffffffffffffffffffffffffffffffffffffff168173ffffffffffffffffffffffffffffffffffffffff167f8be0079c531659141344cd1fd0a4f28419497f9722a3daafe3b4186f6b6457e060405160405180910390a35050565b6000813590506104fa816107dd565b92915050565b60008151905061050f816107dd565b92915050565b60006020828403121561052757600080fd5b6000610535848285016104eb565b91505092915050565b60006020828403121561055057600080fd5b600061055e84828501610500565b91505092915050565b6105708161068e565b82525050565b600061058182610672565b61058b818561067d565b935061059b8185602086016106c0565b6105a481610754565b840191505092915050565b60006105bc60268361067d565b91506105c782610765565b604082019050919050565b60006105df60208361067d565b91506105ea826107b4565b602082019050919050565b600060208201905061060a6000830184610567565b92915050565b6000602082019050818103600083015261062a8184610576565b905092915050565b6000602082019050818103600083015261064b816105af565b9050919050565b6000602082019050818103600083015261066b816105d2565b9050919050565b600081519050919050565b600082825260208201905092915050565b6000610699826106a0565b9050919050565b600073ffffffffffffffffffffffffffffffffffffffff82169050919050565b60005b838110156106de5780820151818401526020810190506106c3565b838111156106ed576000848401525b50505050565b6000600282049050600182168061070b57607f821691505b6020821081141561071f5761071e610725565b5b50919050565b7f4e487b7100000000000000000000000000000000000000000000000000000000600052602260045260246000fd5b6000601f19601f8301169050919050565b7f4f776e61626c653a206e6577206f776e657220697320746865207a65726f206160008201527f6464726573730000000000000000000000000000000000000000000000000000602082015250565b7f4f776e61626c653a2063616c6c6572206973206e6f7420746865206f776e6572600082015250565b6107e68161068e565b81146107f157600080fd5b5056fea26469706673582212203bd7907eb05a1c4b7bc054ef346d024350433657caf5b6816737c5f89a30d00864736f6c63430008040033a26469706673582212203e6b9a331986bf74ff6179f441ae5c06c8f24c424ffd2fcc4adbb8e7aa257e8d64736f6c63430008040033",
  "linkReferences": {},
  "deployedLinkReferences": {}
}